:020000040800F2
:1000000000900020193401084940000851400008C0
:1000100000000000000000000000000000000000E0
:100020000000000000000000000000005340000835
:100030000000000000000000554000085740000884
:1000400069340108000000006934010869340108BE
:100050006934010869340108693401086934010808
:10006000000000006934010869340108693401089E
:10007000693401086934010869340108000000008E
:1000800069340108594000086934010869340108DD
:1000900069340108693401086934010869340108C8
:1000A00069340108693401086934010869340108B8
:0800B0006934010869340108FC
:1000B80010B5064C2378002B07D1054B002B02D036
:1000C800044800E000BF0123237010BD200A00206F
:1000D8000000000024640108044B10B5002B03D075
:1000E8000349044800E000BF10BDC04600000000FE
:1000F800240A00202464010802780B78002A03D01F
:10010800013001319A42F7D0D01A70470023C25CFF
:100118000133002AFBD1581E7047000002B4714613
:1001280049084900095C49008E4402BC7047C04632
:1001380003B47146490840004900095E49008E44ED
:1001480003BC704703B47146490840004900095A86
:1001580049008E4403BC7047002243088B4274D385
:1001680003098B425FD3030A8B4244D3030B8B42B0
:1001780028D3030C8B420DD3FF22090212BA030CB9
:100188008B4202D31212090265D0030B8B4219D39A
:1001980000E0090AC30B8B4201D3CB03C01A5241BA
:1001A800830B8B4201D38B03C01A5241430B8B4202
:1001B80001D34B03C01A5241030B8B4201D30B03EB
:1001C800C01A5241C30A8B4201D3CB02C01A524112
:1001D800830A8B4201D38B02C01A5241430A8B42D5
:1001E80001D34B02C01A5241030A8B4201D30B02BE
:1001F800C01A5241CDD2C3098B4201D3CB01C01AD8
:10020800524183098B4201D38B01C01A52414309E1
:100218008B4201D34B01C01A524103098B4201D3CF
:100228000B01C01A5241C3088B4201D3CB00C01A3C
:10023800524183088B4201D38B00C01A52414308B4
:100248008B4201D34B00C01A5241411A00D20146D9
:10025800524110467047FFE701B5002000F0F0F862
:1002680002BDC0460029F7D076E7704703460B4326
:100278007FD4002243088B4274D303098B425FD397
:10028800030A8B4244D3030B8B4228D3030C8B42C3
:100298000DD3FF22090212BA030C8B4202D31212A9
:1002A800090265D0030B8B4219D300E0090AC30B7E
:1002B8008B4201D3CB03C01A5241830B8B4201D32B
:1002C8008B03C01A5241430B8B4201D34B03C01A14
:1002D8005241030B8B4201D30B03C01A5241C30A8C
:1002E8008B4201D3CB02C01A5241830A8B4201D3FD
:1002F8008B02C01A5241430A8B4201D34B02C01AE7
:100308005241030A8B4201D30B02C01A5241CDD28B
:10031800C3098B4201D3CB01C01A524183098B42D6
:1003280001D38B01C01A524143098B4201D34B01BF
:10033800C01A524103098B4201D30B01C01A524122
:10034800C3088B4201D3CB00C01A524183088B42A9
:1003580001D38B00C01A524143088B4201D34B0092
:10036800C01A5241411A00D2014652411046704704
:100378005DE0CA0F00D04942031000D34042534009
:1003880000229C4603098B422DD3030A8B4212D3C9
:10039800FC22890112BA030A8B420CD389019211FB
:1003A8008B4208D3890192118B4204D389013AD038
:1003B800921100E08909C3098B4201D3CB01C01A0D
:1003C800524183098B4201D38B01C01A5241430920
:1003D8008B4201D34B01C01A524103098B4201D30E
:1003E8000B01C01A5241C3088B4201D3CB00C01A7B
:1003F800524183088B4201D38B00C01A5241D9D293
:1004080043088B4201D34B00C01A5241411A00D213
:100418000146634652415B10104601D34042002B0F
:1004280000D54942704763465B1000D3404201B58E
:10043800002000F005F802BD0029F8D016E7704743
:100448007047C0468446101C62468C46191C634699
:1004580000E0C0461FB501F013F8002801D40021C0
:10046800C8421FBD10B500F06DFF4042013010BDFD
:1004780010B501F005F8002801DB002010BD0120AF
:1004880010BDC04610B500F0FBFF002801DD0020BC
:1004980010BD012010BDC04610B500F08DFF00282A
:1004A80001DC002010BD012010BDC04610B500F0D1
:1004B80083FF002801DA002010BD012010BDC046CE
:1004C800002B11D1002A0FD1002900D1002802D019
:1004D8000021C943081C07B4024802A14018029031
:1004E80003BDC0465DFFFFFF03B4684601B502982F
:1004F80000F024F8019B9E4602B00CBC7047C04631
:1005080070B500220C4B04000D00FFF7CFFF002848
:1005180004D12000290001F0CBFD70BD064B00225C
:100528002000290001F08EFA01F0C2FD80231B068D
:100538009C466044F1E7C0460000E041F0B55746EC
:100548004E464546DE46E0B5040083B00D009246AF
:1005580099468B422FD82CD04946504601F0C6FE0A
:1005680029000600200001F0C1FE331A9846203BFE
:100578009B4600D574E053465A4693401F005346A5
:10058800424693401E00AF4229D826D05B46A41BA2
:10059800BD41002B00DA79E000220023009201938C
:1005A80001235A4693400193012342469340009306
:1005B80019E08242D0D900220023009201930C9BBB
:1005C800002B01D01C605D600098019903B03CBC11
:1005D80090469946A246AB46F0BDA342D6D9002222
:1005E8000023009201934346002BE8D0FB077208D2
:1005F8001A4346467B080EE0AB4201D1A2420CD812
:10060800A41A9D41012024196D410021013E24189E
:100618004D41002E06D0AB42EED9013E24196D4162
:10062800002EF8D15B460098019900196941002B0A
:1006380022DB2B005A46D3402A004446E2401C00E5
:100648005B461500002B2CDB26009E40330026005D
:100658004746BE403200801A994100900191AEE7AA
:10066800424620239B1A5246DA40414613004A4626
:100678008A4017001F4382E7424620239B1A2A001C
:1006880046469A402300F3401343D5E742462023C9
:1006980000219B1A0022009101920122DA40019266
:1006A80082E74246202326009B1ADE402F00B446EC
:1006B800974066463B003343C9E7C046F8B5454610
:1006C800DE4657464E460C03E0B54E00C90F884635
:1006D8000D00610A440F0C43C70019035800DB0FD3
:1006E8009B464B0A510F0B43760D400D1900D20063
:1006F800D84500D1AEE0351A002D00DCF6E0002820
:100708000FD1134300D1DBE06B1E002B00D037E183
:10071800BA1A9742BF41641A7F42E41B01261700A8
:1007280024E0C64B9E424DD080231B041943382D2C
:1007380000DD07E11F2D00DD38E12020431B9A462C
:100748000B0050468340994613004846EB40184337
:10075800030050468240501E8241E9401A43BA1AAB
:10076800611A9742A441170064420C1B230262D508
:100778006402650A002D00D1DFE0280001F098FD31
:100788000300083B1F2B00DDD2E020223C00D21AD8
:100798009D40D4409F4025439E4200DDC4E09E1BFF
:1007A800731C1F2B00DDF1E0202238002900D21A2B
:1007B800D840914097402C000143781E8741DC4087
:1007C80000260F437B0709D00F233B40042B05D09D
:1007D8003B1DBB42BF417F42E4191F0023022CD5B9
:1007E800964B01369E4200D19AE04546944BFF084D
:1007F8001C406007760564020743240B760D002130
:100808002403230B0C0D8F4A24051C431440330585
:1008180023435B00ED075B082B43380019003CBC01
:1008280090469946A246AB46F8BD6446044300D1BB
:1008380011E2040067467B07C6D145466007FF08FA
:100848000743E4087D4B9E4230D024037605240BF1
:10085800760DD4E7331A9A46002B78DD002831D07C
:1008680076488642AED08020000401435346382B98
:1008780000DCE9E00A43511E8A410021D219BA423C
:10088800BF4109197C4217000C192302D3D56B4BC1
:1008980001369E4200D13AE10120694B1C407B0899
:1008A80007401F43E007074364088BE723003B43E7
:1008B80000D1CBE18022120314432403240B9EE7CA
:1008C8002E007FE70800104300D1B4E0581E00282E
:1008D80000D0DEE0BA18BA429B4164185B42E418C3
:1008E800170001262302A6D50226D5E7002D6ED1D2
:1008F800701C4005400D012800DCF9E0B81A844658
:1009080087428041E51A40422D1A280200D489E026
:10091800D71BBA4292411C1B5242A51AD84629E756
:100928004546002400276AE7454CF61A2C4049E75B
:100938003D002838854000272EE7380001F0B8FC34
:1009480020301DE70A43511E8A41002107E7002B8A
:1009580000D0F3E0701C43055B0D012B00DCADE01B
:10096800364B984200D1D1E0BA18BA42BF41641858
:100978007F42E419E707520817436408060021E795
:100988002E48854200D193E01D00D0E629001F3E85
:10099800F140202B00D18DE04022D31A9D402F43F7
:1009A8007D1EAF4100240F43002644E72B000800BA
:1009B800203BD8400300202D00D17DE04020451B7E
:1009C800A9400A43511E8A4100211A43C7E6002E56
:1009D80050D01A4EB04257D080266B429946360402
:1009E80034434B46382B00DDD6E01F2B00DD35E1C4
:1009F8002026F51A2600AE40B2463E00DE40AC4640
:100A0800350056462E436546AF407D1EAF41DC405B
:100A18003743D71BBA4292410C1B5242A41A060014
:100A2800D846A3E6644667462C4300D0A2E60025D4
:100A38000026002706E71E00C4E6C046FF070000A0
:100A4800FFFF7FFFFFFF0F801F2B63DC2020C31AEF
:100A5800080098409C46834653461000D84003003F
:100A68005846184363469A40531E9A4153460243D8
:100A7800D94003E726003E4306D0EB439946002BB6
:100A8800C7D0944EB042ACD10C0017000600D8462F
:100A980098E6904B9A450BD08246E7E6002800D0AE
:100AA8009EE01800104300D1E9E01C001700D8466A
:100AB800884E87E6002572E7002182E723003B4342
:100AC800002E00D0ABE0002B00D1E7E00B00134371
:100AD80000D177E6BA18BA42BF4164187F42E419D8
:100AE800230200D4F2E07C4B17001C40060069E6A4
:100AF80020003843002ED1D100285BD11C001443BC
:100B080000D1A8E01C001700D8465BE606000024C8
:100B1800002797E650460B002038C34099465346B5
:100B2800202B00D195E0402350461B1A99400A43D8
:100B3800511E8A414B4600211A439FE6002E30D1B0
:100B480026003E4367D0DB439A46002B1CD0614EFB
:100B5800B04260D05346382B00DD96E01F2B00DDF5
:100B68009FE02026F31A26009E409C46B346534633
:100B78003E00DE4033005E461E4363469F407B1EB8
:100B88009F415346DC403743BF189742924164184F
:100B98005242A418060078E627437C1EA741002489
:100BA80037E74C4EB04236D080265B4236049A4630
:100BB8003443CFE71800104300D103E6B81A84463F
:100BC8006745AD41E01A6D42401B050200D42CE692
:100BD800D71BBA4292411C1B5242A41AD846F1E5CF
:100BE8001800104300D163E7F8086707074380201F
:100BF800E4080003044208D0DD08054205D1D20804
:100C0800590711430F002C00D8467B0FE4001C4302
:100C1800FF00304ED6E50C0017000600D2E5002B89
:100C280038D00B00134300D142E7F80867070743A1
:100C38008020E40800030442E7D0CB080342E4D153
:100C4800D208490711430F001C00DEE700270024E3
:100C5800D5E500216BE700250027F3E54E46250082
:100C6800203EF5404B462E00202B2DD04025ED1A76
:100C7800AC4027437C1EA74100243743C9E68024A3
:100C880000252403134E0027DCE527437C1EA741DB
:100C9800002479E70C0017000E4E93E50C001700AE
:100CA80090E556462300203EF34099465346202BB4
:100CB8000ED0402356469B1B9C4027437C1EA741D1
:100CC8004B4600241F435FE70024D2E71700B2E534
:100CD8000024F2E7FF070000FFFF7FFFF0B557464B
:100CE8004546DE464E46E0B54C000E0387B08346C7
:100CF80092461D008046360B640DCF0F002C4FD056
:100D08006F4B9C4235D08023420F1B04F6001343DF
:100D180033439946C30098466A4B00269C460023F5
:100D2800644403932B031B0B9B466B00ED0F50464B
:100D38005B0D01955ED0624A934253D05A46D1006A
:100D48008022400F120402430A4393465246D100C0
:100D58005C4A944600226344380068408446029006
:100D6800E41A16430F2E00D9B4E0574BB6009B592E
:100D78009F460300334399466CD1002398460233BB
:100D880008260393CEE7CB464146039A0197022AE9
:100D980065D1019B4A4C9C460023002298466BE093
:100DA8000300334399464ED0002E00D1BCE13000F9
:100DB80001F07EFA03000B3B1C2B00DDACE11D2289
:100DC800D31A5A460100DA4008398E4013003343DB
:100DD80099465B468B40984600233C4C0026241AD3
:100DE80003939FE751465A46114329D1002293465F
:100DF8000232B1E7594601431ED05B46002B00D1B1
:100E08009EE1584601F054FA03000B3B1C2B00DD11
:100E18008FE102005946083A91408B461D21CB1AB2
:100E28005146D9400B0059460B4351469B469140C9
:100E3800264B00221B1A8FE7002301229B468BE7D3
:100E48005146032288E700239846013304260024EC
:100E5800039367E70323B14603930C2662E7032A4B
:100E680000D15CE2019B012A00D0E4E113409C46DA
:100E7800002300240022984600211203130B0A0DB8
:100E880012051A432305124C40462240134362467A
:100E98005B00D2075B081343190007B03CBC9046BF
:100EA8009946A246AB46F0BD002380229C46120319
:100EB8009846034CE0E70023014C00229846DBE704
:100EC800FF07000001FCFFFF6C6401080DFCFFFF39
:100ED800FFFF0F80D94500D939E100D134E1002363
:100EE80046464D469A46013C5B460A0E1B021A438B
:100EF8000B02170C039313041B0C390028009046AF
:100F08000193FFF729F90200019B83465A43280001
:100F180039009146FFF7A6F9350C09040D43A94598
:100F28000DD95B464544013BA84500D93AE1A9459E
:100F380000D837E102235B429C464544E3444B46D4
:100F4800EB1A390018000493FFF706F9019B050016
:100F58004343390004989946FFF784F93304090498
:100F68001B0C0B43994509D943446A1E984500D97F
:100F78001AE1994500D817E1023D43444A469B1AB5
:100F88005A4612042A4303999346100C0A0C9146B8
:100F980009045A46090C4E460D001204120C45432A
:100FA800059151437243704352190E0CB218954281
:100FB80003D980256D02AC466044150C090412045F
:100FC800090C28185218834200D2CEE000D1C8E09C
:100FD8001D1A53469E1AB24592415242AB1A9A467E
:100FE800984500D117E139001800FFF7B5F8019BC3
:100FF80005004343390050460493FFF733F904983A
:101008000B04310C1943884209D941446B1E8845A9
:1010180000D907E1884200D804E1023D4144049B1D
:10102800CB1A180039000493FFF796F8019B824603
:101038004343390004980193FFF714F901980B040E
:101048003104090C194388420DD953464144013BE8
:10105800884500D9E8E0884200D8E5E002235B42F1
:101068009C464144E244019B2D04CE1A5146294333
:10107800059D4F462A000B04080C1B0C5A43454398
:101088007B4378435B19170CFB189D4203D98025D5
:101098006D02AC4660441D0C12041B04120C281887
:1010A8009B18864200D293E000D18EE001231943B9
:1010B800A04BE318002B00DC99E04A0700D09EE023
:1010C8005A46D20106D55A469B4B1A40802393466E
:1010D800DB00E318994A934268DD0123029A984C91
:1010E8001A400023944698460022C5E680224B46C3
:1010F800120313420AD05B46134206D11A43120365
:10110800120BAC4688468E4CB6E64B461A43120381
:10111800120BBC468A4CAFE603005A46283B9A405D
:1011280000239146984657E6584601F0C1F820300A
:1011380040E603005246283B9A400021934677E652
:1011480001F0B6F820305FE6884500D2C7E64B4686
:10115800DE075D0843465B081E434346DB079A46A5
:10116800C2E60025924500D333E7039E5946B446AC
:10117800E244B245AD416D424544EB18013998450A
:1011880007D2984200D97FE000D1BCE01D1A8B46F7
:101198001FE79845FAD1039D5545F2D943468B463A
:1011A8001D1A16E79B46CAE61500E7E65A46C9081F
:1011B80052070A435B0590465C0D5A460123029983
:1011C80052021940120B8C4656E6002B00D16FE7ED
:1011D80046444A1EB04529D91100864200D065E729
:1011E800039A934200D061E762E701214942012056
:1011F800C21A382A21DD029B03409C4638E60F229A
:101208000A40042A00D15BE70A00111D914292416D
:101218005242934454E7474BE318002BE5DD012283
:101228005242F2E71D00FAE69A461CE7B04239D866
:101238006ED011003AE702933AE71F2A3CDC2023DC
:101248009B1A0C005846994098404B1E99415B46A2
:10125800D440D340204308431A00430709D00F2342
:101268000340042B05D00100081D88429B415B42C6
:10127800D21813023AD50123029A01241A400023F6
:10128800944698460022F7E5022149428C46039D80
:10129800E344AC46E244AA45AD416D424544ED18ED
:1012A8002D1A96E68A1E03994D008D4289414942BE
:1012B8004144761803958FE71F204042C31A5846C9
:1012C800D8400300202A28D040205D46821A954045
:1012D80029434A1E91411943072300220B4009D094
:1012E8000F2300220B400800042BBDD10100530737
:1012F8005202120BC9081943012388460299002497
:1013080019408C46B8E55245BED88B46002560E6A4
:10131800039D9D42C6D3110062E70025D8E78022CD
:101328005B4612031A43019B1203120B9C46884624
:10133800034CA1E5FF030000FFFFFFFEFE070000CE
:10134800FF070000F0B54F464646D6465C00C0B5DC
:101358001F03DB0F9A46174B0E034D008446804649
:10136800360B6D0DC90F91463F0B640D01209D4250
:1013780008D09C4201D0A5420BD01CBC904699468F
:10138800A246F0BD63463343F7D1AC42F5D13A43A8
:10139800F3D10120BE42F0D1C845EED1514507D066
:1013A800002DEAD163461E433000461EB041E4E7F3
:1013B8000020E2E7FF070000F0B54546DE46574645
:1013C8004E46E0B51F033D0B2C4F0E034C00AB46B9
:1013D8005D008446360B640DC90F90466D0DDB0F1A
:1013E800BC422AD0254FBD422DD0002C0FD130430E
:1013F8000700814678427841C0B2002D17D15F4678
:101408003A4314D14B460020002B0AD006E0002DA9
:1014180002D15846024301D0994218D048420121CE
:1014280008433CBC90469946A246AB46F0BD00280E
:10143800F2D00120013B1843F3E737000743D1D02E
:1014480002204042EDE75F461743CED0F8E7AC42B2
:10145800E4DC03DA481E01210843E2E75E45DDD8F3
:1014680006D000205E45DCD20123481E1843D8E789
:10147800C445D3D80020C445F6D3D2E7FF070000FF
:10148800F0B54E464546DE4657465C00E0B51F03BC
:10149800DB0F99462A4B0E034D00C90F8446360BC5
:1014A8006D0D8B4690463F0B640D9D4220D0244B1A
:1014B8009C4222D0002D12D1304343424341DBB23B
:1014C800002C1FD0002B0CD04B460120013B0343BE
:1014D80018003CBC90469946A246AB46F0BD002C8D
:1014E80016D0CB4517D05B46594201230B43EFE793
:1014F800310002230143EBD1D9E73900022311431C
:10150800E6D1D7E73A43DDD100230028E0D0EAE767
:101518003A43E6D1E7E7A542E5DC05DBBE42E2D87F
:1015280007D00023BE42D3D25946012301390B43C9
:10153800CEE7C445D7D80023C445F5D3C8E7C0468D
:10154800FF070000F0B557464546DE464E46E0B573
:101558000C0398464E00230B87B0070092469B4623
:10156800760DCD0F002E6BD06D4B9E4235D080246A
:101578005B46420F2404DB0014431C43C300994616
:10158800684BA3469C4600230027664402934346C3
:101598001C035A00DB0F5046240B520D984600D10D
:1015A80076E05F4B9A426DD08023410F1B040B43BA
:1015B8005C49E4008C461C43C30000206244414659
:1015C800B6186940721C0191944607430F2F00D941
:1015D800B0E0554ABF00D25997465B460343994647
:1015E80000D087E000239B46023308270293CEE70A
:1015F80042460192022867D0032800D10EE2012852
:1016080000D062E10023002400229946019901409C
:10161800CDB2002112030B0D120B1B051343434AD5
:10162800240513401C436400ED0764082C43484616
:10163800210007B03CBC90469946A246AB46F0BD97
:10164800034399464FD05B46002B00D189E15846A9
:1016580000F02EFE03000B3B1C2B00DD7AE11D225F
:10166800D31A3A0001005C46DA4008398C4013006E
:101678008F4023439B46B94600232D4E0027361A38
:10168800029384E7534623432AD10024022096E795
:101698005346234320D0002C00D157E1200000F00E
:1016A80007FE03000B3B1C2B00DD49E11D21CB1A73
:1016B80051460200D9405346083A944093400C439F
:1016C8001B4A121A00207AE70125019B144C1D4081
:1016D8000023002299469CE70024002201206EE79F
:1016E800534603206BE700239B460133042700265B
:1016F80002934CE7032381460C27029347E7802295
:101708000023002512039946054C82E75C464B46A8
:1017180002986FE75C464B46019502986AE7C04617
:10172800FF07000001FCFFFFAC640108FFFF0F800A
:101738000DFCFFFF4A464946170C1A0C1B041B0CEC
:1017480008041900000C41431500884619007D4320
:101758007943039589462900150045434D44029570
:1017680045462D0CAA46029D5544A94506D98A46E8
:10177800802149028946CA4451460391290C0491A3
:10178800414609042D04090C88462900250C240427
:101798004144240C059121004143884621007943A6
:1017A8008A466843414650448146080C48446F4382
:1017B800824503D98021490289464F44010C894654
:1017C80039004944029141460F0404993F0C884668
:1017D8000004C01980444146049159460F0C09047D
:1017E800090C884659438A4639005143894641467F
:1017F8004A435146090C8B467B43D2185A449342BC
:1018080003D980235B029B46D94451460904090C3D
:101818008A46414661437C43130C12044B445244AC
:10182800A1468A463C0041466C434D4351464D44CF
:101838000F0C7D19A94503D98021490288464444E3
:10184800049F0399B84641448B46834580414142F1
:101858008846514608042F04000C3F185846029940
:1018680010188946904292414F44BA4652429946CE
:101878009346C244D144CB448F42BF41C2458941BB
:1018880099459B41934592417F4249422D0C5242D2
:101898000F435B4213437F19FF185B463C19DB0D6E
:1018A800059A64021C43430213435D1EAB415A462A
:1018B800C00D034352021343E20156D501205A08D2
:1018C80003401343E207134364085A48604400285E
:1018D8004DDD5A0709D00F221A40042A05D01A1DD7
:1018E8009A429B415B42E4181300E20104D5802030
:1018F800514AC00014406044504A904200DDE3E67B
:101908000125DB0862071A436402019B9146220BFA
:101918004405640D1D407CE680225946120311429D
:1019280008D0144206D122431203120B45469946A9
:10193800434C6EE65B461A431203120B404C68E6B2
:1019480003005446283B9C400023B9E600F0B0FC55
:101958002030A6E60300283B9F400023BB4699465B
:101968008AE600F0A5FC203074E6B446ADE7012510
:101978002A1A382A06DD019B00241D400023002274
:10198800994646E61F2A21DC20252000AD1A1E00B4
:10199800AB40A840D6405D1EAB4130431843D4400D
:1019A800430709D00F230340042B05D00300181D5B
:1019B80098429B415B42E418230221D50125019BF3
:1019C80001241D4000230022994622E61F252100FC
:1019D8006D42281AC1400800202A1DD05F35AA1A76
:1019E800944023435C1EA341072503431D40002266
:1019F800002D09D00F2200241A401800042AD6D13D
:101A0800030065076402220BDB082B430125994676
:101A1800019B00241D40FCE50024E2E7802201250B
:101A28001203224301991203120B0D409946044CEC
:101A3800EFE5C046FF030000FFFFFFFEFE070000C2
:101A4800FF070000F0B54646D6464F460C03C0B522
:101A5800CD0F4E00610A440F0C43C1005800400DE1
:101A680084468A460F001903500F490A0143C648A5
:101A7800760DA846DB0FD200844500D1D8E00120BE
:101A88004340AB4200D1A6E06046351A002D00DC89
:101A980005E1002810D10B00134300D1D7E06B1EDD
:101AA800002B00D04BE153469F1ABA458041641A77
:101AB8004042241A01261EE0B34B9E4248D08023A0
:101AC8001B041943382D00DD19E11F2D00DD4CE101
:101AD80020230F005B1B10009A409F40E840531ED4
:101AE8009A41E940074317435346DF1B611ABA4539
:101AF800A44164420C1B230200D4C5E06402650AB9
:101B0800002D00D1F6E0280000F0D2FB0300083BCE
:101B18001F2B00DDE9E020223C00D21A9D40D44072
:101B28009F4025439E4200DDDBE09E1B731C1F2B5C
:101B380000DD0AE120223800D21A290097402C0043
:101B48009140D8407A1E9741DC40002601430F435C
:101B58007B0709D00F233B40042B05D03B1DBB421C
:101B6800BF417F42E4191F00230225D5864B013669
:101B78009E4200D1AFE0854B01251C4043466207D9
:101B8800FF08640276051743240B760D1D400021DB
:101B98002403230B0C0D7E4A24051C4314403305F3
:101BA80023435B00ED075B082B43380019001CBC7E
:101BB80090469946A246F0BD012543466207FF08B4
:101BC8001743E4081D40704B9E4236D02403760527
:101BD800240B760DDBE76346F31A002B00DC94E058
:101BE8006046002835D068488642B1D080273F0437
:101BF8003943382B00DCFDE00A43170000217A1E28
:101C08009741574457458041091944420C1923020A
:101C18003AD55D4B01369E4200D14BE101225B4B28
:101C28001C407B0817401F43E207174364088FE7EF
:101C38000800104300D024E721E723003B4300D1EC
:101C4800B9E18022120314432403240B9FE72E00DA
:101C58007EE70800104300D1CAE0581E84460028D9
:101C680000D0E7E0524452458041641840422418AD
:101C780017000126230207D50226CFE764462C4326
:101C880000D1B3E12C0067467B0700D062E7630709
:101C9800FF081F4301254346E4081D4093E7002D34
:101CA80078D1751C6D056D0D012D00DCF2E05046F4
:101CB800801A8245BF41651A7F42ED1B844628027F
:101CC80000D48CE05046171ABA4292410C1B554278
:101CD800651B984614E70125434600241D4000274C
:101CE80055E72A4CF61A2C4032E73D002838854043
:101CF800002717E7380000F0DBFA203006E70A4330
:101D0800170000217A1E9741EEE6002B00D0E5E08F
:101D1800731C9C465B055B0D012B00DC9FE01A4B96
:101D28009C4500D1C5E05244524580416418404268
:101D38002418E707520817436408664608E712485C
:101D4800854200D185E01D00BCE629001F3EF14018
:101D5800202B00D17FE04022D31A9D402F437D1EC7
:101D6800AF4100240F4300268EE72B000F00203BD5
:101D7800DF40202D71D040235D1BA9400A43511E2E
:101D88008A4100211743AFE6FF070000FFFF7FFFEE
:101D9800FFFF0F80002E3ED0B34EB44545D08026BD
:101DA80036046D423443382D00DDA8E01F2D00DDD8
:101DB8001FE1202627005046761BB740E84007431E
:101DC8005046B040461EB041EC403843171ABA425C
:101DD80092410C1B5242A41A664698468BE664460A
:101DE80067462C4300D08BE6002500260027EAE64C
:101DF8001E00ADE61F2B60DC2027F81A0F00844672
:101E080087401000D840074360468240501E8241F8
:101E1800D9401743F5E626005046064305D0ED4362
:101E2800002DD3D0904EB445BDD10C0017006646A6
:101E380098468DE68C4883420BD06346D9E6002D40
:101E480000D096E00800104300D1E2E00C00170033
:101E58009846854E7CE6002580E700218EE7230022
:101E680050460343002E00D0A8E0002B00D1DEE04E
:101E78000B00134300D16BE652445245804164186D
:101E8800404224181700230200D4FDE6774B66462B
:101E98001C405DE6250050460543002ECFD1002D9D
:101EA8004FD10C00144300D1A0E00C001700984655
:101EB8004EE666460024002785E61F000800203FFE
:101EC800F8400700202B00D18EE04020C31A99402B
:101ED8000A43511E8A410021174392E6002E14D16D
:101EE80026005046064362D0DB43002B5CD187189E
:101EF8009742924164185242A418664687E65046B3
:101F08002043441EA041002460E7574EB4454ED0FC
:101F1800802636045B423443382B00DD7FE01F2BDC
:101F280000DD8BE0202627005046F61AB740D8403F
:101F380007435046B040461EB0410743DC40BF1837
:101F4800D6E70D00154300D102E65046801A8245B7
:101F5800BF41651A7F42ED1B8446280200D48DE6F6
:101F68005046171ABA4292410C1B5242A41A98467C
:101F7800EEE50D00154300D16BE750466707C00832
:101F880007438020E4080003044207D0CD08054237
:101F980004D12C009846D70849070F437B0FE4006B
:101FA8001C43FF00304ED3E52F4EB445B4D10C008E
:101FB80017006646CCE500270024E8E5002B39D059
:101FC8000B00134300D144E7C0086707074380208C
:101FD800E40800030442E1D0CB080342DED1D7086D
:101FE80049070F431C00D9E7002171E700250027A6
:101FF800E9E52E002700203EF740202D2FD040266F
:10200800751BAC4050462043441EA0410024384371
:10201800DCE6802400252403134E0027D3E5504630
:1020280020430700781E87410024BF1860E70C0092
:1020380017008DE50C0017000B4E89E51E002700E0
:10204800203EF740202B0CD04026F31A9C405046E7
:102058002043441EA04107430024BF1848E700243A
:10206800D0E70024F3E7C046FF070000FFFF7FFF2B
:1020780070B50E4E0D031C0349005B002D0B490D76
:10208800240B5B0DB14204D0084900208B4208D0D4
:1020980070BD05430120002DFAD1044900208B4270
:1020A800F6D114432000441EA041F1E7FF070000C9
:1020B80030B5134D0A034B00120B5B0DC90F0024FA
:1020C800AB4210DD0F4CA3420FDC80240E4D64039D
:1020D8002243ED1A1F2D0BDD0C48C31ADA40544277
:1020E800002900D11400200030BD094BCC18FAE7B4
:1020F800084CE840A44663449A400243EFE7C046D0
:10210800FE0300001D040000330400001304000057
:10211800FFFFFF7FEDFBFFFF70B5002830D0C3172E
:10212800C4185C40C50F200000F0C2F8174B184ACD
:102138001B1AD21A1F2A18DD164AD21A94400022F6
:1021480024035B05240B5B0D0021100024030A0DFA
:10215800240B12052243104C1B05224013435B003D
:10216800ED075B082B43190070BD210091400A0060
:102178000B21081AC4405B052403240B5B0DE3E71D
:102188000025002300240022DEE7C0461E040000CC
:102198003304000013040000FFFF0F8010B5041E75
:1021A80028D000F085F8154B154A1B1AD21A1F2A99
:1021B80015DD144AD21A9440002224035B05240B2F
:1021C8005B0D0021100024030A0D240B1205224385
:1021D8000D4C1B05224013435B00590810BD21001C
:1021E80091400A000B21081AC4405B052403240B04
:1021F8005B0DE6E7002300240022E2E71E0400004E
:102208003304000013040000FFFF0F804100090E93
:102218004B1C70B5DBB24602750AC40F012B14DDE6
:10222800E0239B006D07360BCB1800210A0D280010
:1022380012051C4D32435B052A405B0813435B00C3
:10224800E4075B082343190070BD002914D1002D51
:102258001ED0280000F02CF80A281CDC0B232A00CA
:102268001B1ADA40030015339D400F4B12031B1A4B
:102278005B05160B5B0DD8E7002D06D0320B8026C8
:1022880036036D071643094BCFE7084B0026CCE70A
:1022980000230026C9E703002A000B3B9A400025CB
:1022A800E3E7C046FFFF0F8089030000FF07000037
:1022B8001C2101231B04984201D3000C10391B0A6E
:1022C800984201D3000A08391B09984201D3000932
:1022D800043902A2105C40187047C0460403020289
:1022E80001010101000000000000000010B50029F4
:1022F80003D1FFF7DDFF203002E0081CFFF7D8FF0D
:1023080010BDC04607B56B46D91D012308705B4256
:102318000122024803F037FA07BDC046F05C0020EE
:1023280010B5040000221021034802F093FB20009E
:10233800FFF7E8FF10BDC046000C005010B50400C0
:1023480001221021034802F085FB2000FFF7DAFF85
:1023580010BDC046000C005010B500220221040038
:10236800134802F077FB3620FFF7DAFF114AA02066
:10237800114B022C0ED08021032C10D0012C12D12D
:1023880010801980FFF7DAFF01220221084802F0C5
:1023980061FB10BD1080802260201A80F2E718804F
:1023A8001180C020EEE7188011800020EAE7C046BF
:1023B800000C0050845A0020865A002010B5444C66
:1023C80001222000022102F045FB01222000110019
:1023D80002F040FB052001F073FF002201212000DC
:1023E80002F038FB052001F06BFF012220001100EC
:1023F80002F030FB052001F063FF002202212000DB
:1024080002F028FB1120FFF78BFF192001F058FF7D
:10241800B120FFF785FF01221021200002F01AFBEE
:102428000520FFF76FFF3C20FFF76CFF3C20FFF70C
:1024380069FFB220FFF774FF01221021200002F08B
:1024480009FB0520FFF75EFF3C20FFF75BFF3C2000
:10245800FFF758FFB320FFF763FF01221021200088
:1024680002F0F8FA0520FFF74DFF3C20FFF74AFF7E
:102478003C20FFF747FF0520FFF744FF3C20FFF70C
:1024880041FF3C20FFF73EFFB420FFF749FF032040
:10249800FFF754FF3A20FFF743FF0520FFF74EFFF1
:1024A8002020FFF73DFF1320FFF73AFF2620FFF714
:1024B80037FF0120FFF742FF2920FFF731FF0122F4
:1024C8000221200002F0C6FA0220FFF745FF10BDE6
:1024D800000C0050F7B5060015000C00174F2A2015
:1024E8000193FFF71DFF01221021380002F0B2FA14
:1024F800300AFFF707FFF0B2FFF704FF280AFFF7DB
:1025080001FFE8B2FFF7FEFE2B20FFF709FF0122CB
:102518001021380002F09EFA200AFFF7F3FEE0B21D
:10252800FFF7F0FE019B180AFFF7ECFE6B461879DF
:10253800FFF7E8FE2C20FFF7F3FEF7BD000C005074
:10254800F7B5030A00220221C5B21548019302F02B
:1025580081FA0021134E144F33883A88013B013A1F
:1025680008009BB292B2FFF7B5FF012210210C4878
:1025780002F070FA00243A88338853439C4205DB02
:1025880001220221064802F065FAF7BD0198FFF71B
:10259800B9FE01342800FFF7B5FEA4B2EBE7C04648
:1025A800000C0050865A0020845A0020F0B50C0018
:1025B800160004228B5E0021625E05009B1A06212C
:1025C800625E0220215E0133521A0132534385B004
:1025D8009BB2002202212948019302F03BFA2A20EB
:1025E800FFF79EFE01221021244802F033FA60789A
:1025F800FFF788FE2078FFF785FE6079FFF782FEF7
:102608002079FFF77FFE2B20FFF78AFE0122102199
:102618001A4802F01FFAE078FFF774FEA078FFF777
:1026280071FEE079FFF76EFEA079FFF76BFE2C20B4
:10263800FFF776FE012701221021104802F00AFA5E
:1026480000247F42019AA3B29A4209DC01220221A6
:102658000A4802F0FFF928000DF0C4F905B0F0BDF2
:102668006300F35A03A91A0A0A704B7002223B004E
:10267800034803F088F80134E4E7C046000C005032
:10268800F05C002010B5FFF791FF10BD072907D8AF
:10269800602343430348C018002341188B728B7092
:1026A8007047C046A05A0020F8B5060000250A4C1D
:1026B8000027A67467702770E7746761F9B228006D
:1026C8000137FFF7E3FF082FF8D10135EDB2603489
:1026D800062DEDD1F8BDC046A05A0020F8B56023FC
:1026E800002443430A4D0E005C55E91801230700F6
:1026F8005A404C704A61E1B238000134FFF7C6FF16
:10270800082CF8D160235F43ED19EE74F8BDC0467C
:10271800A05A002010B5002304280BD8FDF7FEFCB2
:10272800030C0E1012000121084802F08DF94342F3
:102738004341DBB2180010BD0221F5E70421F3E79D
:102748000821F1E720210248EFE7C04600040050C5
:10275800000C00500C4B07211A0030B5803212785B
:10276800541C0C40190081310D780021A54209D074
:1027780012019A18455C555401311029FAD1803359
:102788001C700F39080030BD3C0A0020F0B585B038
:102798000400FFF7BFFF602262433E4EB318587033
:1027A800955D0122D97C11421DD0010011400FD046
:1027B80010236A4613700523547068469370FFF718
:1027C800C9FF60235C4333195B78335505B0F0BD0E
:1027D8001542F6D02000FFF781FF10236A461370D8
:1027E80054700623E9E7454015421ED09A7202400C
:1027F80008D15969002902D05A619A7202E09A7880
:1028080001329A70602565437519AA78022A13D98E
:102818006A46102313700423684693705470FFF7B8
:1028280099FF0023AB70AB72CBE79A7A511EC9B2FD
:10283800FD29E7D80132E0E7AB7A032BC1D901279C
:10284800384216D11023022A0ED16A461370032388
:10285800547093706846FFF77DFF6023002263433E
:10286800F3189A709A72ACE76A46137054709770AE
:10287800F0E70A2BA5D96A4610231370022368468D
:1028880093705470FFF766FF00236F61AB70AB72F3
:1028980097E7C046A05A002010B500242000013454
:1028A800E4B2FFF773FF062CF8D110BD30B50D4C1C
:1028B800230022008133803211781D7800228D4256
:1028C8000DD0197809016118895C81540132102AE8
:1028D800F7D107211A7801320A401A700122100034
:1028E80030BDC0463C0A0020034B0022190080334B
:1028F80081310A701A7070473C0A00201FB568467B
:10290800FFF7D4FF00281AD06B461B78102B16D17E
:102918006B469B78012B12D106F088FE6B46084C5B
:102928005A780849200011F013F82000FDF7EEFB53
:10293800012382B25B422100034804F005F91FBD60
:10294800C4230020EC640108F45F002010B5FFF7F1
:10295800D5FF10BDCB680020136070478B6900203D
:102968001360704709207047092070470023F0B5AD
:102978000D00140010262F2787B013706946280011
:1029880005F0CAFE00281ED16B461B7A334215D0CB
:1029980009236B4419002770601C10F0FBFF0B49DA
:1029A8002000FDF7A9FB0028E8D009492000FDF721
:1029B800A3FB0028E2D0002007B0F0BD09236B4438
:1029C80019002000E9E70C20F6E7C0460765010872
:1029D8000A650108080010B5110005F044FE031E41
:1029E80000D00C23180010BD10B5080005F080FEBB
:1029F800002010BD10B50C00080005F0BDFC20003B
:102A080005F01BFF002010BD080010B5110005F0EF
:102A180066FF031E00D00C23180010BD10B5080077
:102A2800110005F001FD002010BD10B508001100CF
:102A38001A00029B05F098FB031E00D00C23180017
:102A480010BD10B5080011001A00029B05F0D6FA57
:102A5800031E00D00C23180010BD10B5080005F0A7
:102A6800D0FC002010BD70B50D0011001222012B02
:102A780006D0113A022B03D00022032B00D11332C7
:102A8800280005F0B1F904000C20002C04D1210025
:102A9800280005F0C9FC200070BD000000B593B007
:102AA80068460DF062FA8C236A469B005380EB3B24
:102AB800FF3B1370114B68460393114B0493114B62
:102AC8000693114B0793114B0893114B0993114B24
:102AD8000D93114B0B93114B0593114B0C93114B09
:102AE8000A9330239380104B1093104B0E93104B86
:102AF8000F930DF041FA13B000BDC0466F2A0008CD
:102B0800632A00084B2A0008332A0008252A0008EF
:102B180065290008712900085D2900086D29000849
:102B2800112A0008FD290008F1290008DD290008FC
:102B38007529000870B5102698B0342200210BA81A
:102B480010F0DBFE32000021684610F0D6FE1C2291
:102B5800002104A810F0D1FE8020800002F028F89F
:102B680018211B4A0225D36D00248B43D365052306
:102B78000B93A023DB020C9301230D935B19139392
:102B880080239B02169380230BA89B05179312950D
:102B98001494159602F036F8072300938023290031
:102BA800DB01684603930195029402F091FA094B00
:102BB80004A8049380235B000A930694079409945D
:102BC80002F088FB02F060FB02F068FB18B070BDF1
:102BD8000010024042400200F0B599B00DAD01F07E
:102BE80049FBFFF7A7FF00F06DFC14220021280025
:102BF80010F083FE04212026FB4BFC485A6BFC4F47
:102C08000A435A635A6B00240A400192019A5A6B8C
:102C1800033932435A635A6B32400292029A5A6B12
:102C28000A435A635A6B0A400392039A5A6B01315A
:102C38000A435A635A6B0A400492049A5A6B063143
:102C48000A435A635B6B00220B400593F731059BDF
:102C580001F000FFA02031000022C00501F0FAFEBB
:102C680039000122E34801F0F5FE8021A02001226D
:102C7800C900C00501F0EEFE80239B010D930123DE
:102C88002900DA486C60AB6001F0C0FDFF23290021
:102C98000D93D648FE3B6B60AC60EC6001F0B6FD6E
:102CA8008423A020DB000D9301232900C0056B605D
:102CB800AC60EC6001F0AAFD0F2329000D93CE480B
:102CC8000E3B6C60AB6001F0A1FD80235B010D93AE
:102CD800CA4B29006B600123C748AB6001F096FD21
:102CE800C023A0209B002900C0056C60AC600D9338
:102CF80001F08CFD01232900BE486B60AC60EC60DC
:102D08000D9701F083FD01232900BA486C60AB6080
:102D18000D9601F07BFD30232900B7480D936C60B8
:102D2800AC6001F073FD0C222100280010F0E5FDD5
:102D3800B34EB44B8027336080239B033361042355
:102D48007361033BB3760223F361731CDC773300B2
:102D58002C331C7007237363013BB3633300FF05F7
:102D68003C3330007760B460F46034767476746213
:102D7800B46234631C70F46401F0B8FA01232900CA
:102D880030006C60AC600D9301F0E8FB9E4B2900AD
:102D98000D93042330006B6001F0E0FB9B4E9C4BCD
:102DA800300033609B4BB460736001233461F3607F
:102DB8007461B461F461346201F05AFE210030009C
:102DC80001F0ACFE2100300001F0CEFE9248934B9A
:102DD800846003607F23C36080330361446184613E
:102DE800C4610762446202F087FB8D488D4BE0277F
:102DF8000360822380265B004360FC3BC361013B88
:102E0800FF00B600C36201338460C7600461446197
:102E180086610462446284620463436302F03EFC98
:102E28008148824B8460036082235B004360FC3BE3
:102E3800C361013BC36201334363C76004614461FA
:102E48008661046244628462046302F027FC210004
:102E5800102209A810F051FD21000C2206A810F03C
:102E68004CFD1C222100280010F047FD704E714BCC
:102E780030003360012373606F4BB460F3603461DA
:102E8800B46103F0D1F8802309A95B0130000993EC
:102E980003F0BAFA300003F0E2F806A9300006940D
:102EA800089403F087FB60232200290030000D936B
:102EB8006C60AC602C6103F049F9290004223000F1
:102EC80003F044F9300001F007F82100102228002F
:102ED80010F013FD594F5A4B38003B607C60BC60C2
:102EE800FC603C61BC6103F09FF8380003F0D2F845
:102EF80001232200290038006B60AC60EC600D945F
:102F080003F0D8F94F4F504B38003B60E1235B0288
:102F18007B600C23BC607B61FC603C61BC61FC6134
:102F28003C627C62BC6203F0AFFE2100380003F013
:102F38003BFF2100380003F059FF380003F016FF6B
:102F48004248434B84600360E1235B0243600C23E7
:102F5800C460436104618461C46104624462846240
:102F680003F092FE03F066FF2100300003F0F0FA50
:102F78000421300003F0ECFA33682F4A5A639A634D
:102F8800FFF71CFA2000FFF7DBFA642000F0FCF9D9
:102F9800FFF7AAFC0120FFF787FBC8232D4C2E4A18
:102FA8002E49DB0020000CF068FC2D480DF000FADB
:102FB80006F06CFE28000CF043FCA0232B80203B7D
:102FC8006B80284B2800EB606C600CF065FC03F00C
:102FD80045FF254B05001860244C431C72D1244939
:102FE800200010F0D7FC45E0001002400008005017
:102FF8005F020000000C0050000400500000111097
:10300800DC5E00200024014002000004E85D00208E
:1030180000540040380F3000485F0020002800406E
:103028008C5F002000300140F05C00200038004038
:103038009C5E002000040040FF0F00008460002018
:1030480000200040F45F0020004400405C5D002048
:10305800004800402824002044170020C40A00200B
:10306800213300088D260008C00A0020C423002050
:103078000E6501082000FDF749F87A4B82B221005D
:10308800380003F061FDFFF709FD7749200010F0D3
:1030980081FC2000FDF73AF8210082B2714B38001C
:1030A800A02403F051FD06F047FAE405FFF74EFCB3
:1030B8002000202101F0D4FC0DF01AFBC82001F0FB
:1030C800FFF8F3E70028DED16849200010F062FC21
:1030D8002000FDF71BF8634B82B22100380003F093
:1030E80033FD634E2A003100624804F049FE62490C
:1030F800002800D16149200010F04CFC2000FDF7A9
:1031080005F8210082B2574B380003F01DFD5C4DD5
:1031180013225C49280004F067FE002862D05A494F
:10312800200010F037FC2000FCF7F0FF4D4B82B276
:103138002100380003F008FD544D55492A0030009D
:1031480005F00DFB2B6858695E8902387043FFF75C
:1031580025F800224F4BFEF7F5F9FDF7D1F94E4B54
:10316800050018604A4B18687043FFF717F80022EB
:10317800484BFEF7E7F9FDF7C3F9484A030010602A
:1031880047492A00200010F0E3FB2000FCF7BEFFAF
:10319800210082B2334B380003F0D6FC384D0122AF
:1031A8004049280004F020FE002834D03E49200081
:1031B80010F0F0FB2000FCF7A9FF2A4B82B2210097
:1031C800380003F0C1FC01223849280004F00CFE45
:1031D800374B021E1870374900D13749200010F0CC
:1031E800B7FB47E73549200010F0D4FB2000FCF777
:1031F8008DFF1C4B82B22100380003F0A5FC29008A
:103208002F4805F030FC29002E4805F02CFC28003A
:1032180005F0F7F890E72C49200010F0BBFB2000E0
:10322800FCF774FF0F4B82B22100380003F08CFCCE
:10323800264E2A006421300005F0EEFB0028C2D09B
:1032480032002349200010F083FB2000FCF75EFFCA
:10325800044B82B22100380003F076FC280005F008
:10326800D0F8E5E7FFFF0000676701083765010848
:103278002B660108246100205F6501088865010844
:1032880054630020AB650108B5650108885F00201C
:10329800E05C00200000E03F345E0020805F0020FA
:1032A8003E66010875660108816601082D7E0108E1
:1032B800795F0020F366010829670108E2650108C3
:1032C800096601082C660108A8660108385E002016
:1032D800C966010870B503680D4C0500A34201D109
:1032E80000F0DCFF2B68A34202D101200CF0ACFBFC
:1032F8002B68A34205D1074A13680133272B01D84D
:10330800136070BD00231360FFF7C6FAF9E7C046E3
:10331800001000404824002070B51D00002813DB71
:103328000123134C5B4200280FD1072211492000CA
:1033380003F00AFC2800FCF7E9FE012382B25B4295
:103348002900200003F000FC70BD012802D10622EC
:103358000949ECE7022802D106220849E7E70328D1
:1033680002D107220649E2E706220649DFE7C046FE
:10337800F45F0020836701088B67010892670108E2
:1033880099670108A1670108642808D828235843C9
:10339800034B80B21880034B1B68586398637047CF
:1033A800405F00209C5E002010B50824FF2000F03C
:1033B800EAFEFF2803D1013CE4B2002CF6D110BD8F
:1033C800F0B587B004000CA805784020014302A896
:1033D8000170110E4170110C81700271110A0122E5
:1033E8001343C1704371002000F0BCFE062204A9FB
:1033F80002A800F0C4FE052D4AD82800FCF78EFE6E
:1034080003142C354835FFF7CFFF0700FF200500D0
:10341800060001906B46207120001B7927706670AA
:10342800A570E37007B0F0BDFFF7BEFF0700FF20EF
:1034380000F0A9FE0600012000F094FE012000F033
:103448003FFF002000F08EFEFF2000F09CFEFF28CA
:10345800FAD101900500DDE7FFF7A6FF0700FF207E
:1034680000F091FE0600FF20F3E7FFF79DFF07003D
:10347800FF2000F088FE0600FF2000F084FE050013
:10348800FF2000F080FE0190FF2000F07CFEC1E7E5
:10349800FF200190050006000700BBE710B5084CA7
:1034A800FF2000F070FE013CA4B2FE2803D0002CDF
:1034B800F6D1022010BD604260414000FAE7C046E4
:1034C800FFFF0000F0B589B000F06CFE01220F2567
:1034D8005B4B1A7002ABED1800232B7000212B7880
:1034E80006AC0133DBB22B700A0095230091200053
:1034F800FFF766FF0120277800F034FEFF2000F078
:1035080042FE2B78632B03D90125280009B0F0BDB2
:10351800012FE3D10523D5220093520082330821DD
:103528002000FFF74DFF2578380000F01BFEFF2034
:1035380000F029FE6B0723D5FF26002533002A005B
:10354800372120000095FFF73BFF380000F00AFE06
:10355800300000F018FE2A002921330020000095D1
:10356800FFF72EFF23783800039300F0FBFD3000AF
:1035780000F009FE039B012BDFD0324B1D80C4E70E
:10358800012DC1D1FF2700263B00320037210096CC
:103598002000FFF715FF280000F0E4FD380000F0D8
:1035A800F2FD802200963B00D20529212000FFF77A
:1035B80007FF2678280000F0D5FD380000F0E3FD6D
:1035C800012EE0D0FF25730717D4032300220093B0
:1035D8003A21FC332000FFF7F3FE2578012000F0A4
:1035E800C1FDFF2000F0CFFD002D00D08CE76378EF
:1035F800144A5B06DB0F138087E700262B00320096
:10360800372120000096FFF7DBFE2778012000F025
:10361800A9FD280000F0B7FD012F00D074E73200A3
:1036280000962B0029212000FFF7CAFE26783800D3
:1036380000F098FD280000F0A6FD012EDDD0C4E7BB
:103648004C2400204E2400200022F0B58BB004AD9D
:10365800FF230400009209212800FFF7B1FE2B7810
:10366800002B30D001230393012000F07BFDFF20C5
:1036780000F089FD002204ADFF2300920A212800F2
:10368800FFF79EFE2B78002B00D12BE101260120AD
:1036980000F068FDFF2000F076FD039B1E43CA4B37
:1036A800F0B21B88012B00D07BE180239B00E363F1
:1036B8006363A3681B019B0A0133DB0423635B0A72
:1036C800A3630BB0F0BDFFF7E9FE03900028C9D152
:1036D8000600FF2000F057FD06AD70550136102E8C
:1036E800F7D1FF2000F04FFDFF2000F04CFD012036
:1036F8002B789A009B09134323706B786370AB781F
:10370800A370EB78E3706A792B7911091B011943CF
:10371800A38812011B0B1B030B43A3801B051B0F64
:1037280013436371AB79A179DA0981439F1107408B
:103738000A43022187408A433A430427591101402A
:103748008900BA430A4308211F1138408A43C00040
:103758000243A2719C4A1188EA79002900D0A7E0A7
:10376800981003310840217A0D3EB143014321727C
:10377800297A90008A0902439B02134393482289BD
:103788001B0502409B0C134307222381A37AC81010
:1037980010409343034311403820B14083430B4307
:1037A800A3726B7AE17A5F099E1091431640394300
:1037B800F60081433143E17206215B000B40A97A90
:1037C800D1400B43217B91430B432373012006AE69
:1037D800B37A7E279D118340227C054082432A4389
:1037E8007F25F17A3B40CF093B43834029400F00B6
:1037F800024013432374637C317BAB43CA093B43C8
:10380800D2012B401343032263744B1113409C468F
:103818006746A37C93433B431C271932BB430A40AA
:103828001A43A2740C22737B890011409A09114330
:103838008C460F226746E17C9143394310275A1181
:103848000240B94312010A43E2741F22217D13404A
:1038580091430B432021B27B8B43D7097F013B4324
:103868004027911101408901BB430B435711FF01C8
:103878002B40617D3B4323758143131103400800AE
:1038880003270343062091103940490083430B4323
:103898003A401821BA408B431A436275F27BA37DE4
:1038A8005108AB430B43D2011D401543A575DBE618
:1038B8003C213F209B000B4091090B43217A1204C5
:1038C80081430B4323722B89A1685BBA9BB21A43CD
:1038D8003F4B920212090B401A43A260120EB243E8
:1038E800E27273E7FFF7DAFD061E00D0CEE60700A6
:1038F800FF2000F048FC06AD78550137102FF7D1AE
:10390800FF2000F040FCFF2000F03DFC2B78210058
:1039180023766B7828311B026383638BAA78134361
:103928006383EB781B06E3612B79E2691B0413437D
:10393800E3616B79E2691B021343E361E269AB79E6
:103948001343E361EA79631CDA772A7AA31CDA77EE
:103958006B7A1B066362AB7A626A1B041343636269
:10396800EB7A626A1B0213436362626A2B7B13431E
:1039780063626B7B0A78180902430A70F0221B0203
:10398800120113406385AA7B638D1343220063856C
:10399800EB7B2C325B081370230001222D331A7045
:1039A80075E62389227B9B0452071B0D520F0232B6
:1039B80001339340802201219200E2636279120967
:1039C80091409340616379E64E24002003C0FFFFD5
:1039D8003F0000F0F0B587B003920023802204ADC9
:1039E80000939200FF3307000C0028001021FFF716
:1039F800E7FC2E78012000F0B5FBFF2000F0C3FBA8
:103A0800002E02D00025012614E0802080000FF04F
:103A180053FD051EF6D08022FF2192000FF06DFFA6
:103A2800244B1B88012B01D080239B005C43039B04
:103A3800002B0DD1012000F095FBFF2000F0A3FB27
:103A4800002D02D028000FF041FD300007B0F0BD76
:103A58000023220000931121FF3304A8FFF7B0FCD4
:103A680002AB1B7A002BCED1FFF718FD0028CAD174
:103A7800802239009200280000F081FB0D4B1B8842
:103A8800012B13D10134FF2000F07DFBFF2000F053
:103A98007AFB012000F066FBFF2000F074FB039B1B
:103AA800013B039380239B00FF18C0E780239B0002
:103AB800E418E8E74E240020F0B587B0039200230D
:103AC800802204AD00939200FF3307000C00280009
:103AD8001021FFF775FC2D78012000F043FBFF2033
:103AE80000F051FB002D09D00125012000F03AFB20
:103AF800FF2000F048FB280007B0F0BD80208000C0
:103B08000FF0DAFC061EEFD0304B1B88012B01D0DA
:103B180080239B005C430297039B002B03D130005A
:103B28000FF0D4FCE1E7002304AF00932200FF3339
:103B380018213800FFF744FC3B78002B44D1FF20C4
:103B480000F021FBFF2000F01EFBFE2000F01BFB15
:103B5800802231009200029800F011FB1B4B1B8859
:103B6800012B2DD10134FF2000F00DFBFF2000F0C8
:103B78000AFBFF2000F007FB0700FF2000F003FB13
:103B88001F231F40052F1FD1012000F0EBFA002052
:103B980000F0E8FAFF2000F0F6FA0700FF28F9D154
:103BA800012000F0DFFA380000F0EDFA80229200E0
:103BB8009446039B013B0393029B63440293ABE748
:103BC80080239B00E418CEE70125A8E74E240020B7
:103BD8001FB5022302AC00220D2100932000FD3303
:103BE800FFF7EEFB012000F0BDFAFF2000F0CBFA52
:103BF80023780120002B03D16078431E9841C0B27E
:103C080004B010BD01200A4B82B0196C014319643D
:103C180080211A6C490502400092009ADA6B0A4327
:103C2800DA63DB6B0B400193019B02B07047C0461F
:103C38000010024010B5040088B01422002103A827
:103C48000FF05BFE0F4B22689A4219D180200E4B71
:103C58004003196C0143196401211A6C0240019256
:103C6800019A5A6BA0200A435A635B6BC0050B404C
:103C78000293029B032303A90393049300F0C6FD58
:103C880008B010BD002401400010024010B5040027
:103C980088B01422002103A80FF02FFE124B2268CF
:103CA8009A421ED10221114C1148626B0A43626389
:103CB800636B0B400193019B90239B00039312239A
:103CC8000493113B059303A90533079300F09EFD68
:103CD8008021E26B89030A43E263E36B0B400293A2
:103CE800029B08B010BDC0460054004000100240BE
:103CF800000400500A4B026882B09A420ED180221A
:103D0800084B1202D96D0A438021DA65DA6BC900C3
:103D18000A43DA63DB6B0B400193019B02B07047E7
:103D2800002800400010024010B504008AB0142298
:103D3800002105A80FF0E1FD2368294A934232D1FA
:103D48008020284B4001196C0224014319641A6C25
:103D5800024008200092009A596B014359635A6B3C
:103D680002400192019A0122596B1F48114359637D
:103D78005B6B05A913400293029B80235B000593AC
:103D88000694099200F042FDC0235B010593A02030
:103D98000023069407930893099305A9C00500F02A
:103DA80035FD0AB010BD114A9342FAD180200D4B5F
:103DB800C001D96B0143D963DA6B02400392039ABD
:103DC8000222596B0A48114359635B6B05A91340DA
:103DD8000493049BE0231B0205930692DFE7C04689
:103DE8000030014000100240000C00500038004034
:103DF800000400500368104A10B5934210D10F4ACE
:103E08000F49136C0F480B4080211364490000F0E0
:103E1800A5FDC021A0204901C00500F09FFD10BDEF
:103E2800094A9342FBD1054A0849D36B08480B401D
:103E3800E021D3630902F0E700300140001002409E
:103E4800FFEFFFFF000C005000380040FFBFFFFFEE
:103E58000004005010B5040088B01422002103A803
:103E68000FF04BFD2368184A93420AD10220174AE3
:103E7800D16B0143D163D36B03400093009B08B01F
:103E880010BD134A9342FAD18020104B0002196CDE
:103E98000143196404211A6C02400192019A5A6B79
:103EA8000C480A435A635B6B01220B400293029B46
:103EB80080235B010393022303A9049305920793CC
:103EC80000F0A4FCDBE7C0460004004000100240FC
:103ED800002000400008005010B5040086B01422ED
:103EE800002101A80FF009FD0C4B22689A4212D15B
:103EF80001230B4AA020516BC00519435163526B33
:103F080001A91A400092009AC0220192BE3A029278
:103F1800059300F07BFC06B010BDC04600040040CD
:103F28000010024010B504008AB01422002105A830
:103F38000FF0E3FC23681F4A93421DD180201E4BDB
:103F48008002D96B0143D963DA6B02400192019A6E
:103F58000122596BA020114359635B6B05A91340DB
:103F68000293029B0C2305930A3B06930992C00512
:103F780000F04CFC0AB010BD104A9342FAD18020E0
:103F88000D4BC002D96B0143D963DA6B024003922F
:103F9800039A0222596B0A48114359635B6B05A9BE
:103FA80013400493049BC0231B010593042306922A
:103FB8000993DDE70044004000100240004800403B
:103FC8000004005010B5010086B00022112000F056
:103FD800E1FB112000F00EFC1020144AD16B0143C4
:103FE800D163D36B69460340019302A8019B01F09A
:103FF80031F901F01BF90E4C0E4B0F4923600F4BA2
:104008004000E360FCF7A8F8002301386060200056
:104018002361A36002F008F803000120002B02D1FD
:10402800200001F0EBFE06B010BDC04600100240B3
:10403800DC6000200010004040420F00E703000051
:1040480010B501F035F910BDFEE7704770477047AD
:1040580010B5024801F0ECFE10BDC046DC6000203F
:10406800F0B5304C89B0200001F08EFD061E56D107
:104078002D4B012723600823E361063B23610533A9
:10408800E362E023DB00E36080239B000100A06083
:10409800A06220632062A3616062FC3B606314221B
:1040A80003A8676163600FF028FC08221F4D03A96D
:1040B8006B6B1F4813436B636B6B13400093009B40
:1040C8006B6B3B436B636B6B05973B400193019BA9
:1040D80080235B000393FE3B0493DB190693079749
:1040E80000F094FB8027A02002237F0103A9C005CC
:1040F80003970593079600F089FB8023A0201B01F6
:10410800C00503A9039300F081FB2B6C20003B43FF
:104118002B642B6C1F400297029B01F0BFFA09B079
:10412800F0BDC0465024002000300140001002407D
:10413800000C005013B51300084A094C126800928D
:104148000A000100200001F0EDFB002804D0200047
:1041580001F002FBFFF784FF13BDC04608000020F2
:104168005024002010B50200012806D18021A0208B
:10417800C900C00500F06EFC10BD0022F6E710B5BE
:10418800FFF7D8FF10BD1FB50F246B466C44D871DC
:104198000733180001222100FFF7CCFF207804B074
:1041A80010BD000030B5012489B01422002103A8F5
:1041B8000FF0A3FB02218025A0201B4BED005A6BBA
:1041C800C00522435A635A6B22400192019A5A6BE6
:1041D8000A435A635B6B22000B4002932900029B3F
:1041E80000F038FC22002100104800F033FCA02029
:1041F800032303A9C005069304940594039500F0CE
:1042080005FBA02003A9C005039400F0FFFAFFF7FF
:1042180027FF0934013CFF20E4B2FFF7B4FF002C6C
:10422800F8D109B030BDC04600100240000400506B
:104238000A4B10B519680200002901D10849196014
:104248006946186882188A4206D90FF00BF90C23C0
:1042580003600120404210BD1A60FCE7B42400202E
:104268000C6900208022024B12059A607047C046F4
:1042780000ED00E08023084A5B00116810B50B438D
:1042880013600020FFF79EFE041E03D1FFF7BAFC5F
:10429800200010BD0124FBE700200240034A044926
:1042A800136809685B1813607047C0461C610020DA
:1042B80010000020014B18687047C0461C610020A0
:1042C80070B50400FFF7F6FF0500631C02D0044B2D
:1042D8001B68E418FFF7EEFF401B8442FAD870BD54
:1042E8001000002080684007C00F70470023F0B519
:1042F80085B0040003930125984200D19AE0856DAA
:104308009D4205D1FFF796FC23005433E5651D70E7
:10431800802326685B05B2681A4200D1D0E0B368F2
:104328000025DB0000D4D8E03000FFF7DBFF1023C6
:10433800A66D1E4000D0BEE0002800D0BBE0A36DF3
:104348007C4A1A4002231343A36523689A68D2075C
:1043580000D4CBE0276B217E781E8741627E38032C
:10436800D20389030190E0681143A27E01432069CA
:10437800944652031143002866DA47007F0822005A
:104388002C32127852000A4301990A4317430197C5
:10439800621CD27F012A07D16146002957D18022A9
:1043A8003900520211430191626A002A07D0E021C4
:1043B80049000A40A16A0A43019911430191616CBD
:1043C800226C0A43A16C0A43E16C0A4321003C3188
:1043D8000978012900D10A43D968574F3940019F0C
:1043E8003943D9601969554F39400A430721702765
:1043F8001A615A698A43616B0A435A615A69A16B07
:10440800BA4309010A435A6100282AD11022996A3D
:1044180052420A439A624A4ADB681340019A9A4216
:104428003DD100230322E365A36D93431A000123C2
:104438001343A365280005B0F0BD039B013B03931C
:10444800039B002BF9D16AE78027BF0397E7A16D8B
:104458008C46202167463943A165E16D0A43E26530
:10446800A2E7802292039042D5D10F20216E0F003F
:10447800B200D7403A0002400F2A0DD00136082E6C
:10448800F5D130489A6AE26912181C20920002405D
:104498002C3890400200BCE7012EB7D0F1E7122279
:1044A800A36D012593431A0010231343A365E36DFD
:1044B8002B43E365BEE7A26D01251343A365B9E766
:1044C800B26821490A401343B360204B2049186859
:1044D800FBF742FE40000390B2E710230125A26DCE
:1044E8001343A365E36D2B43E3651DE71821DA68E1
:1044F8008A43A1680A43DA6061681A69880F9200E2
:1045080080079208024380201A614A005208C005B9
:10451800824200D11EE780221206914200D119E79B
:104528000C480D4F02683A40F027BF0339400A4350
:1045380002600FE7FDFEFFFF1902FEFF02FCFFDF2E
:10454800E7FF3F83FFFFFF3FE8FFFF6F0C000020FE
:10455800400D030008270140FFFFC3FF0023F0B50B
:1045680089B00793030054331A7805000F0002241A
:10457800012A00D1C1E0012600681E70FFF7B2FED3
:104588000390002800D0EFE0042280217B68944645
:10459800019301982B6909063A68A04200D1B6E058
:1045A800604683438B4213D129685303886A5B0BA7
:1045B80003438B622868BB686E49446919406140AF
:1045C80013020B4063404361002A65DB002491E03D
:1045D8001F21019B0B4002930F2302988340DB436A
:1045E800049304982B6E034005935003130000288E
:1045F80015D1900E08400299884005990843019901
:1046080028668908E86901318142D3D8029C296863
:104618009B001B0F886AA340049C2040C8E70398AE
:104628003242E8D130002242E5D1614620000A42F8
:10463800E1D103201107DED46046D106DBD4052082
:104648009106D8D401305106D5D401301106D2D400
:104658000130D105CFD401309105CCD401305105BA
:10466800C9D401301105C6D40130D104C3D40130F6
:104678009104C0D401305104BDD401301104BAD41E
:104688000130D103B7D401309103B4D48020C002E3
:104698001040B0D01220AEE7E021374B37481C68F5
:1046A80049042140824217D18020000404428DD160
:1046B8001A68334C22400A4302431A60314B32498C
:1046C8001868FBF749FD0790079B002B00D17DE791
:1046D800079B013B0793F7E72C48824210D18020C3
:1046E8004004044000D071E71A68254E32400A435E
:1046F80002431A60002354352B70200009B0F0BD26
:104708002348824200D061E78020C003E9E7604681
:1047180083438B4205D128685103836A490B8B4335
:104728008362002A00DB51E7134B144918688A4258
:1047380008D1A0221C6852041149024021400A43B2
:104748001A6043E711498A4203D1C0221C68120447
:10475800F2E70F498A4200D038E7C02252041968AC
:10476800024007480140EAE72023AA6D34001343BA
:10477800AB65BFE700FFFF0708270140001000B046
:10478800FFFF3FFE0C000020400D0300004000B872
:10479800002000B470B58901002812DB8308134A91
:1047A80003249B009B18FF222040A0401400C02532
:1047B800844011408140AD005E59A64331435951B0
:1047C80070BD03240F23C0B203402040A040FC3436
:1047D8002500214085408140083B054A9B089B00F5
:1047E8009B18DA69AA431143D961E9E700E100E0BF
:1047F80000ED00E0002805DB1F2318401E3B834026
:10480800014A13607047C04600E100E0F0B50B684C
:1048180085B0029300230191029ADA4001D105B0D4
:10482800F0BD01229A4003920399029A0A4000922D
:1048380000D185E0019A1021526816008E43022E9D
:104848000ED107251D40AD000139A940DC08A400A0
:104858000419276A8F4301990969A9400F43276200
:1048680003245F00BC40E4430568013E2540AC4694
:1048780003251540BD4061460D430560012E0FD844
:1048880001998668CD682640BD40354385604668F5
:10489800039915098E4301210D409D40354345601C
:1048A800C56801992C408D688021BD4049052C437D
:1048B800C4600A4244D003260F2422499D081E40A2
:1048C800AD00F6006D18B440A0212F6EC905A743AE
:1048D800002488420CD01C490134884208D01B4966
:1048E8000134884204D01A490334884200D1023C7A
:1048F800B44000993C430E002C66164CCD43E76F3C
:104908003E43D10301D43E002E40E667124E009F7D
:10491800F46F2743910301D42C402700094CF76713
:104928002768009E3E43D10201D43E002E402660F7
:104938006668009F3743920201D42E4037006760B3
:10494800013369E7001802400004005000080050D5
:10495800000C00500418024008180240F0B500236B
:10496800032785B00291029ADA4001D105B0F0BD63
:1049780001229A4002990092114056D02C4C9A0874
:104988001D00920012190F243D40ED00AC40166E38
:10499800019426400396A0260024F605B0420FD0C5
:1049A800244CA446012460450AD0234CA446022482
:1049B800604505D0214CA4463C00604500D0052444
:1049C800AC40039DA54213D1C9431D4E184CF56F49
:1049D8000D40F5671B4EF56F0D40F56725680D40D6
:1049E8002560656829406160116E019CA1431166CC
:1049F8003C0059008C4002682100224307240F26FE
:104A08001C40A400A640C9430260DA08920082183C
:104A1800156A009CB543156282680A408260426844
:104A2800A2434260C2681140C16001339BE7C0469F
:104A3800001802400004005000080050000C00500C
:104A4800041802400818024000690840411E8841C5
:104A5800C0B27047002A01D0816170478162FCE7CB
:104A68004369194201D0816270478161FCE7000007
:104A780070B504000120002C3FD0250041352B786B
:104A8800DBB2002B05D12200403213702000FFF763
:104A9800FDF8242301212B702368E0681A68A668B2
:104AA8008A431A6061681A4A0A401A619968194A61
:104AB80011409960012821D1802109023143996070
:104AC8005868154901435960D96800200A40DA60DE
:104AD800616922690A43A16909020A43DA60216A05
:104AE800E2690A431A60012219680A431A602023FE
:104AF80060642B7020634234207070BD84210902E9
:104B0800314399600228DBD1802109015960D7E738
:104B1800FFFFFFF0FF7FFFFF00800002F0B50400F9
:104B2800413422780300D2B20220202A18D11D0075
:104B380040352E78012E13D01B68223020701E6855
:104B4800233886431E601E68064F3E401E601E685E
:104B580031431960196808431860002022702870D2
:104B6800F0BDC046FFEFFFFFF0B5050041352A78DC
:104B78000300D2B20220202A17D11C004034267824
:104B8800012E12D01B68223028701E6823388643F5
:104B98001E601E68054F09023E40314319601968BE
:104BA8000843186000202A702070F0BDFFF0FFFF56
:104BB80010B5104C1049236802000B4003432360D2
:104BC800802300209B009A420CD10C4B0C4918689A
:104BD80006235843FBF7C0FA8022431CD2006069C1
:104BE800104000D110BD002B01D0013BF7E7032096
:104BF800F8E7C04600700040FFF9FFFF0C000020F6
:104C080040420F00F0B5040085B0002802D1012011
:104C180005B0F0BD0368DB0710D423689B075CD49C
:104C280023681B0700D5C2E023685B0700D5F4E0C2
:104C3800E269002A00D073E10020E9E73822AC4D90
:104C4800AB681340EA68102B09D1D243930708D107
:104C58002B689B03E1D56368002BDED1D7E7082BCF
:104C6800F6D0802263685202934211D12A68134316
:104C78002B60FFF71FFB80260700B6022B68334224
:104C8800CBD1FFF717FBC01B6428F7D90320BFE778
:104C9800A021C9028B4208D180232968DB020B437B
:104CA8002B602B681A432A60E3E72A6891490A4077
:104CB8002A602A6890490A402A60002BD9D1FFF758
:104CC800F9FA80260700B6022B683342A5D0FFF711
:104CD800F1FAC01B6428F7D9D8E73823844DAA68AD
:104CE8001340EA68102B29D103210A40022A27D150
:104CF8002A68520503D5E268002A00D187E7696867
:104D080062697E48120201400A436A60002B0DD195
:104D18002B687B4A1340226913432B602B68794A1E
:104D28009B045B0FDA401300774A1360774B1868CF
:104D3800FFF748F9002800D172E768E7002BD7D0C1
:104D4800E368002B20D02B686D4A80261340226927
:104D5800F60013432B6080232A685B0013432B6003
:104D6800FFF7A8FA07002B68334207D06A6863691F
:104D780062491B020A4013436B6051E7FFF79AFA36
:104D8800C01B0228EFD981E72B68614A80261340AF
:104D98002B60FFF78FFA0700F6002B68334200D12B
:104DA8003EE7FFF787FAC01B0228F6D96EE73821DD
:104DB8004F4B9A681D000A40182A08D11B6E9B07A2
:104DC80000D431E7A369002B00D02DE71FE7A269C3
:104DD8000123002A10D02A6E022613432B66FFF700
:104DE80069FA07002B6E334200D01DE7FFF762FA1D
:104DF800C01B0228F6D949E72A6E02269A432A667A
:104E0800FFF758FA07002B6E334200D10CE7FFF783
:104E180051FAC01B0228F6D938E73821344B9A6872
:104E28001D000A40202A08D1DB6D9B0700D4FFE64D
:104E3800A368002B00D0FBE6E9E68022DB6B520575
:104E4800134200D1EDE000238027324E00933368EF
:104E58007F003B4215D0A368012B22D1EA6D134392
:104E6800EB65FFF727FA02270600EB6D3B4238D0C7
:104E7800009B012B00D0DBE6EB6B274A1340EB636A
:104E8800D6E633683B433360FFF714FA0190336882
:104E98003B42E0D1FFF70EFA019BC01A0228F6D96F
:104EA800F4E6EA6D052B05D1013B1343EB65EA6D8A
:104EB8000123D4E701218A43EA65EA6D03318A4375
:104EC800EA65002BCDD1FFF7F5F902270600EB6D57
:104ED8003B42CDD0FFF7EEF9104B801B9842F6D934
:104EE800D4E6FFF7E7F90D4B801B9842BDD9CDE614
:104EF80000100240FFFFFEFFFFFFFBFFFF80FFFFE8
:104F0800FFC7FFFF0024F4000C000020140000205D
:104F1800FFFEFFFF00700040FFFFFFEF8813000057
:104F28003820444B99681D000140102952D01B6855
:104F380041490B402B60022A35D1FFF7BBF9802687
:104F48000700B6042B68334227D1616A236AEA68EE
:104F58000B433A490A401343E26A1343226B134353
:104F6800A26A802412021343EB6080232A685B0440
:104F780013432B608023EA685B051343EB60FFF75C
:104F880099F90600A4042B68234200D054E6FFF7E1
:104F980091F9801B0228F6D978E6FFF78BF9C01B38
:104FA8000228CFD972E60322EB6880249343EB6092
:104FB800EB68234AA4041340EB60FFF77BF9060073
:104FC8002B68234200D137E6FFF774F9801B0228CB
:104FD800F6D95BE6012A00D119E6D8680323226ACC
:104FE8000340934200D012E67023626A0340934262
:104FF80000D00CE6FE22A36AD20102401B029A42AC
:1050080000D004E6F823E26A9B030340934200D0F1
:10501800FDE5236B400F4007C01A431E9841C0B2FC
:10502800F6E5EB6B1343EB63EB6B13400393039BC6
:10503800012309E700100240FFFFFFFE8C80C11F1B
:10504800FFFFFEEF38231F4A70B59168140019421C
:1050580008D1012113681C489B045B0F9940FBF79A
:105068007BF870BD91681940082925D091681940CE
:10507800102915D1D368D168DB437F22E56849063A
:10508800490F2D0A013115409B0707D10F48FBF73F
:1050980063F8E1686843490F0131E0E70A48F6E739
:1050A80091681940202909D0926800201340182BD4
:1050B800D7D1FA20C001D4E70448D2E78020000203
:1050C800CFE7C046001002400024F40000127A0026
:1050D800F7B505000E00002801D10120FEBD072705
:1050E8004A4C23683B408B422AD329688B073BD420
:1050F800CB0748D4072723683B409E420AD223683F
:10510800BB4333432360FFF7D5F8019023683B4046
:105118009E426BD12B683E4C5B076FD4FFF792FF22
:10512800A3683C4A1B051B0F9B009B581F2213407A
:10513800D840394B1860394B1868FEF743FFCDE764
:105148002368BB430B432360FFF7B4F8019023683F
:105158003B409E42C9D0FFF7ADF8019BC01A304BC7
:105168009842F4D90320B9E7294A4B0704D5E0232C
:105178009068DB010343936093682A480340A8685A
:1051880003439360B4E76A68214F012A19D13B6849
:105198009B03A2D50721BB688B431343BB60FFF772
:1051A80089F801903823BA681A406B68DB009A4284
:1051B800A0D0FFF77FF8019BC01A194B9842F1D98C
:1051C800D0E7022A03D13B689B01E3D485E7002A94
:1051D80003D13B685B05DDD47FE70223032A03D1B3
:1051E800396E1942D6D178E7F96DFAE7FFF762F818
:1051F800019BC01A0A4B984288D9B3E7A3680A4AA8
:105208001340EA681343A36088E7C04600200240C1
:1052180000100240A86701080C00002014000020BC
:1052280088130000FFF0FFFFFF8FFFFF064B074AC0
:105238009B685B045B0F9B009B581F221340044A2A
:105248001068D8407047C04600100240E86701085F
:105258000C000020072230B5F025094B02609C683D
:105268002D01144044609C682C408460E0249B68B5
:10527800E4012340C360034B1B6813400B6030BD3F
:1052880000100240002002408023034A1B031168DB
:105298000B4313607047C046001002402023024AA7
:1052A800D16D0B43D36570470010024070477047BB
:1052B800C023074A10B5D4699B0023401362E30555
:1052C80001D5FFF7F3FFA30501D5FFF7F0FF10BDE8
:1052D80000100240F0B505002B6885B000209B0344
:1052E8004FD580224B4C5205E36B0090134208D1F6
:1052F800E36B1343E363E36B13400393039B0123C3
:1053080000938027444E7F0033683B433360FEF7A9
:10531800D1FF019033683B4225D0C023E26D9B004A
:1053280013400FD0AA6993420CD0E26D3B4BE16D5C
:105338001340802252020A43E265E26D38490A406E
:10534800E265E365DB0706D5FEF7B4FF0227060032
:10535800E36D3B4257D0E36D304A00201340AA6901
:105368001343E36506E0FEF7A5FF019BC01A022878
:10537800D0D90320009B012B03D1E36B294A1340AA
:10538800E3632A68D30706D5032422494B6DA34358
:105398006C6823434B65930706D50C241D494B6D58
:1053A800A343AC6823434B65530606D519491E4CE5
:1053B8004B6D2340EC6823434B6553040FD51549C7
:1053C8006C694B6D9B009B0823434B658023DB0571
:1053D8009C4204D18023CC685B022343CB60130535
:1053E8000FD50C49114C4B6D2A69234013434B656B
:1053F8008023DB019A4204D18023CA685B021343ED
:10540800CB6005B0F0BDFEF755FF094B801B9842F5
:105418009ED9AEE70010024000700040FFFCFFFF7D
:10542800FFFFFEFFFFFFFFEFFFCFFFFFFF3FFFFF85
:1054380088130000A0210268F8B5D36804008B43E4
:10544800D360FEF737FFFA2706002025BF00236840
:10545800DB682B4201D00020F8BDFEF72BFF801B34
:10546800B842F4D90320F7E7F8B5402703680500E8
:10547800DA6800243A420CD18022D9680A43DA60FB
:10548800FEF718FF06002B68DB683B4201D1032CAE
:1054980001D12000F8BDFEF70DFFFA23801B9B0009
:1054A8009842F0D92B00032429331C70EBE7000045
:1054B800802270B50F4C0500E3689343E360A3694D
:1054C800603A134207D1FFF7B5FF002802D0032046
:1054D8002935287070BDA3699343A361FFF7AAFF1C
:1054E800002802D00320293528702023A2691343FD
:1054F800A361EFE70028004070B504000120002CEC
:1055080047D0250029352B78DBB2002B08D12200A3
:105518002832137088231B0263602000FEF7EAFB21
:105528000223CA222B70236820005A62773A5A62F3
:10553800FFF79AFF002825D1236816499A69606900
:105548000A409A61A26899690243E06902430A43E2
:105558009A61226920001A61E268196912040A43F3
:105568001A61FFF7A5FF00280CD12268266A936903
:10557800DB00DB089361636A91693343A6693343AF
:105588000B439361FF2223685A62002801D101234B
:105598002B7070BDBFFF8FFBE021036810B55A6800
:1055A8008A435A6082224168520091420CD180217C
:1055B800826809028A4203D08021C9008A4203D145
:1055C80040211A688A431A608021826A89018A42C6
:1055D80006D11968074C2140196019680A431A60F6
:1055E800030001225D331A7000235C30037003202E
:1055F80010BDC046FFDFFFFFF8B504000D0017001F
:10560800802623689868304009D06A1CFAD0FEF7D3
:1056180051FEC01B8542F4D82000FFF7BDFFF8BD3E
:10562800F7B5C02705000C0016000193FF002B6892
:10563800986820400DD0BC4200D11A7B721CF7D06C
:10564800FEF738FE019BC01A8642F0D82800FFF703
:10565800A3FFFEBD70B513000D0016000A00C0219F
:1056680049010400FFF7DCFF002805D02023226E43
:105678000320134323660FE0320029002000FFF7C0
:10568800BBFF0028F2D1C02133002A00C900200046
:10569800FFF7C6FF0028E9D170BD0000F8B5040087
:1056A8000120002C4BD000232500A3625D352B7808
:1056B800DBB2002B05D122005C3213702000FEF70C
:1056C80033FB0223402221682B700B680020934390
:1056D8000B60E023E268DB009A4231D9F0263601FC
:1056E800B24233D10600206B002803D19A422FD949
:1056F80002232363A7686368A0693B4327693B4388
:1057080067693B43E7693B43276A3B43A76A3B43D7
:105718008027BF0007403B430B60636A000C1A43B5
:10572800636B1A4304231840104306434E60CB6949
:10573800084A00201340CB61012320662B70F8BD76
:10574800802676019A42CED0A062CCE70600FBE71D
:105758000123CEE7FFF7FFFF70B504000120002CFE
:1057680010D025000223402122685D352B70136874
:1057780020008B431360FEF73DFB00205C34606023
:105788002870207070BDF0B587B0019303005C33BA
:1057980003931B7804000D0017000226012B00D18B
:1057A8007CE00123039A1370FEF784FD2200029027
:1057B8005D321378DBB2012B6AD11E00002D67D051
:1057C800002F65D0023313700023A21D23662364C3
:1057D800A563A787E78702329387D3872365E364A6
:1057E8008023A2681B029A4205D180232268DB012C
:1057F80011680B431360402223681968114202D1D3
:1058080019680A431A60E021E068C90062688842A2
:1058180047D9002A01D0012F07D12A880235DA603A
:10582800E38FA563013B9BB2E3870225E38F002B3F
:1058380016D1029A01992000FFF70CFF002800D02A
:105848006DE0A368002B06D105932368DA680592FA
:105858009B680593059B266E731E9E41F6B217E062
:10586800226893682B4209D0A36B19880233D16050
:10587800A363E38F013B9BB2E387D7E7FEF71AFDEB
:10588800029BC01A019B9842D0D30133CED0032685
:1058980001235D3423700023039A1370300007B08E
:1058A800F0BD002A01D0012F0AD1E28F012A1CD9AC
:1058B8002A880235DA60E38FA563023B9BB2E3874F
:1058C8000225E38F002BB4D0226893682B421CD0AA
:1058D800E18FA36B012910D919880233D160A36322
:1058E800E38F023B9BB2E387EBE72A781A73A36B3B
:1058F8000133A363E38F013BE0E71B781373A36BCA
:105908000133A363E38F013BECE7FEF7D3FC029B73
:10591800C01A019B8342D4D80133D2D0B7E72023E1
:1059280023668EE7F7B51E00030001925C331A78F0
:1059380004000F000225012A00D1ACE001221A70F0
:10594800FEF7B8FC230000905D331B786168DBB27A
:10595800012B0BD082225200914200D094E0A26821
:10596800002A00D090E0042B00D08DE00125002F04
:1059780000D189E0019B002B00D185E0002E00D1E9
:1059880082E023005D331A78042A01D005221A70B8
:10599800019A00232264220008322366D687A21DBA
:1059A800D687E022E068E3642365A763E687A687D5
:1059B800D2002368904201D8012E31D95A68714D1E
:1059C8002A405A60402223681D68154202D11D688A
:1059D8002A431A60E022D20090425ED9002901D001
:1059E800012E07D13A880237DA60E38FA763013BBB
:1059F8009BB2E387012502272E00E38F002B14D1E9
:105A080023000833DB8F002B0FD1009A0899200060
:105A1800FFF720FE051E37D020230125236633E03B
:105A280080225D6852012A43CBE7226893683B4293
:105A38000ED0E38F002B0BD0012D09D10025A36BCD
:105A480019880233D160A363E38F013B9BB2E387DC
:105A5800936833420ED021000831CB8F002B09D038
:105A68003500236CD2681A8002332364CB8F013B44
:105A78009BB2CB87FEF71EFC009BC01A089B834293
:105A8800BBD80133B9D00325230001225D331A7036
:105A980000235C3423702800FEBD002901D0012EAC
:105AA8000AD1E28F012A51D93A880237DA60E38FA6
:105AB800A763023B9BB2E387012502272E00E38FF1
:105AC800002B05D123000833DB8F002B00D19CE786
