:020000040800F2
:1000000000900020E9420008C9150008D115000839
:1000100000000000000000000000000000000000E0
:10002000000000000000000000000000D3150008E0
:100030000000000000000000D5150008D7150008DA
:100040003943000800000000394300083943000824
:100050003943000839430008394300083943000890
:100060000000000039430008394300083943000804
:1000700039430008394300083943000800000000F4
:1000800039430008D91500083943000839430008EE
:100090003943000839430008394300083943000850
:1000A0003943000839430008394300083943000840
:0800B000394300083943000840
:1000B80010B5064C2378002B07D1054B002B02D036
:1000C800044800E000BF0123237010BD180500207C
:1000D80000000000384A0008044B10B5002B03D07C
:1000E8000349044800E000BF10BDC04600000000FE
:1000F8001C050020384A00080023C25C0133002A8E
:10010800FBD1581E7047000002B4714649084900E7
:10011800095C49008E4402BC7047C04603B471466E
:10012800490840004900095E49008E4403BC7047F5
:10013800002243088B4274D303098B425FD3030A1E
:100148008B4244D3030B8B4228D3030C8B420DD331
:10015800FF22090212BA030C8B4202D312120902BF
:1001680065D0030B8B4219D300E0090AC30B8B42FD
:1001780001D3CB03C01A5241830B8B4201D38B03AB
:10018800C01A5241430B8B4201D34B03C01A524150
:10019800030B8B4201D30B03C01A5241C30A8B4293
:1001A80001D3CB02C01A5241830A8B4201D38B027E
:1001B800C01A5241430A8B4201D34B02C01A524122
:1001C800030A8B4201D30B02C01A5241CDD2C30994
:1001D8008B4201D3CB01C01A524183098B4201D310
:1001E8008B01C01A524143098B4201D34B01C01AFB
:1001F800524103098B4201D30B01C01A5241C30873
:100208008B4201D3CB00C01A524183088B4201D3E1
:100218008B00C01A524143088B4201D34B00C01ACD
:100228005241411A00D20146524110467047FFE739
:1002380001B5002000F0F0F802BDC0460029F7D053
:1002480076E7704703460B437FD4002243088B426E
:1002580074D303098B425FD3030A8B4244D3030B45
:100268008B4228D3030C8B420DD3FF22090212BA0A
:10027800030C8B4202D31212090265D0030B8B4286
:1002880019D300E0090AC30B8B4201D3CB03C01A70
:100298005241830B8B4201D38B03C01A5241430B4B
:1002A8008B4201D34B03C01A5241030B8B4201D33B
:1002B8000B03C01A5241C30A8B4201D3CB02C01AA6
:1002C8005241830A8B4201D38B02C01A5241430A1E
:1002D8008B4201D34B02C01A5241030A8B4201D30D
:1002E8000B02C01A5241CDD2C3098B4201D3CB01B4
:1002F800C01A524183098B4201D38B01C01A524163
:1003080043098B4201D34B01C01A524103098B4266
:1003180001D30B01C01A5241C3088B4201D3CB0051
:10032800C01A524183088B4201D38B00C01A524134
:1003380043088B4201D34B00C01A5241411A00D2E4
:1003480001465241104670475DE0CA0F00D049424D
:10035800031000D34042534000229C4603098B42BD
:100368002DD3030A8B4212D3FC22890112BA030A45
:100378008B420CD3890192118B4208D389019211C7
:100388008B4204D389013AD0921100E08909C3094C
:100398008B4201D3CB01C01A524183098B4201D34E
:1003A8008B01C01A524143098B4201D34B01C01A39
:1003B800524103098B4201D30B01C01A5241C308B1
:1003C8008B4201D3CB00C01A524183088B4201D320
:1003D8008B00C01A5241D9D243088B4201D34B003B
:1003E800C01A5241411A00D20146634652415B107D
:1003F800104601D34042002B00D54942704763465E
:100408005B1000D3404201B5002000F005F802BDA2
:100418000029F8D016E770477047C04670B5102617
:1004280098B0342200210BA804F0C6F9320000214C
:10043800684604F0C1F91C22002104A804F0BCF9A4
:100448008020800001F06CFE18211B4A0225D36D24
:1004580000248B43D36505230B93A023DB020C9365
:1004680001230D935B19139380239B02169380231A
:100478000BA89B05179312951494159601F07AFE14
:100488000723009380232900DB0168460393019525
:10049800029402F0D5F8094B04A8049380235B006A
:1004A8000A9306940794099402F0CCF902F0A4F98F
:1004B80002F0ACF918B070BD0010024042400200D2
:1004C800F0B595B001F094F9FFF7A8FF00F0BAFA7B
:1004D800142200210DA804F06FF90421202601251B
:1004E800EB4BEC485A6BEC4F0A435A635A6B0024A7
:1004F8000A400192019A5A6B023932435A635A6B85
:1005080032400292029A5A6B2A435A635A6B2A4023
:100518000392039A5A6B0A435A635A6B0A4004922D
:10052800049A5A6B06310A435A635B6B00220B40EC
:100538000593F731059B01F045FDA020310000220D
:10054800C00501F03FFD2A003900D44801F03AFD0A
:100558008021A0202A00C900C00501F033FD8023B6
:100568000DA99B01CB480D930E940F9501F00CFC3F
:10057800FF230DA9C7480D930E950F94109401F011
:1005880003FC8423A020DB000DA9C0050D930E9564
:100598000F94109401F0F8FB0F230DA9C0480D9398
:1005A8000E940F9501F0F0FB80235B010D93BD4B7A
:1005B8000DA9BB480E930F9501F0E6FBC023A020C0
:1005C8009B000DA9C0050D930E940F9401F0DCFB60
:1005D8000DA9B2480D970E950F94109401F0D4FB15
:1005E8000DA9AE480D960E940F9501F0CDFB302362
:1005F8000DA9AB480D930E940F9401F0C5FB0C2286
:1006080021000DA804F0D8F8A74EA84B8027336026
:1006180080239B03336104237361023BF3617319E5
:10062800DC7733002C331C7007237363013BB363FF
:100638003300FF053C3330001C707760B460F46011
:1006480034767476B5767462B4623463F46401F017
:100658000BF90DA930000D950E940F9401F03CFA9A
:10066800934B0DA90D93042330000E9301F034FA37
:10067800904E914B30003360904BB4607360F560DE
:1006880034617461B461F461346201F0A9FC210041
:10069800300001F0FBFC2100300001F01DFD88480E
:1006A800884B846003607F23C360803303614461A7
:1006B8008461C4610762446202F0D6F98248834BC0
:1006C80082270360E023DB00C36008238026C36120
:1006D800013BB6007F00C3625B198460046144611A
:1006E800866104624462846204634363476002F083
:1006F8008DFA7748774B84600360E023DB00C360A2
:100708000823C361013BC3625B194363046144610D
:1007180086610462446284620463476002F076FA88
:100728002100102209A804F047F821000C2206A88D
:1007380004F042F81C2221000DA804F03DF8664E92
:10074800664B30003360664B7560B460F3603461AB
:10075800B46102F053FE802309A95B0130000993BC
:1007680003F03CF8300002F064FE06A9300006945D
:10077800089403F0C9F8602322000DA930000D93F6
:100788000E940F94119402F0CBFE04220DA93000B0
:1007980002F0C6FE300000F05FFE210010220DA816
:1007A80004F00AF84F4E504B300033607460B46068
:1007B800F4603461B46102F021FE300002F054FEAE
:1007C80022000DA930000D940E950F94109402F09C
:1007D8005BFF464D464BE1262B600C237602280032
:1007E8006B616E60AC60EC602C61AC61EC612C629A
:1007F8006C62AC6203F0F2FB2100280003F07EFC7F
:100808002100280003F09CFC280003F059FC39481B
:10081800394B466003600C2384604361C460046103
:100828008461C46104624462846203F0D7FB03F00C
:10083800ABFC324C3249200003F0E8FF2000FFF700
:100848005BFCA02682B22F4B2100280003F026FB78
:10085800F60503F0ADFC2C4B2C491860431C02D064
:1008680000280CD12A49200003F0D0FF2000FFF710
:1008780043FC244B82B22100280003F00FFB300018
:10088800202101F0A5FB0A2000F0D8FFE1E7C046CF
:1008980000100240000800505F020000000C0050E9
:1008A8000004005000001110C80700200024014077
:1008B800020000043C07002000540040380F3000BC
:1008C8002C08002000280040580800200030014073
:1008D8004C06002000380040880700200004004033
:1008E800FF0F00004809002000200040BC0800203D
:1008F80000440040B00600200048004038050020B1
:10090800504A0008FFFF0000340500206C4A000828
:10091800954A0008034B026810B59A4201D100F0CD
:100928007BFF10BD0010004010B50824FF2000F028
:10093800E8FEFF2803D1013CE4B2002CF6D110BD3B
:10094800F0B587B004000CA805784020014302A840
:100958000170110E4170110C81700271110A01228F
:100968001343C1704371002000F0BAFE062204A9A7
:1009780002A800F0C2FE052D4AD82800FFF7C4FBE4
:1009880003142C354835FFF7CFFF0700FF2005007B
:10099800060001906B46207120001B792770667055
:1009A800A570E37007B0F0BDFFF7BEFF0700FF209A
:1009B80000F0A7FE0600012000F092FE012000F0E2
:1009C8003DFF002000F08CFEFF2000F09AFEFF287B
:1009D800FAD101900500DDE7FFF7A6FF0700FF2029
:1009E80000F08FFE0600FF20F3E7FFF79DFF0700EA
:1009F800FF2000F086FE0600FF2000F082FE0500C2
:100A0800FF2000F07EFE0190FF2000F07AFEC1E793
:100A1800FF200190050006000700BBE710B5084C51
:100A2800FF2000F06EFE013CA4B2FE2803D0002C8B
:100A3800F6D1022010BD604260414000FAE7C0468E
:100A4800FFFF0000F0B589B000F06AFE01220F2513
:100A58005B4B1A7002ABED1800232B7000212B782A
:100A680006AC0133DBB22B700A00952300912000FD
:100A7800FFF766FF0120277800F032FEFF2000F024
:100A880040FE2B78632B03D90125280009B0F0BD5F
:100A9800012FE3D10523D522009352008233082188
:100AA8002000FFF74DFF2578380000F019FEFF20E1
:100AB80000F027FE6B0723D5FF26002533002A0008
:100AC800372120000095FFF73BFF380000F008FEB3
:100AD800300000F016FE2A0029213300200000957E
:100AE800FFF72EFF23783800039300F0F9FD30005C
:100AF80000F007FE039B012BDFD0324B1D80C4E7BB
:100B0800012DC1D1FF2700263B0032003721009676
:100B18002000FFF715FF280000F0E2FD380000F084
:100B2800F0FD802200963B00D20529212000FFF726
:100B380007FF2678280000F0D3FD380000F0E1FD1B
:100B4800012EE0D0FF25730717D40323002200935A
:100B58003A21FC332000FFF7F3FE2578012000F04E
:100B6800BFFDFF2000F0CDFD002D00D08CE763789D
:100B7800144A5B06DB0F138087E700262B00320040
:100B8800372120000096FFF7DBFE2778012000F0D0
:100B9800A7FD280000F0B5FD012F00D074E7320052
:100BA80000962B0029212000FFF7CAFE267838007E
:100BB80000F096FD280000F0A4FD012EDDD0C4E76A
:100BC8009C0500209E0500200022F0B58BB004ADE6
:100BD800FF230400009209212800FFF7B1FE2B78BB
:100BE800002B30D001230393012000F079FDFF2072
:100BF80000F087FD002204ADFF2300920A2128009F
:100C0800FFF79EFE2B78002B00D12BE10126012057
:100C180000F066FDFF2000F074FD039B1E43CA4BE5
:100C2800F0B21B88012B00D07BE180239B00E3639B
:100C38006363A3681B019B0A0133DB0423635B0A1C
:100C4800A3630BB0F0BDFFF7E9FE03900028C9D1FC
:100C58000600FF2000F055FD06AD70550136102E38
:100C6800F7D1FF2000F04DFDFF2000F04AFD0120E4
:100C78002B789A009B09134323706B786370AB78C9
:100C8800A370EB78E3706A792B7911091B0119437A
:100C9800A38812011B0B1B030B43A3801B051B0F0F
:100CA80013436371AB79A179DA0981439F11074036
:100CB8000A43022187408A433A43042759110140D5
:100CC8008900BA430A4308211F1138408A43C000EB
:100CD8000243A2719C4A1188EA79002900D0A7E052
:100CE800981003310840217A0D3EB1430143217227
:100CF800297A90008A0902439B0213439348228968
:100D08001B0502409B0C134307222381A37AC810BA
:100D180010409343034311403820B14083430B43B1
:100D2800A3726B7AE17A5F099E10914316403943AA
:100D3800F60081433143E17206215B000B40A97A3A
:100D4800D1400B43217B91430B432373012006AE13
:100D5800B37A7E279D118340227C054082432A4333
:100D68007F25F17A3B40CF093B43834029400F0060
:100D7800024013432374637C317BAB43CA093B4372
:100D8800D2012B401343032263744B1113409C463A
:100D98006746A37C93433B431C271932BB430A4055
:100DA8001A43A2740C22737B890011409A091143DB
:100DB8008C460F226746E17C9143394310275A112C
:100DC8000240B94312010A43E2741F22217D1340F5
:100DD80091430B432021B27B8B43D7097F013B43CF
:100DE8004027911101408901BB430B435711FF0173
:100DF8002B40617D3B432375814313110340080059
:100E080003270343062091103940490083430B43CD
:100E18003A401821BA408B431A436275F27BA37D8E
:100E28005108AB430B43D2011D401543A575DBE6C2
:100E38003C213F209B000B4091090B43217A12046F
:100E480081430B4323722B89A1685BBA9BB21A4377
:100E58003F4B920212090B401A43A260120EB24392
:100E6800E27273E7FFF7DAFD061E00D0CEE6070050
:100E7800FF2000F046FC06AD78550137102FF7D15A
:100E8800FF2000F03EFCFF2000F03BFC2B78210007
:100E980023766B7828311B026383638BAA7813430C
:100EA8006383EB781B06E3612B79E2691B04134328
:100EB800E3616B79E2691B021343E361E269AB7991
:100EC8001343E361EA79631CDA772A7AA31CDA7799
:100ED8006B7A1B066362AB7A626A1B041343636214
:100EE800EB7A626A1B0213436362626A2B7B1343C9
:100EF80063626B7B0A78180902430A70F0221B02AE
:100F0800120113406385AA7B638D13432200638516
:100F1800EB7B2C325B081370230001222D331A70EF
:100F280075E62389227B9B0452071B0D520F023260
:100F380001339340802201219200E2636279120911
:100F480091409340616379E69E05002003C0FFFF4E
:100F58003F0000F0F0B587B003920023802204AD73
:100F680000939200FF3307000C0028001021FFF7C0
:100F7800E7FC2E78012000F0B3FBFF2000F0C1FB56
:100F8800002E02D00025012614E08020800003F006
:100F9800FBF9051EF6D08022FF21920003F00CFC1D
:100FA800244B1B88012B01D080239B005C43039BAF
:100FB800002B0DD1012000F093FBFF2000F0A1FBD6
:100FC800002D02D0280003F0E9F9300007B0F0BD89
:100FD8000023220000931121FF3304A8FFF7B0FC7F
:100FE80002AB1B7A002BCED1FFF718FD0028CAD11F
:100FF800802239009200280000F07FFB0D4B1B88EF
:10100800012B13D10134FF2000F07BFBFF2000F0FF
:1010180078FB012000F064FBFF2000F072FB039BCB
:10102800013B039380239B00FF18C0E780239B00AC
:10103800E418E8E79E050020F0B587B00392002386
:10104800802204AD00939200FF3307000C002800B3
:101058001021FFF775FC2D78012000F041FBFF20DF
:1010680000F04FFB002D09D00125012000F038FBCE
:10107800FF2000F046FB280007B0F0BD802080006C
:1010880003F082F9061EEFD0304B1B88012B01D0EC
:1010980080239B005C430297039B002B03D1300005
:1010A80003F07CF9E1E7002304AF00932200FF334B
:1010B80018213800FFF744FC3B78002B44D1FF206F
:1010C80000F01FFBFF2000F01CFBFE2000F019FBC6
:1010D800802231009200029800F00FFB1B4B1B8806
:1010E800012B2DD10134FF2000F00BFBFF2000F075
:1010F80008FBFF2000F005FB0700FF2000F001FBC4
:101108001F231F40052F1FD1012000F0E9FA0020FE
:1011180000F0E6FAFF2000F0F4FA0700FF28F9D102
:10112800012000F0DDFA380000F0EBFA802292008E
:101138009446039B013B0393029B63440293ABE7F2
:1011480080239B00E418CEE70125A8E79E05002030
:101158001FB5022302AC00220D2100932000FD33AD
:10116800FFF7EEFB012000F0BBFAFF2000F0C9FA00
:1011780023780120002B03D16078431E9841C0B228
:1011880004B010BD01200A4B82B0196C01431964E8
:1011980080211A6C490502400092009ADA6B0A43D2
:1011A800DA63DB6B0B400193019B02B07047C046CA
:1011B8000010024010B5040088B01422002103A8D2
:1011C80003F0FAFA0F4B22689A4219D180200E4B8D
:1011D8004003196C0143196401211A6C0240019201
:1011E800019A5A6BA0200A435A635B6BC0050B40F7
:1011F8000293029B032303A90393049300F0C4FD05
:1012080008B010BD002401400010024010B50400D1
:1012180088B01422002103A803F0CEFA124B2268EA
:101228009A421ED10221114C1148626B0A43626333
:10123800636B0B400193019B90239B000393122344
:101248000493113B059303A90533079300F09CFD14
:101258008021E26B89030A43E263E36B0B4002934C
:10126800029B08B010BDC046005400400010024068
:10127800000400500A4B026882B09A420ED18022C4
:10128800084B1202D96D0A438021DA65DA6BC9006E
:101298000A43DA63DB6B0B400193019B02B0704792
:1012A800002800400010024010B504008AB0142243
:1012B800002105A803F080FA2368294A934232D115
:1012C8008020284B4001196C0224014319641A6CD0
:1012D800024008200092009A596B014359635A6BE7
:1012E80002400192019A0122596B1F481143596328
:1012F8005B6B05A913400293029B80235B00059357
:101308000694099200F040FDC0235B010593A020DC
:101318000023069407930893099305A9C00500F0D4
:1013280033FD0AB010BD114A9342FAD180200D4B0B
:10133800C001D96B0143D963DA6B02400392039A67
:101348000222596B0A48114359635B6B05A9134084
:101358000493049BE0231B0205930692DFE7C04633
:101368000030014000100240000C005000380040DE
:10137800000400500368104A10B5934210D10F4A78
:101388000F49136C0F480B4080211364490000F08B
:10139800A3FDC021A0204901C00500F09DFD10BD9E
:1013A800094A9342FBD1054A0849D36B08480B40C8
:1013B800E021D3630902F0E7003001400010024049
:1013C800FFEFFFFF000C005000380040FFBFFFFF99
:1013D8000004005010B5040088B01422002103A8AE
:1013E80003F0EAF92368184A93420AD10220174AFF
:1013F800D16B0143D163D36B03400093009B08B0CA
:1014080010BD134A9342FAD18020104B0002196C88
:101418000143196404211A6C02400192019A5A6B23
:101428000C480A435A635B6B01220B400293029BF0
:1014380080235B010393022303A904930592079376
:1014480000F0A2FCDBE7C0460004004000100240A8
:10145800002000400008005010B5040086B0142297
:10146800002101A803F0A8F90C4B22689A4212D176
:1014780001230B4AA020516BC00519435163526BDD
:1014880001A91A400092009AC0220192BE3A029223
:10149800059300F079FC06B010BDC046000400407A
:1014A8000010024010B504008AB01422002105A8DB
:1014B80003F082F923681F4A93421DD180201E4BF6
:1014C8008002D96B0143D963DA6B02400192019A19
:1014D8000122596BA020114359635B6B05A9134086
:1014E8000293029B0C2305930A3B06930992C005BD
:1014F80000F04AFC0AB010BD104A9342FAD180208D
:101508000D4BC002D96B0143D963DA6B02400392D9
:10151800039A0222596B0A48114359635B6B05A968
:1015280013400493049BC0231B01059304230692D4
:101538000993DDE7004400400010024000480040E5
:101548000004005010B5010086B00022112000F000
:10155800DFFB112000F00CFC1020144AD16B014372
:10156800D163D36B69460340019302A8019B01F044
:1015780029F901F013F90E4C0E4B0F4923600F4B5C
:101588004000E360FEF7D4FD0023013860602000CE
:101598002361A36001F032FF03000120002B02D178
:1015A800200001F015FE06B010BDC0460010024034
:1015B800880900200010004040420F00E7030000A7
:1015C80010B501F02DF910BDFEE770477047704760
:1015D80010B5024801F016FE10BDC046880900206B
:1015E800F0B52F4C89B0200001F0B8FC061E55D18B
:1015F8002C4B012723600823E361063B2361053355
:10160800E362E023DB00E36080239B000100A0602D
:10161800A06220632062A3616062FC3B60631422C5
:1016280003A86761636003F0C7F808221E4D03A989
:101638006B6B1E4813436B636B6B13400093009BEB
:101648006B6B3B436B636B6B05973B400193019B53
:1016580080235B000393FE3B0493DB1906938027EA
:1016680000F092FBA02002237F0103A9C005039785
:101678000593079600F088FB8023A0201B01C00576
:1016880003A9039300F080FB2B6C20003B432B64E1
:101698002B6C1F400297029B01F0B8FA09B0F0BD0D
:1016A800A00500200030014000100240000C00504E
:1016B80013B51300084A094C126800920A00010089
:1016C800200001F019FB002804D0200001F0FCFAEA
:1016D800FFF786FF13BDC04600000020A0050020CC
:1016E80010B50200012806D18021A020C900C0053C
:1016F80000F068FC10BD0022F6E710B5FFF7D8FF30
:1017080010BD1FB50F246B466C44D8710733180001
:1017180001222100FFF7CCFF207804B010BD0000A3
:1017280030B5012489B01422002103A803F044F83D
:1017380002218025A0201B4BED005A6BC0052243D7
:101748005A635A6B22400192019A5A6B0A435A63B0
:101758005B6B22000B4002932900029B00F032FCD5
:1017680022002100104800F02DFCA020032303A92B
:10177800C005069304940594039500F005FBA0208A
:1017880003A9C005039400F0FFFAFFF729FF093405
:10179800013CFF20E4B2FFF7B4FF002CF8D109B0F8
:1017A80030BDC04600100240000400500A4B10B57E
:1017B80019680200002901D10849196069461868AA
:1017C80082188A4206D902F0B5FD0C230360012075
:1017D800404210BD1A60FCE704060020400E0020BD
:1017E8008022024B12059A607047C04600ED00E067
:1017F8008023084A5B00116810B50B431360002072
:10180800FFF7A0FE041E03D1FFF7BCFC200010BDAB
:101818000124FBE700200240034A044913680968D1
:101828005B1813607047C046C809002008000020F4
:10183800014B18687047C046C809002070B50400FD
:10184800FFF7F6FF0500631C02D0044B1B68E41881
:10185800FFF7EEFF401B8442FAD870BD0800002055
:1018680080684007C00F70470023F0B585B00400BA
:1018780003930125984200D19AE0856D9D4205D1D8
:10188800FFF798FC23005433E5651D708023266814
:101898005B05B2681A4200D1D0E0B3680025DB00CE
:1018A80000D4D8E03000FFF7DBFF1023A66D1E4000
:1018B80000D0BEE0002800D0BBE0A36D7C4A1A40EF
:1018C80002231343A36523689A68D20700D4CBE0A8
:1018D800276B217E781E8741627E3803D2038903F5
:1018E8000190E0681143A27E0143206994465203A7
:1018F8001143002866DA47007F0822002C3212784C
:1019080052000A4301990A4317430197621CD27F88
:10191800012A07D16146002957D180223900520295
:1019280011430191626A002A07D0E02149000A4068
:10193800A16A0A43019911430191616C226C0A431F
:10194800A16C0A43E16C0A4321003C310978012962
:1019580000D10A43D968574F3940019F3943D960AC
:101968001969554F39400A43072170271A615A6986
:101978008A43616B0A435A615A69A16BBA430901E8
:101988000A435A6100282AD11022996A52420A430E
:101998009A624A4ADB681340019A9A423DD1002371
:1019A8000322E365A36D93431A0001231343A36540
:1019B800280005B0F0BD039B013B0393039B002B5C
:1019C800F9D16AE78027BF0397E7A16D8C462021EC
:1019D80067463943A165E16D0A43E265A2E78022C3
:1019E80092039042D5D10F20216E0F00B200D7404C
:1019F8003A0002400F2A0DD00136082EF5D13048A2
:101A08009A6AE26912181C20920002402C38904011
:101A18000200BCE7012EB7D0F1E71222A36D012521
:101A280093431A0010231343A365E36D2B43E36527
:101A3800BEE7A26D01251343A365B9E7B268214942
:101A48000A401343B360204B20491868FEF770FB27
:101A580040000390B2E710230125A26D1343A3654C
:101A6800E36D2B43E3651DE71821DA688A43A16813
:101A78000A43DA6061681A69880F92008007920841
:101A8800024380201A614A005208C005824200D1F0
:101A98001EE780221206914200D119E70C480D4F2B
:101AA80002683A40F027BF0339400A4302600FE753
:101AB800FDFEFFFF1902FEFF02FCFFDFE7FF3F8389
:101AC800FFFFFF3FE8FFFF6F04000020400D030009
:101AD80008270140FFFFC3FF0023F0B589B0079333
:101AE800030054331A7805000F000224012A00D19C
:101AF800C1E0012600681E70FFF7B2FE03900028BF
:101B080000D0EFE0042280217B689446019301987D
:101B18002B6909063A68A04200D1B6E060468343C3
:101B28008B4213D129685303886A5B0B03438B628A
:101B38002868BB686E4944691940614013020B402C
:101B480063404361002A65DB002491E01F21019B6B
:101B58000B4002930F2302988340DB4304930498BD
:101B68002B6E0340059350031300002815D1900EE7
:101B78000840029988400599084301992866890810
:101B8800E86901318142D3D8029C29689B001B0F68
:101B9800886AA340049C2040C8E703983242E8D1F1
:101BA80030002242E5D1614620000A42E1D10320FB
:101BB8001107DED46046D106DBD405209106D8D4BF
:101BC80001305106D5D401301106D2D40130D105E7
:101BD800CFD401309105CCD401305105C9D401309E
:101BE8001105C6D40130D104C3D401309104C0D446
:101BF80001305104BDD401301104BAD40130D103ED
:101C0800B7D401309103B4D48020C0021040B0D0C2
:101C18001220AEE7E021374B37481C6849042140C1
:101C2800824217D18020000404428DD11A68334CB7
:101C380022400A4302431A60314B32491868FEF7C2
:101C480077FA0790079B002B00D17DE7079B013BA4
:101C58000793F7E72C48824210D1802040040440C3
:101C680000D071E71A68254E32400A4302431A60D1
:101C7800002354352B70200009B0F0BD2348824260
:101C880000D061E78020C003E9E7604683438B42C8
:101C980005D128685103836A490B8B438362002A64
:101CA80000DB51E7134B144918688A4208D1A02277
:101CB8001C6852041149024021400A431A6043E754
:101CC80011498A4203D1C0221C681204F2E70F4965
:101CD8008A4200D038E7C0225204196802400748F7
:101CE8000140EAE72023AA6D34001343AB65BFE740
:101CF80000FFFF0708270140001000B0FFFF3FFE6C
:101D080004000020400D0300004000B8002000B48B
:101D180070B58901002812DB8308134A03249B004D
:101D28009B18FF222040A0401400C0258440114089
:101D38008140AD005E59A6433143595170BD03241B
:101D48000F23C0B203402040A040FC3425002140AE
:101D580085408140083B054A9B089B009B18DA692F
:101D6800AA431143D961E9E700E100E000ED00E092
:101D7800002805DB1F2318401E3B8340014A1360DF
:101D88007047C04600E100E0F0B50B6885B00293EB
:101D980000230191029ADA4001D105B0F0BD012279
:101DA8009A4003920399029A0A40009200D185E072
:101DB800019A1021526816008E43022E0ED1072573
:101DC8001D40AD000139A940DC08A4000419276AA8
:101DD8008F4301990969A9400F43276203245F00D3
:101DE800BC40E4430568013E2540AC460325154048
:101DF800BD4061460D430560012E0FD801998668E4
:101E0800CD682640BD40354385604668039915096D
:101E18008E4301210D409D4035434560C5680199B9
:101E28002C408D688021BD4049052C43C4600A427E
:101E380044D003260F2422499D081E40AD00F60019
:101E48006D18B440A0212F6EC905A743002488420D
:101E58000CD01C490134884208D01B4901348842FF
:101E680004D01A490334884200D1023CB440009996
:101E78003C430E002C66164CCD43E76F3E43D1031E
:101E880001D43E002E40E667124E009FF46F2743B0
:101E9800910301D42C402700094CF7672768009E5E
:101EA8003E43D10201D43E002E4026606668009F62
:101EB8003743920201D42E4037006760013369E747
:101EC800001802400004005000080050000C0050A8
:101ED8000418024008180240F0B50023032785B013
:101EE8000291029ADA4001D105B0F0BD01229A4070
:101EF80002990092114056D02C4C9A081D0092006D
:101F080012190F243D40ED00AC40166E0194264096
:101F18000396A0260024F605B0420FD0244CA44610
:101F2800012460450AD0234CA4460224604505D00C
:101F3800214CA4463C00604500D00524AC40039DDC
:101F4800A54213D1C9431D4E184CF56F0D40F567D6
:101F58001B4EF56F0D40F56725680D4025606568D7
:101F680029406160116E019CA14311663C00590033
:101F78008C4002682100224307240F261C40A4003D
:101F8800A640C9430260DA0892008218156A009CCC
:101F9800B543156282680A4082604268A243426083
:101FA800C2681140C16001339BE7C0460018024077
:101FB8000004005000080050000C005004180240B3
:101FC80008180240002A01D0816170478162FCE74D
:101FD8004369194201D0816270478161FCE70000C2
:101FE80070B504000120002C3FD0250041352B7826
:101FF800DBB2002B05D12200403213702000FFF71E
:1020080005F9242301212B702368E0681A68A66863
:102018008A431A6061681A4A0A401A619968194A1B
:1020280011409960012821D180210902314399602A
:102038005868154901435960D96800200A40DA6098
:10204800616922690A43A16909020A43DA60216ABF
:10205800E2690A431A60012219680A431A602023B8
:1020680060642B7020634234207070BD84210902A3
:10207800314399600228DBD1802109015960D7E7F3
:10208800FFFFFFF0FF7FFFFF00800002F0B50400B4
:10209800413422780300D2B20220202A18D11D0030
:1020A80040352E78012E13D01B68223020701E6810
:1020B800233886431E601E68064F3E401E601E6819
:1020C800314319601968084318600020227028708D
:1020D800F0BDC046FFEFFFFFF0B5050041352A7897
:1020E8000300D2B20220202A17D11C0040342678DF
:1020F800012E12D01B68223028701E6823388643B0
:102108001E601E68054F09023E4031431960196878
:102118000843186000202A702070F0BDFFF0FFFF10
:1021280010B5104C1049236802000B40034323608C
:10213800802300209B009A420CD10C4B0C49186854
:1021480006235843FDF7F4FF8022431CD200606940
:10215800104000D110BD002B01D0013BF7E7032050
:10216800F8E7C04600700040FFF9FFFF04000020B8
:1021780040420F00F0B5040085B0002802D10120CC
:1021880005B0F0BD0368DB0710D423689B075CD457
:1021980023681B0700D5C2E023685B0700D5F4E07D
:1021A800E269002A00D073E10020E9E73822AC4D4B
:1021B800AB681340EA68102B09D1D243930708D1C2
:1021C8002B689B03E1D56368002BDED1D7E7082B8A
:1021D800F6D0802263685202934211D12A681343D1
:1021E8002B60FFF725FB80260700B6022B683342D9
:1021F800CBD1FFF71DFBC01B6428F7D90320BFE72D
:10220800A021C9028B4208D180232968DB020B4335
:102218002B602B681A432A60E3E72A6891490A4031
:102228002A602A6890490A402A60002BD9D1FFF712
:10223800FFFA80260700B6022B683342A5D0FFF7C5
:10224800F7FAC01B6428F7D9D8E73823844DAA6861
:102258001340EA68102B29D103210A40022A27D10A
:102268002A68520503D5E268002A00D187E7696821
:1022780062697E48120201400A436A60002B0DD150
:102288002B687B4A1340226913432B602B68794AD9
:102298009B045B0FDA401300774A1360774B18688A
:1022A800FFF750F9002800D172E768E7002BD7D074
:1022B800E368002B20D02B686D4A802613402269E2
:1022C800F60013432B6080232A685B0013432B60BE
:1022D800FFF7AEFA07002B68334207D06A686369D4
:1022E80062491B020A4013436B6051E7FFF7A0FAEB
:1022F800C01B0228EFD981E72B68614A802613406A
:102308002B60FFF795FA0700F6002B68334200D1DF
:102318003EE7FFF78DFAC01B0228F6D96EE7382191
:102328004F4B9A681D000A40182A08D11B6E9B075C
:1023380000D431E7A369002B00D02DE71FE7A2697D
:102348000123002A10D02A6E022613432B66FFF7BA
:102358006FFA07002B6E334200D01DE7FFF768FACB
:10236800C01B0228F6D949E72A6E02269A432A6634
:10237800FFF75EFA07002B6E334200D10CE7FFF738
:1023880057FAC01B0228F6D938E73821344B9A6827
:102398001D000A40202A08D1DB6D9B0700D4FFE608
:1023A800A368002B00D0FBE6E9E68022DB6B520530
:1023B800134200D1EDE000238027324E00933368AA
:1023C8007F003B4215D0A368012B22D1EA6D13434D
:1023D800EB65FFF72DFA02270600EB6D3B4238D07C
:1023E800009B012B00D0DBE6EB6B274A1340EB6325
:1023F800D6E633683B433360FFF71AFA0190336837
:102408003B42E0D1FFF714FA019BC01A0228F6D923
:10241800F4E6EA6D052B05D1013B1343EB65EA6D44
:102428000123D4E701218A43EA65EA6D03318A432F
:10243800EA65002BCDD1FFF7FBF902270600EB6D0B
:102448003B42CDD0FFF7F4F9104B801B9842F6D9E8
:10245800D4E6FFF7EDF90D4B801B9842BDD9CDE6C8
:1024680000100240FFFFFEFFFFFFFBFFFF80FFFFA2
:10247800FFC7FFFF0024F400040000200C00002028
:10248800FFFEFFFF00700040FFFFFFEF8813000012
:102498003820444B99681D000140102952D01B6810
:1024A80041490B402B60022A35D1FFF7C1F980263C
:1024B8000700B6042B68334227D1616A236AEA68A9
:1024C8000B433A490A401343E26A1343226B13430E
:1024D800A26A802412021343EB6080232A685B04FB
:1024E80013432B608023EA685B051343EB60FFF717
:1024F8009FF90600A4042B68234200D054E6FFF796
:1025080097F9801B0228F6D978E6FFF791F9C01BE6
:102518000228CFD972E60322EB6880249343EB604C
:10252800EB68234AA4041340EB60FFF781F9060027
:102538002B68234200D137E6FFF77AF9801B02287F
:10254800F6D95BE6012A00D119E6D8680323226A86
:102558000340934200D012E67023626A034093421C
:1025680000D00CE6FE22A36AD20102401B029A4266
:1025780000D004E6F823E26A9B030340934200D0AC
:10258800FDE5236B400F4007C01A431E9841C0B2B7
:10259800F6E5EB6B1343EB63EB6B13400393039B81
:1025A800012309E700100240FFFFFFFE8C80C11FD6
:1025B800FFFFFEEF38231F4A70B5916814001942D7
:1025C80008D1012113681C489B045B0F9940FDF753
:1025D800AFFD70BD91681940082925D09168194050
:1025E800102915D1D368D168DB437F22E5684906F5
:1025F800490F2D0A013115409B0707D10F48FDF7F8
:1026080097FDE1686843490F0131E0E70A48F6E7BA
:1026180091681940202909D0926800201340182B8E
:10262800D7D1FA20C001D4E70448D2E780200002BD
:10263800CFE7C046001002400024F40000127A00E0
:10264800F7B505000E00002801D10120FEBD0727BF
:102658004A4C23683B408B422AD329688B073BD4DA
:10266800CB0748D4072723683B409E420AD22368F9
:10267800BB4333432360FFF7DBF8019023683B40FB
:102688009E426BD12B683E4C5B076FD4FFF792FFDD
:10269800A3683C4A1B051B0F9B009B581F22134035
:1026A800D840394B1860394B1868FEF74BFFCDE717
:1026B8002368BB430B432360FFF7BAF801902368F4
:1026C8003B409E42C9D0FFF7B3F8019BC01A304B7C
:1026D8009842F4D90320B9E7294A4B0704D5E023E7
:1026E8009068DB010343936093682A480340A86815
:1026F80003439360B4E76A68214F012A19D13B6804
:102708009B03A2D50721BB688B431343BB60FFF72C
:102718008FF801903823BA681A406B68DB009A4238
:10272800A0D0FFF785F8019BC01A194B9842F1D940
:10273800D0E7022A03D13B689B01E3D485E7002A4E
:1027480003D13B685B05DDD47FE70223032A03D16D
:10275800396E1942D6D178E7F96DFAE7FFF768F8CC
:10276800019BC01A0A4B984288D9B3E7A3680A4A62
:102778001340EA681343A36088E7C046002002407C
:1027880000100240C04A0008040000200C0000208D
:1027980088130000FFF0FFFFFF8FFFFF064B074A7B
:1027A8009B685B045B0F9B009B581F221340044AE5
:1027B8001068D8407047C04600100240004B00081F
:1027C80004000020072230B5F025094B02609C6800
:1027D8002D01144044609C682C408460E0249B6870
:1027E800E4012340C360034B1B6813400B6030BDFA
:1027F80000100240002002408023034A1B03116896
:102808000B4313607047C046001002402023024A61
:10281800D16D0B43D3657047001002407047704775
:10282800C023074A10B5D4699B0023401362E3050F
:1028380001D5FFF7F3FFA30501D5FFF7F0FF10BDA2
:1028480000100240F0B505002B6885B000209B03FE
:102858004FD580224B4C5205E36B0090134208D1B0
:10286800E36B1343E363E36B13400393039B01237D
:1028780000938027444E7F0033683B433360FEF764
:10288800D7FF019033683B4225D0C023E26D9B00FF
:1028980013400FD0AA6993420CD0E26D3B4BE16D17
:1028A8001340802252020A43E265E26D38490A4029
:1028B800E265E365DB0706D5FEF7BAFF02270600E7
:1028C800E36D3B4257D0E36D304A00201340AA69BC
:1028D8001343E36506E0FEF7ABFF019BC01A02282D
:1028E800D0D90320009B012B03D1E36B294A134065
:1028F800E3632A68D30706D5032422494B6DA34313
:102908006C6823434B65930706D50C241D494B6D12
:10291800A343AC6823434B65530606D519491E4C9F
:102928004B6D2340EC6823434B6553040FD5154981
:102938006C694B6D9B009B0823434B658023DB052B
:102948009C4204D18023CC685B022343CB601305EF
:102958000FD50C49114C4B6D2A69234013434B6525
:102968008023DB019A4204D18023CA685B021343A7
:10297800CB6005B0F0BDFEF75BFF094B801B9842AA
:102988009ED9AEE70010024000700040FFFCFFFF38
:10299800FFFFFEFFFFFFFFEFFFCFFFFFFF3FFFFF40
:1029A80088130000A0210268F8B5D36804008B439F
:1029B800D360FEF73DFFFA2706002025BF002368F5
:1029C800DB682B4201D00020F8BDFEF731FF801BE9
:1029D800B842F4D90320F7E7F8B5402703680500A3
:1029E800DA6800243A420CD18022D9680A43DA60B6
:1029F800FEF71EFF06002B68DB683B4201D1032C63
:102A080001D12000F8BDFEF713FFFA23801B9B00BD
:102A18009842F0D92B00032429331C70EBE70000FF
:102A2800802270B50F4C0500E3689343E360A36907
:102A3800603A134207D1FFF7B5FF002802D0032000
:102A48002935287070BDA3699343A361FFF7AAFFD6
:102A5800002802D00320293528702023A2691343B7
:102A6800A361EFE70028004070B504000120002CA6
:102A780047D0250029352B78DBB2002B08D122005E
:102A88002832137088231B0263602000FEF7F2FBD4
:102A98000223CA222B70236820005A62773A5A62AE
:102AA800FFF79AFF002825D1236816499A696069BB
:102AB8000A409A61A26899690243E06902430A439D
:102AC8009A61226920001A61E268196912040A43AE
:102AD8001A61FFF7A5FF00280CD12268266A9369BE
:102AE800DB00DB089361636A91693343A66933436A
:102AF8000B439361FF2223685A62002801D1012306
:102B08002B7070BDBFFF8FFBE021036810B55A68BA
:102B18008A435A6082224168520091420CD1802136
:102B2800826809028A4203D08021C9008A4203D1FF
:102B380040211A688A431A608021826A89018A4280
:102B480006D11968074C2140196019680A431A60B0
:102B5800030001225D331A7000235C3003700320E8
:102B680010BDC046FFDFFFFFF8B504000D001700D9
:102B7800802623689868304009D06A1CFAD0FEF78E
:102B880057FEC01B8542F4D82000FFF7BDFFF8BDF3
:102B9800F7B5C02705000C0016000193FF002B684D
:102BA800986820400DD0BC4200D11A7B721CF7D027
:102BB800FEF73EFE019BC01A8642F0D82800FFF7B8
:102BC800A3FFFEBD70B513000D0016000A00C0215A
:102BD80049010400FFF7DCFF002805D02023226EFE
:102BE8000320134323660FE0320029002000FFF77B
:102BF800BBFF0028F2D1C02133002A00C900200001
:102C0800FFF7C6FF0028E9D170BD0000F8B5040041
:102C18000120002C4BD000232500A3625D352B78C2
:102C2800DBB2002B05D122005C3213702000FEF7C6
:102C38003BFB0223402221682B700B680020934342
:102C48000B60E023E268DB009A4231D9F0263601B6
:102C5800B24233D10600206B002803D19A422FD903
:102C680002232363A7686368A0693B4327693B4342
:102C780067693B43E7693B43276A3B43A76A3B4392
:102C88008027BF0007403B430B60636A000C1A4370
:102C9800636B1A4304231840104306434E60CB6904
:102CA800084A00201340CB61012320662B70F8BD31
:102CB800802676019A42CED0A062CCE70600FBE7D8
:102CC8000123CEE7FFF7FFFF70B504000120002CB9
:102CD80010D025000223402122685D352B7013682F
:102CE80020008B431360FEF745FB00205C346060D6
:102CF8002870207070BD0000F7B51E000300019217
:102D08005C331A7804000F000225012A00D1ACE0D8
:102D180001221A70FEF78CFD230000905D331B78AA
:102D28006168DBB2012B0BD082225200914200D0A5
:102D380094E0A268002A00D090E0042B00D08DE037
:102D48000125002F00D189E0019B002B00D185E0EF
:102D5800002E00D182E023005D331A78042A01D0C6
:102D680005221A70019A0023226422000832236681
:102D7800D687A21DD687E022E068E3642365A763AF
:102D8800E687A687D2002368904201D8012E31D960
:102D98005A68714D2A405A60402223681D681542BE
:102DA80002D11D682A431A60E022D20090425ED9FF
:102DB800002901D0012E07D13A880237DA60E38F63
:102DC800A763013B9BB2E387012502272E00E38F0F
:102DD800002B14D123000833DB8F002B0FD1009A6E
:102DE80008992000FFF7EEFE051E37D020230125A5
:102DF800236633E080225D6852012A43CBE72268CC
:102E080093683B420ED0E38F002B0BD0012D09D1E4
:102E18000025A36B19880233D160A363E38F013BBC
:102E28009BB2E387936833420ED021000831CB8FE1
:102E3800002B09D03500236CD2681A800233236432
:102E4800CB8F013B9BB2CB87FEF7F2FC009BC01AED
:102E5800089B8342BBD80133B9D003252300012244
:102E68005D331A7000235C3423702800FEBD0029EE
:102E780001D0012E0AD1E28F012A51D93A880237AE
:102E8800DA60E38FA763023B9BB2E3870125022741
:102E98002E00E38F002B05D123000833DB8F002B96
:102EA80000D19CE7226893683B4211D0E38F002B46
:102EB8000ED0012D0CD1E18FA36B012938D91988C7
:102EC8000233D160A363E38F023B00259BB2E38703
:102ED80021688B68334219D023000833DA8F002A1F
:102EE80014D0D88F226C01282AD9C86835001080E0
:102EF80002322264DA8F023A92B2DA87DB8F012B30
:102F080004D880234A685B0113434B60FEF790FCAA
:102F1800009BC01A089B8342BBD80133B9D09CE7F9
:102F28003A781A73A36B0133A363E38F013BABE7D2
:102F38001B781373A36B0133A363E38F013BC4E7CF
:102F4800097B35001170226C01322264DA8F013A54
:102F580092B2DA87DAE7C046FFEFFFFF5D3000780C
:102F6800C0B270470122036A70B593430362036AD3
:102F7800194A4468856915400A6815430222934333
:102F88008A681343154A904208D0154EB04205D0BE
:102F9800144EB04202D0144EB04216D10826B343A4
:102FA800CE6833430426B343904208D00C4A90427B
:102FB80005D00C4A904202D00B4A904205D10B4AE8
:102FC8008E6922404C69344314434A6844608561E1
:102FD8004263036270BDC0468CFFFEFF002C0140B7
:102FE800004001400044014000480140FFFCFFFF51
:102FF800036A184A70B513400362036A164D4268A3
:10300800C4692C400D682C43144D2B408D682D024B
:103018002B43134DA8420ED1124D1D40CB681B0205
:103028002B43114D2B40114D4E6915408A6932438F
:1030380012012A4308E00E4DA842F4D00D4DA842D3
:10304800F1D00D4DA842EED042604A68C461C26317
:10305800036270BDFFFEFFFF8CFFFEFFFFFDFFFF59
:10306800002C0140FFF7FFFFFFFBFFFFFFCFFFFF33
:10307800004001400044014000480140036A144AEE
:1030880030B513400362026A124C4368C569254093
:103098000C6824022543104C22408C6824032243E8
:1030A8000E4CA04208D00E4CA04205D00D4CA042B8
:1030B80002D00D4CA04204D10C4C23404C69A40111
:1030C800234343604B68C5610364026230BDC04658
:1030D800FFEFFFFFFF8CFFFEFFDFFFFF002C01402B
:1030E800004001400044014000480140FFBFFFFF8D
:1030F800036A134A70B513400362046A114E4368A9
:10310800456D35400E6835430F4E34408E683604A1
:1031180034430E4EB04208D00D4EB04205D00D4E8D
:10312800B04202D00C4EB04203D113404A69120299
:10313800134343604B6845658365046270BDC046B0
:10314800FFFFFEFF8FFFFEFFFFFFFDFF002C01408A
:10315800004001400044014000480140036A144A0D
:1031680030B513400362026A124C4368456D25402E
:103178000C6824022543104C22408C682405224305
:103188000E4CA04208D00E4CA04205D00D4CA042D7
:1031980002D00D4CA04204D10C4C23404C69A4022F
:1031A800234343604B684565C365026230BDC04632
:1031B800FFFFEFFFFF8FFFFEFFFFDFFF002C014047
:1031C800004001400044014000480140FFFFFBFF70
:1031D800012203680748D9681143D96099680140FA
:1031E800062905D00738814202D019680A431A60B7
:1031F800002070470700010070477047704770470C
:10320800704770470222036810B51969040011421B
:103218000ED0D96811420BD0053A1A619B69043265
:1032280002779B0700D186E0FFF7E9FF00232377A9
:10323800042223681969114211D0D96811420ED0AD
:10324800093A1A61073222779A69C0239B00200045
:103258001A4200D175E0FFF7D2FF00232377082236
:103268002368196911420ED0D96811420BD0113A5E
:103278001A61DB690D32227720009B0767D0FFF7C0
:10328800BEFF00232377102223681969114210D04A
:10329800D96811420DD0213A1A6119322277DA69B8
:1032A800C0239B0020001A4257D0FFF7A8FF002335
:1032B8002377012223681969114207D0D96811427E
:1032C80004D0033A1A612000FDF724FB802223680A
:1032D8001969114208D0D968114205D0023AFF3A5B
:1032E8001A61200000F03BFB23681A69D20507D554
:1032F800DA68120604D51C4A20001A6100F030FB77
:10330800402223681969114207D0D968114204D0B4
:10331800813A1A612000FFF774FF20222368196997
:10332800114207D0D968114204D0413A1A612000ED
:1033380000F014FB10BDFFF761FF2000FFF760FFEE
:1033480074E7FFF75BFF2000FFF75AFF85E7FFF7F9
:1033580055FF2000FFF754FF93E7FFF74FFF2000CA
:10336800FFF74EFFA3E7C046FFFEFFFF1C4A10B55C
:103378000368904202D01B4CA04208D17024A3439A
:103388004C68234390420ED0164CA0420BD0164CEA
:10339800A04208D0154CA04205D0154CA04202D03E
:1033A800144CA04203D1144C2340CC6823438024FE
:1033B800A3434C69234303608B68C3620B68836231
:1033C800904208D0094B984205D0094B984202D048
:1033D800084B984201D10B6903630123436110BD77
:1033E800002C014000040040002000400040014043
:1033F8000044014000480140FFFCFFFF70B5040095
:103408000120002C14D025003D352B78DBB2002B91
:1034180005D122003C3213702000FDF7DBFF0223A8
:1034280020682B70211DFFF7A1FF012300202B70BE
:1034380070BD70B504000120002C14D025003D3566
:103448002B78DBB2002B05D122003C321370200010
:10345800FFF7D2FE022320682B70211DFFF786FF9D
:10346800012300202B7070BD70B504000120002CD2
:1034780014D025003D352B78DBB2002B05D1220076
:103488003C3213702000FFF7B8FE022320682B702F
:10349800211DFFF76BFF012300202B7070BD00007A
:1034A8001022036A70B593430362026A164D43689B
:1034B80084692C400D682D022C432025AA438D6871
:1034C8002D012A43114DA8420FD18025AA4315008A
:1034D800CA6812012A434025AA430D4D4E691D4072
:1034E8008B6933439B002B4308E00A4DA842F4D074
:1034F800094DA842F1D0094DA842EED043604B686F
:1035080084618363026270BDFF8CFFFE002C014062
:10351800FFF3FFFF00400140004401400048014024
:10352800F7B5070002233C3716003A7804000D006F
:103538001800012A11D001223A7022003D3201926E
:103548001370082E43D009D8002E1ED0042E2DD07B
:1035580001230020019A13703870FEBD102E46D04A
:10356800142E55D00C2EF3D12068FFF787FD80224A
:1035780023681201D9690A43DA61DA692D490A40D8
:10358800DA612A69D96912022EE02068FFF7EAFC9D
:103598000822236899690A4304219A619A698A432F
:1035A8009A619A6929690A439A61D1E72068FFF705
:1035B80077FF80222368120199690A439A619A6900
:1035C8001C490A409A612A6999691202EBE7206846
:1035D800FFF70EFD04212368DA691643DE61DA6914
:1035E8008A43DA61DA6929690A43DA61B0E720684F
:1035F800FFF77EFD08222368596D0A4304215A65A6
:103608005A6D8A435A655A6D29690A435A659FE774
:103618002068FFF7A3FD802223681201596D0A4331
:103628005A655A6D03490A405A652A69596D12024A
:10363800EBE7C046FFFBFFFFF0B50124056A0F4F1B
:10364800A54305628669056AB84205D00C4FB842A1
:1036580002D00C4FB8420FD10324A643F0243243C2
:10366800A2431B010F342340F53CA54321402943C5
:103678001A4382610162F0BD2200EFE7002C01408D
:103688000004004000400140F7B50D00010002238E
:103698003C310E7804001800012E1AD00138087049
:1036A8004B70002A16D1EB686A6829682068FFF712
:1036B800C3FF0C2123689A698A439A619A69A968A9
:1036C8000A439A612300012200203D333C341A70DA
:1036D8002070FEBD2968236801916E68E868042A95
:1036E8001ED110271A6A3049BA431A629F693602F6
:1036F8000F403E432D4F00073E40000C3043A026AC
:1037080001991A6A0901B24331401143986119625B
:103718009A6927490A409A61AA6899691202CFE70B
:10372800AD68082A20D103211A6A224F00013A40C5
:103738001A62DF691A6A8F433E43F027BE430F3788
:10374800384006431C4801990240A02009020001A4
:1037580001401143DE6119620C21DA698A43DA619A
:10376800DA691543DD61ADE71A6A144F0E493A402C
:103778001A62DF6936020F403E430C4F00073E4095
:10378800000C1A6A30430E4E01993240A0260903F4
:10379800360231401143D8611962DA6904492D02B1
:1037A8000A40DA61DA69DCE7FFFCFFFFFF0FFFFF81
:1037B800FFF3FFFFFFFEFFFFFFF5FFFFFFEFFFFF38
:1037C800FF5FFFFF30B58468034D0A431B022C409E
:1037D80013432343836030BDFF00FFFFF8B50500A6
:1037E80002233C352A7804001800012A16D0260046
:1037F800012720683D362F70337083683F4A134095
:1038080083600B68402B63D014D8102B0BD006D8DC
:10381800002B08D00123002033702870F8BD202B1E
:1038280001D0302BF6D1364A816811400722134364
:103838000B4319E0602B34D018D8502BEAD14A68D2
:10384800CB68016A046A1B01BC43F02704628469DF
:10385800BC4323430A24A1430A4383610262836869
:10386800274A1A40572313438360D3E7702B0DD0A0
:10387800802292019342CDD1CB684A688968FFF7CC
:10388800A1FF80232268DB01916807E0CB684A68C2
:103898008968FFF797FF7723226891680B43936045
:1038A800B8E710244B68CA68016A164FA143016241
:1038B800846912033C402243A024016A1B01A143EE
:1038C8000B438261036283680D4A1A406723CAE783
:1038D8004A68CB68016A046A1B01BC43F02704628A
:1038E8008469BC4323430A24A1430A4383610262D7
:1038F8008368034A1A404723B5E7C0468800CEFFCD
:103908008FFFCFFFFF0FFFFF70B5040002223C348A
:10391800257803001000012D1AD01D003D352A70AE
:103928000C4E1A6853689068B24203D10A4E33406D
:103938004E6833437026B3430E6889683343802644
:10394800B043536001430123002091602B70207025
:1039580070BDC046002C0140FFFF0FFF7047704745
:103968007047000070B5040002698368C169134399
:103978004269656E134302680B4310682B439F4DE1
:1039880028400343136053689D48256A0340E06854
:1039980003435360A36990682B439A4D28400F2531
:1039A80003439360D06A636AA8431843D062964879
:1039B800824213D10320954A526D02409448805C9C
:1039C80080221202914200D1B7E1082817D8FCF7EB
:1039D8009BFB8416BE16F2161616F5008D48824219
:1039E80005D10C20894A526D02408B48E7E78B4B82
:1039F8009A4200D150E18A4B9A4200D14CE1012011
:103A080091E1002B2FD0012B19D0022B19D0032BB9
:103A180019D0042B19D0052B19D0062B19D0072B38
:103A280019D0082B19D0092B19D00A2B19D00B2B18
:103A380019D17C48636861685B08181860E17A48A6
:103A4800F8E77A48F6E77A48F4E77A48F2E77A48F6
:103A5800F0E77A48EEE77A48ECE77A48EAE77A4806
:103A6800E8E77A48E6E77A48E4E7FEF7A3FD1AE1D3
:103A7800002B18D0012B19D0022B1AD0032B1BD0E6
:103A8800042B1BD0052B1CD0062B1CD08020072B09
:103A98001BD0082B1BD0092B1BD00A2B1BD00B2BA0
:103AA80002D14000C6E780204002C3E78020000220
:103AB800C0E78020C001BDE76648BBE780208001E1
:103AC800B8E76548B6E76548B4E74001B2E70001E2
:103AD800B0E7C000AEE78000ACE7FEF75FFE636AC0
:103AE8000121002B21D04918012B1ED00231022BB5
:103AF8001BD00231032B18D00231042B15D0023110
:103B0800052B12D00231062B0FD00431072B0CD015
:103B18001031082B09D02031092B06D040310A2B4F
:103B280003D07F390B2B00D1FF316568FCF700FB10
:103B380029006B08C018FCF7FBFA80B20300484A5A
:103B4800103B934200D95AE72368D860EAE0002B7B
:103B58002FD0012B19D0022B19D0032B19D0042BED
:103B680019D0052B19D0062B19D0072B19D0082BE3
:103B780019D0092B19D00A2B19D00B2B19D1394878
:103B8800636861685B081818D5E72848F8E729488A
:103B9800F6E72A48F4E72A48F2E73348F0E73348DB
:103BA800EEE72848ECE72848EAE72848E8E71D4810
:103BB800E6E71D48E4E7FEF7FDFC90E7002B18D088
:103BC800012B18D0022B53D0032B54D0042B54D0E4
:103BD800052B55D0062B55D08020072B54D0082B09
:103BE80054D0092B54D00A2B54D00B2BC8D0000228
:103BF800C6E78020FBE78020C001C1E7F369FFCF5B
:103C0800FFCFFFFFFFF4FF11003801400010024012
:103C1800204B000800440040244B000800480040A6
:103C2800004C004048E801000024F40000127A002B
:103C38005461510000093D0000D43000AAB02800AA
:103C480080841E0040420F0020A1070090D003008E
:103C58000048E801AA2A000098190000541500003D
:103C6800EFFF000024F40000006A18005558140003
:103C78008020800184E7384882E7802040017FE780
:103C880036487DE736487BE7000179E7C00077E7EB
:103C9800800075E7400073E780231B02994200D03B
:103CA8001BE7FEF77BFD636A0121002B21D0491831
:103CB800012B1ED00231022B1BD00231032B18D04E
:103CC8000231042B15D00231052B12D00231062BFC
:103CD8000FD00431072B0CD01031082B09D020311C
:103CE800092B06D040310A2B03D07F390B2B00D18A
:103CF800FF31FCF71DFA6568400029006B08C01801
:103D0800FCF716FA80B20300164A103B934200D91A
:103D180075E60F2302009A43130000072268400F3C
:103D28001843D0600020220001236A321380023A2F
:103D380013800023E366236770BD082800D95EE678
:103D4800FCF7ECF9AFFF5DFE5FFE5DFE93FE5DFEE6
:103D58005DFE5DFE96FEC04655150000CC0C0000C9
:103D6800AA0A0000EFFF0000836A30B5DA0706D51B
:103D78000168284C4A682240C46A22434A609A076C
:103D880006D50168244C4A682240046B22434A60E5
:103D98005A0706D50168214C4A682240446B2243E1
:103DA8004A601A0706D501681D4C4A682240846B90
:103DB80022434A60DA0606D501681A4C8A6822400E
:103DC800C46B22438A609A0606D50168164C8A6835
:103DD8002240046C22438A605A0610D50168134DAC
:103DE8004A68446C2A4022434A6080225203944223
:103DF80005D14A680E4C2240846C22434A601B0657
:103E080006D502680B4953680B40C16C0B435360DD
:103E180030BDC046FFFFFDFFFFFFFEFFFFFFFBFFBA
:103E2800FF7FFFFFFFEFFFFFFFDFFFFFFFFFEFFF5A
:103E3800FFFF9FFFFFFFF7FFF8B504000E00150016
:103E48001F002268D36933409B1B59424B41AB4248
:103E580001D000201EE0069B0133F3D0FDF7E8FCFB
:103E6800069BC01B834201D3002BEAD1220008CA5B
:103E780009481968014019609968A330FF308143E7
:103E880099602023D36722000832D36700237C344B
:103E980023700230F8BDC0465FFEFFFFF0B5071D76
:103EA80087B00593FB6F04000D0016000220202B3D
:103EB8004AD10138002947D0002A45D08023A2687A
:103EC8005B019A4204D12369002B01D101423BD105
:103ED80023007C331A780220012A35D001221A7077
:103EE8000022DA602123FB67FDF7A2FC230054338C
:103EF8001E8002331E8003938023A26804905B0116
:103F080000269A4204D12369B34201D12E001D0034
:103F1800230056331A88059B92B20093049B002A0B
:103F28000AD140212000FFF787FF00280BD120236A
:103F38007C34FB67207007E0002280212000FFF717
:103F48007BFF002802D0032007B0F0BD2268002DB7
:103F58000BD133880236DB05DB0D9362039B039A92
:103F68001B88013B9BB21380D2E72B780135936203
:103F7800F4E70000030073B50026040088331E60D0
:103F8800FDF756FC236805001B681B0717D4236838
:103F98001B685B070AD580210F4B00220093C903D9
:103FA8002B002000FFF748FF002813D12023002012
:103FB800221DD3677C340432D36720700BE0802144
:103FC800054B32000093890303002000FFF734FFFC
:103FD8000028DCD0032076BDFFFFFF0170B5041E6A
:103FE80001D1012070BD051DEB6F002B04D102002B
:103FF8007C321370FDF756FA242301212268EB67FF
:10400800136820008B431360FFF7ACFC0128E8D04D
:10401800A36A002B02D02000FFF7A6FE23680849F8
:104028005A6820000A402A215A609A688A439A608E
:10403800012219680A431A60FFF79CFFD2E7C046BD
:10404800FFB7FFFF0123F0B587B002AA13705370C2
:104058009370032202A9CA7002250022072604AC25
:104068008A71CA710E714B71A57004210700050091
:10407800083222702271426E6170E1706371A3711F
:10408800E3716A376835002A03D13B802B8007B07B
:10409800F0BD03689A689B6801925B0F02AAD05C26
:1040A800E15CC000FCF7CEF8019B38805B0E1E4037
:1040B80002AB985DA15DC000FCF7C4F82880E6E774
:1040C80070B504007C3422780223012A14D001261A
:1040D800051D22332670EB6703681A681968B14317
:1040E8001960802189050A4341661A60FFF7AAFF13
:1040F8002023EB6700232370180070BDF8B5050076
:104108007C352B7804000220012B17D02423226849
:104118000138261D2870F3671768136883431360F6
:1041280093682000DB00DB0819439160FFF78AFFE2
:10413800236800201F602023F3672870F8BD000063
:10414800F8B505007C352B7804000220012B17D028
:1041580024230138261D2870F36723681F681A680E
:1041680082431A609A680748024011439960200008
:10417800FFF768FF236800201F602023F36728707B
:10418800F8BDC046FFFFFFF110B50649064800F02C
:10419800A1F8002803D10122044B1A7010BD012098
:1041A8004042FBE7CC090020344B000808060020F9
:1041B8000020704770B50125054C2570FCF7C8FF35
:1041C800002802D12378AB4323702078C0B270BD99
:1041D80010000020012310B5054C2370FCF732FCB9
:1041E800002802D1FFF7E6FF20702078C0B210BD8A
:1041F8001000002010B5FFF7DDFF10BD080010B556
:1042080011001A00054BFCF7A5FE03000120002B46
:1042180003D1FCF79DFF0028FBD110BD00E1F50597
:1042280010B5114B14001A7890B00320D30713D49B
:104238000130032910D80800FBF766FF0D020810AB
:104248006846FCF7C1FC0E9B236004E06846FCF757
:10425800BBFC0F9B2380002010B010BD6846FCF704
:10426800B3FC0F9B5B0AEFE710000020080010B5B5
:1042780011001A00054BFCF7DFFE03000120002B9C
:1042880003D1FCF765FF0028FBD110BD00E1F5055F
:1042980030B50F4B01255C7AE4B2002C15D15D7A5C
:1042A8005C555D7AAD005D196860587A250018186C
:1042B80002725A7AD2B2501CC0B258723A233032C3
:1042C8004B700B3B0A708B70CC70280030BDC04619
:1042D8000C06002010B50022FFF7DAFF10BD000021
:1042E8000D488546002103E00C4B5B5843500431D0
:1042F8000B480C4B42189A42F6D30B4A02E00023B3
:1043080013600432094B9A42F9D3FDF769FA00F0B9
:1043180017F8FCF7D5F8FEE700900020504B00088E
:10432800000000201805002018050020400E00207D
:10433800FEE70000014B18687047C04614000020D3
:1043480070B500260C4D0D4C641BA410A64209D173
:10435800002600F06DFB0A4D0A4C641BA410A6420F
:1043680005D170BDB300EB5898470136EEE7B300AE
:10437800EB5898470136F2E7484B0008484B0008CD
:10438800484B00084C4B000810B5034B0100186857
:1043980000F00EF810BDC0461400002010B5034B05
:1043A8000100186800F08EFA10BDC0461400002005
:1043B800F0B50D0085B00B350190162D08D90723EF
:1043C8009D4306D50C23019A1360002005B0F0BD6B
:1043D80010258D42F6D3019800F0F6F9F823FF3343
:1043E800BA489D421FD82A00083282181100546822
:1043F8000839EB088C4203D1D4680233A24229D091
:1044080003236268A1689A431300E268E318CA604C
:104418009160012259680A435A60019800F0DCF95A
:1044280020000830D2E76A0A3F23002A03D0042A72
:1044380028D8AB09383303229446D9000918CC6828
:104448008C4206D066466268B243571B0F2F31DD97
:10445800013B01330100046908318C424ED003222C
:10446800666896433200761B0F2E31DD01276319EB
:104478003D433743656043610361D96099605F607C
:10448800A650CAE7142A02D813005B33D3E7542A8C
:1044980002D82B0B6E33CEE7AA235B009A4202D8D0
:1044A800EB0B7733C7E78A497E238A42C3D8AB0C24
:1044B8007C33C0E7E668002F08DBA368DE60B360E2
:1044C8000123A21851680B435360A6E73400B7E7ED
:1044D80041610161002EF3DA7E498A4242D8D2084E
:1044E800FF399610FF39B1404668D2003143416028
:1044F80010188268E060A2608460D460012299107C
:104508008A4072494868824200D997E0104205D132
:104518000324A343520004331042FBD09C46D80026
:1045280008180290029CE468029EB44258D13400F4
:10453800083402940124A444644603263442F1D189
:104548000324234274D14B6893434B60486852005C
:10455800824273D8002A71D063461042DED10433F8
:104568005200FAE7560A042E16D891093831CF00BE
:104578003E1803270296BC46B668029FB74227D169
:10458800012289108A4041680A434260029AA66063
:10459800E2609460F460B1E7142E02D831005B3118
:1045A800E5E7542E02D8110B6E31E0E7AA21490045
:1045B8008E4202D8D10B7731D9E7454F7E21BE42D2
:1045C800D5D8910C7C31D2E7B6680299B14204D0B3
:1045D8006046716881438A42F6D3F2680292D5E751
:1045E80003266768B74303977E1B0F2E11DD012250
:1045F800631915436560E068A5680831E8603243CF
:104608008560CB608B60D96099605A603B00E6504A
:1046180003E7E768002E09DB0122039BE3185968CA
:104628000A435A60A368DF60BB60F6E63C007BE79C
:1046380008388468013BA04282D087E703238F684B
:104648007A689A430292954203D8521B0F2A00DDDA
:104658009FE0029BFB1803931F4B1E681F4B1036ED
:104668001B687619013305D01D4B013B9E191C4B65
:104678005B421E403100019800F0B6F80400431C6C
:104688005FD0039B834202D9104B9F4259D1154BEF
:104698001A68B1181960124B5A1E039BA34227D1FE
:1046A800134225D1029A094B921901269B68164399
:1046B8005E600C4B0C4A1B6811688B4200D9136072
:1046C8000A4A11688B423CD913603AE0080100207D
:1046D80054050000FF0100004806002010050020D6
:1046E8008000000018060020400600204406002034
:1046F8002D4B1868013032D11C600720204002D0B1
:104708000823181A2418294BA61918181640861BAE
:104718003100019800F068F8431C01D12000002600
:10472800234A001B13689B1913600123214A861929
:104738001E43946066609742BBD0029A0F2A14D831
:10474800636003221B4B9B685B6893435A1B9D4223
:1047580001D80F2A1DDC019800F03EF835E6039BCE
:10476800E31A5B1812490B60C7E70722029E0C3E4A
:1047780096437A681340052233437B60BB195A601D
:104788009A600F2E95D939000198083100F09AF8EF
:104798008FE701231800074928438C6813436519DC
:1047A80060608D606B6038E61005002080000000B6
:1047B800180600200801002003008218934200D147
:1047C800704719700133F9E710B5024800F02EF967
:1047D80010BDC046340E002010B5024800F027F97D
:1047E80010BDC046340E0020002370B5064C0500ED
:1047F80008002360FCF7DAFF431C03D12368002B71
:1048080000D02B6070BDC0463C0E0020031C0A7807
:1048180001311A700133002AF9D17047F7B5254FD5
:104828000C000500FFF7D0FF38000322224E113894
:10483800B368001B5B6839009343C0180193FBF70A
:1048480077FC441E7C43BC4204DA2800FFF7C4FF0F
:104858000020FEBD00212800FFF7C6FFB368019ABB
:104868009B189842F1D161422800FFF7BDFF431C15
:1048780010D100212800FFF7B7FFB268811A0F296D
:10488800E3DD0E4B1B68C01A0D4B186001230B4368
:104898005360DAE7B2680126019B28001B1B3343EB
:1048A8005360074B1A68141B1C60FFF795FF300014
:1048B800CFE7C04680000000080100201005002056
:1048C80018060020F7B50D1E01902DD0FFF77CFFCC
:1048D800012329009C4608394F6862463B0066461A
:1048E8009343C8184568023295434A4A3740966848
:1048F800B0421AD15B19002F06D10868091A8D68D1
:104908001B18C868E86085600120184348609160FA
:10491800414A1268934204D3404B01981968FFF743
:104928007DFF0198FFF758FFF7BD00264560B742A5
:1049380009D10F683A4CC91BDB198F68A7422BD0E5
:10494800CC68FC60A76047197C6801273C420BD102
:104958005B198568002E21D1314CA5421ED13E003D
:1049680051611161CD608D60012005001D434D60CE
:10497800CB50002ED5D12B4DAB4213D8DB089D1060
:10498800A8405468DB00204350609A189368CA60B6
:104998008B609160D960C4E76646D4E7C068E86078
:1049A8008560E1E75D0A042D12D898093830C60001
:1049B800B618B5680327AE4225D10123801083407D
:1049C800506803435360CE608D60B160E960A8E72A
:1049D800142D02D828005B30E9E7542D02D8180BB3
:1049E8006E30E4E7AA204000854202D8D80B773021
:1049F800DDE70D4E7E20B542D9D8980C7C30D6E73D
:104A0800AD68AE4203D06A68BA439342F8D3EE6801
:104A1800D9E7C046080100201405002048060020F8
:104A280010010020FF010000540500007047704786
:104A3800F8B5C046F8BC08BC9E467047F8B5C046F5
:084A4800F8BC08BC9E46704753
:104A500053544D333247303730204661744673200B
:104A60002D20494E4943204F4B0A0D0053544D33DE
:104A700032473037302046617446732050726F637E
:104A8000657373537461747573204572726F722EFF
:104A90002E2E0A0D0053544D333247303730204606
:104AA00061744673202D2050726F63657373537465
:104AB00061747573204F4B2E2E2E0A0D00000000DE
:104AC00000000000000000000000000000000000E6
:104AD00000000000000000000000000000000000D6
:104AE00001000000020000000300000004000000BC
:104AF0000600000007000000080000000900000098
:104B000000000000000000000000000000000000A5
:104B1000010000000200000003000000040000008B
:104B200000040208001010100410101002101010E1
:104B300008000000DD410008FD41000805420008B2
:084B400075420008294200083B
:044B4800E100000880
:044B4C00B9000008A4
:104B5000E80300000024F40001000000040000004D
:104B6000010000001800002000000000000000000C
:104B70000000000000000000000000000000000035
:104B80000000000000000000000000000000000025
:104B90000000000000000000000000000000000015
:104BA0000000000000000000000000000000000005
:104BB00000000000000000000000000000000000F5
:104BC00000000000000000000000000000000000E5
:104BD00000000000000000000000000000000000D5
:104BE00000000000000000000000000000000000C5
:104BF00000000000000000000000000000000000B5
:104C000000000000000000000000000000000000A4
:104C10000000000000000000000000000000000094
:104C20000000000000000000000000000000000084
:104C30000000000000000000000000000000000074
:104C40000000000000000000000000000000000064
:104C50000000000000000000000000000000000054
:104C60000801002008010020100100201001002090
:104C70001801002018010020200100202001002040
:104C800028010020280100203001002030010020F0
:104C900038010020380100204001002040010020A0
:104CA0004801002048010020500100205001002050
:104CB0005801002058010020600100206001002000
:104CC00068010020680100207001002070010020B0
:104CD0007801002078010020800100208001002060
:104CE0008801002088010020900100209001002010
:104CF0009801002098010020A0010020A0010020C0
:104D0000A8010020A8010020B0010020B00100206F
:104D1000B8010020B8010020C0010020C00100201F
:104D2000C8010020C8010020D0010020D0010020CF
:104D3000D8010020D8010020E0010020E00100207F
:104D4000E8010020E8010020F0010020F00100202F
:104D5000F8010020F80100200002002000020020DD
:104D6000080200200802002010020020100200208B
:104D7000180200201802002020020020200200203B
:104D800028020020280200203002002030020020EB
:104D9000380200203802002040020020400200209B
:104DA000480200204802002050020020500200204B
:104DB00058020020580200206002002060020020FB
:104DC00068020020680200207002002070020020AB
:104DD000780200207802002080020020800200205B
:104DE000880200208802002090020020900200200B
:104DF0009802002098020020A0020020A0020020BB
:104E0000A8020020A8020020B0020020B00200206A
:104E1000B8020020B8020020C0020020C00200201A
:104E2000C8020020C8020020D0020020D0020020CA
:104E3000D8020020D8020020E0020020E00200207A
:104E4000E8020020E8020020F0020020F00200202A
:104E5000F8020020F80200200003002000030020D8
:104E60000803002008030020100300201003002086
:104E70001803002018030020200300202003002036
:104E800028030020280300203003002030030020E6
:104E90003803002038030020400300204003002096
:104EA0004803002048030020500300205003002046
:104EB00058030020580300206003002060030020F6
:104EC00068030020680300207003002070030020A6
:104ED0007803002078030020800300208003002056
:104EE0008803002088030020900300209003002006
:104EF0009803002098030020A0030020A0030020B6
:104F0000A8030020A8030020B0030020B003002065
:104F1000B8030020B8030020C0030020C003002015
:104F2000C8030020C8030020D0030020D0030020C5
:104F3000D8030020D8030020E0030020E003002075
:104F4000E8030020E8030020F0030020F003002025
:104F5000F8030020F80300200004002000040020D3
:104F60000804002008040020100400201004002081
:104F70001804002018040020200400202004002031
:104F800028040020280400203004002030040020E1
:104F90003804002038040020400400204004002091
:104FA0004804002048040020500400205004002041
:104FB00058040020580400206004002060040020F1
:104FC00068040020680400207004002070040020A1
:104FD0007804002078040020800400208004002051
:104FE0008804002088040020900400209004002001
:104FF0009804002098040020A0040020A0040020B1
:10500000A8040020A8040020B0040020B004002060
:10501000B8040020B8040020C0040020C004002010
:10502000C8040020C8040020D0040020D0040020C0
:10503000D8040020D8040020E0040020E004002070
:10504000E8040020E8040020F0040020F004002020
:10505000F8040020F80400200005002000050020CE
:08506000FFFFFFFF000002004A
:04000005080042E9C4
:00000001FF
