:020000040800F2
:10000000009000208DD60008FD1E0008051F000886
:1000100000000000000000000000000000000000E0
:10002000000000000000000000000000071F0008A2
:100030000000000000000000091F00080B1F00085E
:10004000DDD6000800000000DDD60008DDD600087F
:10005000DDD60008DDD60008DDD60008DDD60008B4
:1000600000000000DDD60008DDD60008DDD600085F
:10007000DDD60008DDD60008DDD60008000000004F
:10008000DDD600080D1F0008DDD60008DDD600080B
:10009000DDD60008DDD60008DDD60008DDD6000874
:1000A000DDD60008DDD60008DDD60008DDD6000864
:0800B000DDD60008DDD60008D2
:1000B80010B5064C2378002B07D1054B002B02D036
:1000C800044800E000BF0123237010BD5405002040
:1000D80000000000F0DD0008044B10B5002B03D031
:1000E8000349044800E000BF10BDC04600000000FE
:1000F80058050020F0DD000802780B78002A03D0AC
:10010800013001319A42F7D0D01A70470023C25CFF
:100118000133002AFBD1581E7047000002B4714613
:1001280049084900095C49008E4402BC7047C04632
:1001380003B47146490840004900095E49008E44ED
:1001480003BC704703B47146490840004900095A86
:1001580049008E4403BC7047002243088B4274D385
:1001680003098B425FD3030A8B4244D3030B8B42B0
:1001780028D3030C8B420DD3FF22090212BA030CB9
:100188008B4202D31212090265D0030B8B4219D39A
:1001980000E0090AC30B8B4201D3CB03C01A5241BA
:1001A800830B8B4201D38B03C01A5241430B8B4202
:1001B80001D34B03C01A5241030B8B4201D30B03EB
:1001C800C01A5241C30A8B4201D3CB02C01A524112
:1001D800830A8B4201D38B02C01A5241430A8B42D5
:1001E80001D34B02C01A5241030A8B4201D30B02BE
:1001F800C01A5241CDD2C3098B4201D3CB01C01AD8
:10020800524183098B4201D38B01C01A52414309E1
:100218008B4201D34B01C01A524103098B4201D3CF
:100228000B01C01A5241C3088B4201D3CB00C01A3C
:10023800524183088B4201D38B00C01A52414308B4
:100248008B4201D34B00C01A5241411A00D20146D9
:10025800524110467047FFE701B5002000F0F0F862
:1002680002BDC0460029F7D076E7704703460B4326
:100278007FD4002243088B4274D303098B425FD397
:10028800030A8B4244D3030B8B4228D3030C8B42C3
:100298000DD3FF22090212BA030C8B4202D31212A9
:1002A800090265D0030B8B4219D300E0090AC30B7E
:1002B8008B4201D3CB03C01A5241830B8B4201D32B
:1002C8008B03C01A5241430B8B4201D34B03C01A14
:1002D8005241030B8B4201D30B03C01A5241C30A8C
:1002E8008B4201D3CB02C01A5241830A8B4201D3FD
:1002F8008B02C01A5241430A8B4201D34B02C01AE7
:100308005241030A8B4201D30B02C01A5241CDD28B
:10031800C3098B4201D3CB01C01A524183098B42D6
:1003280001D38B01C01A524143098B4201D34B01BF
:10033800C01A524103098B4201D30B01C01A524122
:10034800C3088B4201D3CB00C01A524183088B42A9
:1003580001D38B00C01A524143088B4201D34B0092
:10036800C01A5241411A00D2014652411046704704
:100378005DE0CA0F00D04942031000D34042534009
:1003880000229C4603098B422DD3030A8B4212D3C9
:10039800FC22890112BA030A8B420CD389019211FB
:1003A8008B4208D3890192118B4204D389013AD038
:1003B800921100E08909C3098B4201D3CB01C01A0D
:1003C800524183098B4201D38B01C01A5241430920
:1003D8008B4201D34B01C01A524103098B4201D30E
:1003E8000B01C01A5241C3088B4201D3CB00C01A7B
:1003F800524183088B4201D38B00C01A5241D9D293
:1004080043088B4201D34B00C01A5241411A00D213
:100418000146634652415B10104601D34042002B0F
:1004280000D54942704763465B1000D3404201B58E
:10043800002000F005F802BD0029F8D016E7704743
:100448007047C04607B56B46D91D012308705B424B
:100458000122024803F0F1F807BDC0460C4800200D
:1004680010B5040000221021034802F04DFA2000C4
:10047800FFF7E8FF10BDC046000C005010B504009F
:1004880001221021034802F03FFA2000FFF7DAFFAB
:1004980010BDC046000C005010B500220221040017
:1004A800134802F031FA3620FFF7DAFF114AA0208C
:1004B800114B022C0ED08021032C10D0012C12D10C
:1004C80010801980FFF7DAFF01220221084802F0A4
:1004D8001BFA10BD1080802260201A80F2E7188075
:1004E8001180C020EEE7188011800020EAE7C0469E
:1004F800000C0050AC450020AE45002010B5444C1F
:1005080001222000022102F0FFF90122200011003F
:1005180002F0FAF9052001F02DFE00220121200049
:1005280002F0F2F9052001F025FE01222000110059
:1005380002F0EAF9052001F01DFE00220221200048
:1005480002F0E2F91120FFF78BFF192001F012FEEB
:10055800B120FFF785FF01221021200002F0D4F915
:100568000520FFF76FFF3C20FFF76CFF3C20FFF7EB
:1005780069FFB220FFF774FF01221021200002F06A
:10058800C3F90520FFF75EFF3C20FFF75BFF3C2027
:10059800FFF758FFB320FFF763FF01221021200067
:1005A80002F0B2F90520FFF74DFF3C20FFF74AFFA4
:1005B8003C20FFF747FF0520FFF744FF3C20FFF7EB
:1005C80041FF3C20FFF73EFFB420FFF749FF03201F
:1005D800FFF754FF3A20FFF743FF0520FFF74EFFD0
:1005E8002020FFF73DFF1320FFF73AFF2620FFF7F3
:1005F80037FF0120FFF742FF2920FFF731FF0122D3
:100608000221200002F080F90220FFF745FF10BD0B
:10061800000C0050F7B5060015000C00174F2A20F3
:100628000193FFF71DFF01221021380002F06CF939
:10063800300AFFF707FFF0B2FFF704FF280AFFF7B9
:1006480001FFE8B2FFF7FEFE2B20FFF709FF0122AA
:100658001021380002F058F9200AFFF7F3FEE0B243
:10066800FFF7F0FE019B180AFFF7ECFE6B461879BE
:10067800FFF7E8FE2C20FFF7F3FEF7BD000C005053
:10068800F7B5030A00220221C5B21548019302F00A
:100698003BF90021134E144F33883A88013B013A45
:1006A80008009BB292B2FFF7B5FF012210210C4857
:1006B80002F02AF900243A88338853439C4205DB28
:1006C80001220221064802F01FF9F7BD0198FFF741
:1006D800B9FE01342800FFF7B5FEA4B2EBE7C04627
:1006E800000C0050AE450020AC450020F0B50C00D1
:1006F800160004228B5E0021625E05009B1A06210B
:10070800625E0220215E0133521A0132534385B0E2
:100718009BB2002202212948019302F0F5F82A2011
:10072800FFF79EFE01221021244802F0EDF86078C0
:10073800FFF788FE2078FFF785FE6079FFF782FED5
:100748002079FFF77FFE2B20FFF78AFE0122102178
:100758001A4802F0D9F8E078FFF774FEA078FFF79E
:1007680071FEE079FFF76EFEA079FFF76BFE2C2093
:10077800FFF776FE012701221021104802F0C4F885
:1007880000247F42019AA3B29A4209DC0122022185
:100798000A4802F0B9F828000BF010FD05B0F0BDCA
:1007A8006300F35A03A91A0A0A704B7002223B002D
:1007B800034802F042FF0134E4E7C046000C005051
:1007C8000C48002010B5FFF791FF10BD072907D886
:1007D800602343430348C018002341188B728B7071
:1007E8007047C046C8450020F8B5060000250A4CE9
:1007F8000027A67467702770E7746761F9B228004C
:100808000137FFF7E3FF082FF8D10135EDB2603467
:10081800062DEDD1F8BDC046C8450020F8B56023C7
:10082800002443430A4D0E005C55E91801230700D4
:100838005A404C704A61E1B238000134FFF7C6FFF4
:10084800082CF8D160235F43ED19EE74F8BDC0465B
:10085800C845002010B5002304280BD8FFF75EFC1C
:10086800030C0E1012000121084802F047F8434219
:100878004341DBB2180010BD0221F5E70421F3E77C
:100888000821F1E720210248EFE7C04600040050A4
:10089800000C00500C4B07211A0030B5803212783A
:1008A800541C0C40190081310D780021A54209D053
:1008B80012019A18455C555401311029FAD1803338
:1008C8001C700F39080030BD70050020F0B585B0E8
:1008D8000400FFF7BFFF602262433E4EB318587012
:1008E800955D0122D97C11421DD0010011400FD025
:1008F80010236A4613700523547068469370FFF7F7
:10090800C9FF60235C4333195B78335505B0F0BDEC
:100918001542F6D02000FFF781FF10236A461370B6
:1009280054700623E9E7454015421ED09A720240EA
:1009380008D15969002902D05A619A7202E09A785E
:1009480001329A70602565437519AA78022A13D96D
:100958006A46102313700423684693705470FFF797
:1009680099FF0023AB70AB72CBE79A7A511EC9B2DC
:10097800FD29E7D80132E0E7AB7A032BC1D901277B
:10098800384216D11023022A0ED16A461370032367
:10099800547093706846FFF77DFF6023002263431D
:1009A800F3189A709A72ACE76A461370547097708D
:1009B800F0E70A2BA5D96A4610231370022368466C
:1009C80093705470FFF766FF00236F61AB70AB72D2
:1009D80097E7C046C845002010B500242000013420
:1009E800E4B2FFF773FF062CF8D110BD30B50D4CFB
:1009F800230022008133803211781D7800228D4235
:100A08000DD0197809016118895C81540132102AC6
:100A1800F7D107211A7801320A401A700122100012
:100A280030BDC04670050020034B002219008033FA
:100A380081310A701A707047700500201FB568462A
:100A4800FFF7D4FF05B000BD10B5FFF7F7FF10BDE5
:100A5800CB680020136070478B69002013607047D3
:100A680009207047092070470023F0B50D001400D5
:100A780010262F2787B013706946280005F039FD26
:100A880000281ED16B461B7A334215D009236B44CC
:100A980019002770601C0DF095F80B492000FFF72E
:100AA8002BFB0028E8D009492000FFF725FB002888
:100AB800E2D0002007B0F0BD09236B4419002000E4
:100AC800E9E70C20F6E7C0462EDE000831DE000814
:100AD800080010B5110005F0B3FC031E00D00C236C
:100AE800180010BD10B5080005F0EFFC002010BD7F
:100AF80010B50C00080005F02AFB200005F01CFDCD
:100B0800002010BD080010B5110005F067FD031E98
:100B180000D00C23180010BD10B50800110005F016
:100B280070FB002010BD10B5080011001A00029BD0
:100B380005F03CFA031E00D00C23180010BD10B5B8
:100B4800080011001A00029B05F07AF9031E00D074
:100B58000C23180010BD10B5080005F03FFB00205D
:100B680010BD70B50D0011001222012B06D0113AEC
:100B7800022B03D00022032B00D11332280005F0EA
:100B88005BF804000C20002C04D12100280005F09B
:100B980038FB200070BD000010B592B001AC2000F9
:100BA8000BF027FD8C239B006380EB3BFF3B2370FE
:100BB800114B2000E360114B2361114BA361114BD2
:100BC800E361114B2362114B6362114B6363114B59
:100BD800E362114B6361114B2363114BA362302312
:100BE800A380104B2364104BA363104BE3630BF0FB
:100BF80007FD12B010BDC0466B0B00085F0B000864
:100C0800470B00082F0B0008210B0008610A000899
:100C18006D0A0008590A0008690A00080D0B000847
:100C2800F90A0008ED0A0008D90A0008710A000844
:100C380070B5102698B0342200210BA80CF097FF4D
:100C48003200002168460CF092FF1C22002104A803
:100C58000CF08DFF8020800001F004FF18211B4A52
:100C68000225D36D00248B43D36505230B93A02362
:100C7800DB020C9301230D935B19139380239B02D2
:100C8800169380230BA89B05179312951494159619
:100C980001F012FF0723009380232900DB01684637
:100CA80003930195029402F06DF9094B04A804938B
:100CB80080235B000A9306940794099402F064FA6F
:100CC80002F03CFA02F044FA18B070BD001002407D
:100CD80042400200F0B597B00CAD01F025FAFFF7DD
:100CE800A7FF00F049FB1422002128000CF03FFF69
:100CF80004212026FD4BFE485A6BFE4F0A435A63D7
:100D08005A6B00240A400092009A5A6B0339324306
:100D18005A635A6B32400192019A5A6B0A435A63DA
:100D28005A6B0A400292029A5A6B01310A435A637B
:100D38005A6B0A400392039A5A6B06310A435A6364
:100D48005B6B00220B400493F731049B01F0DCFD40
:100D5800A02031000022C00501F0D6FD3900012293
:100D6800E54801F0D1FD8021A0200122C900C0057D
:100D780001F0CAFD80239B010C9301232900DC4864
:100D88006C60AB6001F09CFCFF2329000C93D848F1
:100D9800FE3B6B60AC60EC6001F092FC8423A02009
:100DA800DB000C9301232900C0056B60AC60EC608C
:100DB80001F086FC0F2329000C93D0480E3B6C6091
:100DC800AB6001F07DFC80235B010C93CC4B2900C8
:100DD8006B600123C948AB6001F072FCC023A020FE
:100DE8009B002900C0056C60AC600C9301F068FCA6
:100DF80001232900C0486B60AC60EC600C9701F0DF
:100E08005FFC01232900BC486C60AB600C9601F0C4
:100E180057FC30232900B9480C936C60AC6001F092
:100E28004FFC0C22210028000CF0A1FEB54EB64B59
:100E38008027336080239B03336104237361033B62
:100E4800B3760223F361731CDC7733002C331C70F8
:100E580007237363013BB3633300FF053C33300062
:100E68007760B460F460347674767462B462346324
:100E78001C70F46401F094F90123290030006C60BF
:100E8800AC600C9301F0C4FAA04B29000C93042326
:100E980030006B6001F0BCFA9D4E9E4B3000336011
:100EA8009D4BB460736001233461F3607461B46175
:100EB800F461346201F036FD2100300001F088FD54
:100EC8002100300001F0AAFD9448954B846003602E
:100ED8007F23C3608033036144618461C461076216
:100EE800446202F063FA8F488F4BE0270360822345
:100EF80080265B004360FC3BC361013BFF00B600FA
:100F0800C36201338460C76004614461866104621E
:100F1800446284620463436302F01AFB8348844B8F
:100F28008460036082235B004360FC3BC361013B38
:100F3800C36201334363C76004614461866104622C
:100F480044628462046302F003FB2100102208A8B3
:100F58000CF00DFE21000C2205A80CF008FE1C2246
:100F6800210028000CF003FE724F734B38003B60E1
:100F780001237B60714BBC60FB603C61BC6102F08B
:100F8800ADFF802308A95B013800089303F096F9A8
:100F9800380002F0BEFF05A938000594079403F055
:100FA80063FA60232200290038000C936C60AC605F
:100FB8002C6103F025F829000422380003F020F8FA
:100FC800380000F0E3FE2100102228000CF0CFFDCD
:100FD8005B4E5C4B300033607460B460F460346125
:100FE800B46102F07BFF300002F0AEFF0123220063
:100FF800290030006B60AC60EC600C9403F0B4F82E
:10100800514E524B30003360E1235B0273600C2376
:10101800B4607361F4603461B461F4613462746221
:10102800B46203F08BFD2100300003F017FE2100AD
:10103800300003F035FE300003F0F2FD4448454B24
:1010480084600360E1235B0243600C23C460436156
:1010580004618461C46104624462846203F06EFDC9
:1010680003F042FE2100380003F0CCF904213800D7
:1010780003F0C8F93B68314A5A639A63FFF73EFAAE
:101088002000FFF7FDFA642000F0D8F8FFF7CCFC49
:101098000120FFF7A9FBC8232F4F22002F49DB00AF
:1010A80038000AF0E7FF05F0CDFC28000AF0C6FF7B
:1010B800A0232B80203B6B80294B2800EB606F60BE
:1010C8000AF0E6FF03F024FE264B1860FFF764FDE4
:1010D800254D264928000CF075FD2800FFF716F865
:1010E800234B82B22900300044E0C0460010024081
:1010F800000800505F020000000C0050000400507F
:1011080000001110F04900200024014002000004F2
:10111800FC48002000540040380F3000584A002096
:1011280000280040904A0020003001400C48002070
:1011380000380040B049002000040040FF0F0000C4
:10114800804B002000200040F44A0020004400406A
:101158007048002000480040E0120020FC050020F4
:10116800CD070008F40500207C12002035DE0008B9
:10117800FFFF000003F042FC2100200005F0C8FF3B
:101188001A4D1B4E1B493060280006F0E1FD1F2355
:10119800AA7819499A43AA706A880A406A802A7903
:1011A800EC709A432A71AB880B40AB806C712900B4
:1011B800306806F084F9210030680CF0B7F90F4C5C
:1011C8000F4920600CF016F92068042105F06FFC27
:1011D800A024306805F0D1FAE405FFF735FC20219A
:1011E800200001F097FB0BF067FDF6E700130020E5
:1011F800F8050020385300201FF8FFFFFC120020DC
:1012080051DE000870B503680A4C0500A34201D1FD
:1012180000F09EFF2B68A34205D1074A13680133EB
:10122800272B01D8136070BD00231360FFF7D4FB90
:10123800F9E7C046001000403C130020642808D895
:1012480028235843034B80B21880034B1B6858630C
:1012580098637047544A0020B049002010B508240C
:10126800FF2000F0EAFEFF2803D1013CE4B2002C85
:10127800F6D110BDF0B587B004000CA80578402061
:10128800014302A80170110E4170110C81700271A6
:10129800110A01221343C1704371002000F0BCFE03
:1012A800062204A902A800F0C4FE052D4AD8280089
:1012B800FEF734FF03142C354835FFF7CFFF07003E
:1012C800FF200500060001906B46207120001B7965
:1012D80027706670A570E37007B0F0BDFFF7BEFF1A
:1012E8000700FF2000F0A9FE0600012000F094FE90
:1012F800012000F03FFF002000F08EFEFF2000F0EC
:101308009CFEFF28FAD101900500DDE7FFF7A6FF54
:101318000700FF2000F091FE0600FF20F3E7FFF72B
:101328009DFF0700FF2000F088FE0600FF2000F068
:1013380084FE0500FF2000F080FE0190FF2000F0F1
:101348007CFEC1E7FF200190050006000700BBE70F
:1013580010B5084CFF2000F070FE013CA4B2FE2836
:1013680003D0002CF6D1022010BD6042604140003D
:10137800FAE7C046FFFF0000F0B589B000F06CFE48
:1013880001220F255B4B1A7002ABED1800232B705E
:1013980000212B7806AC0133DBB22B700A009523B1
:1013A80000912000FFF766FF0120277800F034FE47
:1013B800FF2000F042FE2B78632B03D9012528007B
:1013C80009B0F0BD012FE3D10523D52200935200C7
:1013D800823308212000FFF74DFF2578380000F000
:1013E8001BFEFF2000F029FE6B0723D5FF260025F2
:1013F80033002A00372120000095FFF73BFF380013
:1014080000F00AFE300000F018FE2A0029213300FF
:1014180020000095FFF72EFF23783800039300F093
:10142800FBFD300000F009FE039B012BDFD0324B9F
:101438001D80C4E7012DC1D1FF2700263B003200E3
:10144800372100962000FFF715FF280000F0E4FD83
:10145800380000F0F2FD802200963B00D2052921D9
:101468002000FFF707FF2678280000F0D5FD380098
:1014780000F0E3FD012EE0D0FF25730717D4032306
:10148800002200933A21FC332000FFF7F3FE257871
:10149800012000F0C1FDFF2000F0CFFD002D00D09D
:1014A8008CE76378144A5B06DB0F138087E7002616
:1014B8002B003200372120000096FFF7DBFE27784B
:1014C800012000F0A9FD280000F0B7FD012F00D091
:1014D80074E7320000962B0029212000FFF7CAFE8E
:1014E8002678380000F098FD280000F0A6FD012EAF
:1014F800DDD0C4E740130020421300200022F0B5DD
:101508008BB004ADFF230400009209212800FFF7E7
:10151800B1FE2B78002B30D001230393012000F07B
:101528007BFDFF2000F089FD002204ADFF2300921F
:101538000A212800FFF79EFE2B78002B00D12BE113
:101548000126012000F068FDFF2000F076FD039BD6
:101558001E43CA4BF0B21B88012B00D07BE18023CD
:101568009B00E3636363A3681B019B0A0133DB04ED
:1015780023635B0AA3630BB0F0BDFFF7E9FE03909A
:101588000028C9D10600FF2000F057FD06AD7055B0
:101598000136102EF7D1FF2000F04FFDFF2000F09C
:1015A8004CFD01202B789A009B09134323706B781C
:1015B8006370AB78A370EB78E3706A792B791109C3
:1015C8001B011943A38812011B0B1B030B43A380A8
:1015D8001B051B0F13436371AB79A179DA098143AA
:1015E8009F1107400A43022187408A433A43042750
:1015F800591101408900BA430A4308211F11384094
:101608008A43C0000243A2719C4A1188EA790029E2
:1016180000D0A7E0981003310840217A0D3EB1436D
:1016280001432172297A90008A0902439B021343DD
:10163800934822891B0502409B0C134307222381F0
:10164800A37AC81010409343034311403820B14097
:1016580083430B43A3726B7AE17A5F099E1091432F
:1016680016403943F60081433143E17206215B009D
:101678000B40A97AD1400B43217B91430B43237341
:10168800012006AEB37A7E279D118340227C054057
:1016980082432A437F25F17A3B40CF093B4383406D
:1016A80029400F00024013432374637C317BAB4312
:1016B800CA093B43D2012B401343032263744B11E5
:1016C80013409C466746A37C93433B431C2719322F
:1016D800BB430A401A43A2740C22737B8900114051
:1016E8009A0911438C460F226746E17C914339439E
:1016F80010275A110240B94312010A43E2741F220B
:10170800217D134091430B432021B27B8B43D709A2
:101718007F013B434027911101408901BB430B43A3
:101728005711FF012B40617D3B4323758143131102
:10173800034008000327034306209110394049005D
:1017480083430B433A401821BA408B431A436275CE
:10175800F27BA37D5108AB430B43D2011D401543D7
:10176800A575DBE63C213F209B000B4091090B430C
:10177800217A120481430B4323722B89A1685BBA37
:101788009BB21A433F4B920212090B401A43A260C4
:10179800120EB243E27273E7FFF7DAFD061E00D0BD
:1017A800CEE60700FF2000F048FC06AD785501376B
:1017B800102FF7D1FF2000F040FCFF2000F03DFC87
:1017C8002B78210023766B7828311B026383638B87
:1017D800AA7813436383EB781B06E3612B79E269EC
:1017E8001B041343E3616B79E2691B021343E36152
:1017F800E269AB791343E361EA79631CDA772A7A01
:10180800A31CDA776B7A1B066362AB7A626A1B04E5
:1018180013436362EB7A626A1B0213436362626A70
:101828002B7B134363626B7B0A78180902430A70A7
:10183800F0221B02120113406385AA7B638D1343B8
:1018480022006385EB7B2C325B0813702300012296
:101858002D331A7075E62389227B9B0452071B0DD2
:10186800520F023201339340802201219200E26339
:101878006279120991409340616379E6421300202E
:1018880003C0FFFF3F0000F0F0B587B003920023CC
:10189800802204AD00939200FF3307000C0028005B
:1018A8001021FFF7E7FC2E78012000F0B5FBFF20A0
:1018B80000F0C3FB002E02D00025012614E0802092
:1018C80080000BF033FF051EF6D08022FF21920026
:1018D8000CF04DF9244B1B88012B01D080239B0071
:1018E8005C43039B002B0DD1012000F095FBFF20EA
:1018F80000F0A3FB002D02D028000BF021FF3000E0
:1019080007B0F0BD0023220000931121FF3304A883
:10191800FFF7B0FC02AB1B7A002BCED1FFF718FD06
:101928000028CAD1802239009200280000F081FBEB
:101938000D4B1B88012B13D10134FF2000F07DFBD8
:10194800FF2000F07AFB012000F066FBFF2000F08A
:1019580074FB039B013B039380239B00FF18C0E7A4
:1019680080239B00E418E8E742130020F0B587B015
:1019780003920023802204AD00939200FF330700F6
:101988000C0028001021FFF775FC2D78012000F0CD
:1019980043FBFF2000F051FB002D09D00125012059
:1019A80000F03AFBFF2000F048FB280007B0F0BD2C
:1019B800802080000BF0BAFE061EEFD0304B1B884B
:1019C800012B01D080239B005C430297039B002BD3
:1019D80003D130000BF0B4FEE1E7002304AF00931D
:1019E8002200FF3318213800FFF744FC3B78002B16
:1019F80044D1FF2000F021FBFF2000F01EFBFE2059
:101A080000F01BFB802231009200029800F011FBCD
:101A18001B4B1B88012B2DD10134FF2000F00DFB3F
:101A2800FF2000F00AFBFF2000F007FB0700FF2063
:101A380000F003FB1F231F40052F1FD1012000F0DA
:101A4800EBFA002000F0E8FAFF2000F0F6FA0700B1
:101A5800FF28F9D1012000F0DFFA380000F0EDFA94
:101A6800802292009446039B013B0393029B6344AC
:101A78000293ABE780239B00E418CEE70125A8E793
:101A8800421300201FB5022302AC00220D2100934F
:101A98002000FD33FFF7EEFB012000F0BDFAFF2028
:101AA80000F0CBFA23780120002B03D16078431E85
:101AB8009841C0B204B010BD01200A4B82B0196C25
:101AC8000143196480211A6C490502400092009A6A
:101AD800DA6B0A43DA63DB6B0B400193019B02B0BC
:101AE8007047C0460010024010B5040088B01422A8
:101AF800002103A80CF03BF80F4B22689A4219D139
:101B080080200E4B4003196C0143196401211A6CA3
:101B180002400192019A5A6BA0200A435A635B6BF8
:101B2800C0050B400293029B032303A9039304936C
:101B380000F0C6FD08B010BD0024014000100240AE
:101B480010B5040088B01422002103A80CF00FF887
:101B5800124B22689A421ED10221114C1148626B25
:101B68000A436263636B0B400193019B90239B00C4
:101B7800039312230493113B059303A90533079399
:101B880000F09EFD8021E26B89030A43E263E36B68
:101B98000B400293029B08B010BDC04600540040A1
:101BA80000100240000400500A4B026882B09A42BA
:101BB8000ED18022084B1202D96D0A438021DA65C2
:101BC800DA6BC9000A43DA63DB6B0B400193019BB4
:101BD80002B07047002800400010024010B5040011
:101BE8008AB01422002105A80BF0C1FF2368294AF6
:101BF800934232D18020284B4001196C02240143C2
:101C080019641A6C024008200092009A596B01432B
:101C180059635A6B02400192019A0122596B1F487D
:101C2800114359635B6B05A913400293029B802300
:101C38005B0005930694099200F042FDC0235B0106
:101C48000593A0200023069407930893099305A9F8
:101C5800C00500F035FD0AB010BD114A9342FAD113
:101C680080200D4BC001D96B0143D963DA6B024068
:101C78000392039A0222596B0A48114359635B6B1A
:101C880005A913400493049BE0231B0205930692C5
:101C9800DFE7C0460030014000100240000C005051
:101CA80000380040000400500368104A10B5934201
:101CB80010D10F4A0F49136C0F480B408021136451
:101CC800490000F0A5FDC021A0204901C00500F091
:101CD8009FFD10BD094A9342FBD1054A0849D36BC1
:101CE80008480B40E021D3630902F0E700300140C7
:101CF80000100240FFEFFFFF000C005000380040CA
:101D0800FFBFFFFF0004005010B5040088B0142284
:101D1800002103A80BF02BFF2368184A93420AD12D
:101D28000220174AD16B0143D163D36B0340009360
:101D3800009B08B010BD134A9342FAD18020104B83
:101D48000002196C0143196404211A6C02400192C3
:101D5800019A5A6B0C480A435A635B6B01220B4089
:101D68000293029B80235B010393022303A904933C
:101D78000592079300F0A4FCDBE7C046000400408E
:101D880000100240002000400008005010B5040078
:101D980086B01422002101A80BF0E9FE0C4B226842
:101DA8009A4212D101230B4AA020516BC005194356
:101DB8005163526B01A91A400092009AC022019205
:101DC800BE3A0292059300F07BFC06B010BDC046F7
:101DD800000400400010024010B504008AB014222C
:101DE800002105A80BF0C3FE23681F4A93421DD1AA
:101DF80080201E4B8002D96B0143D963DA6B024005
:101E08000192019A0122596BA020114359635B6B1F
:101E180005A913400293029B0C2305930A3B0693E2
:101E28000992C00500F04CFC0AB010BD104A93425C
:101E3800FAD180200D4BC002D96B0143D963DA6B0C
:101E480002400392039A0222596B0A4811435963CC
:101E58005B6B05A913400493049BC0231B010593E6
:101E6800042306920993DDE7004400400010024075
:101E7800004800400004005010B5010086B0002260
:101E8800112000F0E1FB112000F00EFC1020144A94
:101E9800D16B0143D163D36B69460340019302A818
:101EA800019B01F031F901F01BF90E4C0E4B0F4963
:101EB80023600F4B4000E360FEF74EF90023013822
:101EC800606020002361A36002F008F8030001208D
:101ED800002B02D1200001F0EBFE06B010BDC04679
:101EE80000100240C04B00200010004040420F008C
:101EF800E703000010B501F035F910BDFEE77047A3
:101F08007047704710B5024801F0ECFE10BDC0469E
:101F1800C04B0020F0B5304C89B0200001F08EFD98
:101F2800061E56D12D4B012723600823E361063B8B
:101F380023610533E362E023DB00E36080239B0039
:101F48000100A060A06220632062A3616062FC3B84
:101F58006063142203A8676163600BF008FE08221F
:101F68001F4D03A96B6B1F4813436B636B6B1340C7
:101F78000093009B6B6B3B436B636B6B05973B401C
:101F88000193019B80235B000393FE3B0493DB19C1
:101F98000693079700F094FB8027A02002237F0177
:101FA80003A9C00503970593079600F089FB8023D2
:101FB800A0201B01C00503A9039300F081FB2B6C33
:101FC80020003B432B642B6C1F400297029B01F0BF
:101FD800BFFA09B0F0BDC0464413002000300140EC
:101FE80000100240000C005013B51300084A094CB9
:101FF800126800920A000100200001F0EDFB0028A1
:1020080004D0200001F002FBFFF784FF13BDC04697
:10201800000000204413002010B50200012806D15A
:102028008021A020C900C00500F06EFC10BD002270
:10203800F6E710B5FFF7D8FF10BD1FB50F246B46A4
:102048006C44D8710733180001222100FFF7CCFF38
:10205800207804B010BD000030B5012489B01422E6
:10206800002103A80BF083FD02218025A0201B4B33
:10207800ED005A6BC00522435A635A6B2240019205
:10208800019A5A6B0A435A635B6B22000B40029316
:102098002900029B00F038FC22002100104800F0C3
:1020A80033FCA020032303A9C005069304940594D8
:1020B800039500F005FBA02003A9C005039400F0D8
:1020C800FFFAFFF727FF0934013CFF20E4B2FFF7CE
:1020D800B4FF002CF8D109B030BDC0460010024052
:1020E800000400500A4B10B519680200002901D1FC
:1020F800084919606946186882188A4206D90BF09F
:10210800EBFA0C2303600120404210BD1A60FCE783
:10211800A8130020F05300208022024B12059A6079
:102128007047C04600ED00E08023084A5B00116854
:1021380010B50B4313600020FFF79EFE041E03D169
:10214800FFF7BAFC200010BD0124FBE70020024085
:10215800034A0449136809685B1813607047C0464E
:10216800004C002008000020014B18687047C0464A
:10217800004C002070B50400FFF7F6FF0500631C53
:1021880002D0044B1B68E418FFF7EEFF401B8442A3
:10219800FAD870BD0800002080684007C00F70475B
:1021A8000023F0B585B0040003930125984200D1BF
:1021B8009AE0856D9D4205D1FFF796FC23005433C4
:1021C800E5651D70802326685B05B2681A4200D158
:1021D800D0E0B3680025DB0000D4D8E03000FFF77A
:1021E800DBFF1023A66D1E4000D0BEE0002800D003
:1021F800BBE0A36D7C4A1A4002231343A3652368FE
:102208009A68D20700D4CBE0276B217E781E8741DD
:10221800627E3803D20389030190E0681143A27EED
:1022280001432069944652031143002866DA4700A7
:102238007F0822002C32127852000A4301990A437F
:1022480017430197621CD27F012A07D161460029F2
:1022580057D180223900520211430191626A002A43
:1022680007D0E02149000A40A16A0A4301991143B5
:102278000191616C226C0A43A16C0A43E16C0A4328
:1022880021003C310978012900D10A43D968574F08
:102298003940019F3943D9601969554F39400A437C
:1022A800072170271A615A698A43616B0A435A6188
:1022B8005A69A16BBA4309010A435A6100282AD115
:1022C8001022996A52420A439A624A4ADB681340CA
:1022D800019A9A423DD100230322E365A36D9343FB
:1022E8001A0001231343A365280005B0F0BD039B22
:1022F800013B0393039B002BF9D16AE78027BF03B7
:1023080097E7A16D8C46202167463943A165E16DA9
:102318000A43E265A2E7802292039042D5D10F20BA
:10232800216E0F00B200D7403A0002400F2A0DD0AC
:102338000136082EF5D130489A6AE26912181C2035
:10234800920002402C3890400200BCE7012EB7D022
:10235800F1E71222A36D012593431A0010231343BA
:10236800A365E36D2B43E365BEE7A26D0125134327
:10237800A365B9E7B26821490A401343B360204B0B
:1023880020491868FDF7E8FE40000390B2E71023E3
:102398000125A26D1343A365E36D2B43E3651DE798
:1023A8001821DA688A43A1680A43DA6061681A6901
:1023B800880F920080079208024380201A614A0021
:1023C8005208C005824200D11EE7802212069142BF
:1023D80000D119E70C480D4F02683A40F027BF03B7
:1023E80039400A4302600FE7FDFEFFFF1902FEFFB6
:1023F80002FCFFDFE7FF3F83FFFFFF3FE8FFFF6FC0
:1024080004000020400D030008270140FFFFC3FF20
:102418000023F0B589B00793030054331A780500F8
:102428000F000224012A00D1C1E0012600681E70B5
:10243800FFF7B2FE0390002800D0EFE004228021CD
:102448007B689446019301982B6909063A68A04273
:1024580000D1B6E0604683438B4213D12968530309
:10246800886A5B0B03438B622868BB686E494469C2
:102478001940614013020B4063404361002A65DB49
:10248800002491E01F21019B0B4002930F23029827
:102498008340DB43049304982B6E03400593500359
:1024A8001300002815D1900E08400299884005991C
:1024B8000843019928668908E86901318142D3D81F
:1024C800029C29689B001B0F886AA340049C20403B
:1024D800C8E703983242E8D130002242E5D161468C
:1024E80020000A42E1D103201107DED46046D1065C
:1024F800DBD405209106D8D401305106D5D401305B
:102508001106D2D40130D105CFD401309105CCD4F5
:1025180001305105C9D401301105C6D40130D104A8
:10252800C3D401309104C0D401305104BDD401306A
:102538001104BAD40130D103B7D401309103B4D413
:102548008020C0021040B0D01220AEE7E021374B07
:1025580037481C6849042140824217D18020000472
:1025680004428DD11A68334C22400A4302431A6050
:10257800314B32491868FDF7EFFD0790079B002B98
:1025880000D17DE7079B013B0793F7E72C48824280
:1025980010D180204004044000D071E71A68254E0D
:1025A80032400A4302431A60002354352B7020003E
:1025B80009B0F0BD2348824200D061E78020C00303
:1025C800E9E7604683438B4205D128685103836A53
:1025D800490B8B438362002A00DB51E7134B1449F4
:1025E80018688A4208D1A0221C6852041149024086
:1025F80021400A431A6043E711498A4203D1C022A5
:102608001C681204F2E70F498A4200D038E7C0225A
:1026180052041968024007480140EAE72023AA6DDE
:1026280034001343AB65BFE700FFFF0708270140ED
:10263800001000B0FFFF3FFE04000020400D030023
:10264800004000B8002000B470B58901002812DBF2
:102658008308134A03249B009B18FF222040A040B4
:102668001400C025844011408140AD005E59A64346
:102678003143595170BD03240F23C0B20340204099
:10268800A040FC342500214085408140083B054A94
:102698009B089B009B18DA69AA431143D961E9E7B3
:1026A80000E100E000ED00E0002805DB1F231840F2
:1026B8001E3B8340014A13607047C04600E100E0BA
:1026C800F0B50B6885B0029300230191029ADA40B5
:1026D80001D105B0F0BD01229A4003920399029AF4
:1026E8000A40009200D185E0019A10215268160034
:1026F8008E43022E0ED107251D40AD000139A94099
:10270800DC08A4000419276A8F4301990969A940C4
:102718000F43276203245F00BC40E4430568013E81
:102728002540AC4603251540BD4061460D43056074
:10273800012E0FD801998668CD682640BD403543E3
:1027480085604668039915098E4301210D409D4017
:1027580035434560C56801992C408D688021BD408E
:1027680049052C43C4600A4244D003260F24224959
:102778009D081E40AD00F6006D18B440A0212F6ED4
:10278800C905A743002488420CD01C49013488425B
:1027980008D01B490134884204D01A4903348842BE
:1027A80000D1023CB44000993C430E002C66164C04
:1027B800CD43E76F3E43D10301D43E002E40E66788
:1027C800124E009FF46F2743910301D42C40270039
:1027D800094CF7672768009E3E43D10201D43E00AA
:1027E8002E4026606668009F3743920201D42E402F
:1027F80037006760013369E70018024000040050A1
:1028080000080050000C005004180240081802404C
:10281800F0B50023032785B00291029ADA4001D16E
:1028280005B0F0BD01229A4002990092114056D09D
:102838002C4C9A081D00920012190F243D40ED00FF
:10284800AC40166E019426400396A0260024F60597
:10285800B0420FD0244CA446012460450AD0234C32
:10286800A4460224604505D0214CA4463C0060459E
:1028780000D00524AC40039DA54213D1C9431D4E89
:10288800184CF56F0D40F5671B4EF56F0D40F56759
:1028980025680D402560656829406160116E019CBE
:1028A800A14311663C0059008C4002682100224374
:1028B80007240F261C40A400A640C9430260DA087A
:1028C80092008218156A009CB543156282680A4016
:1028D80082604268A2434260C2681140C16001330D
:1028E8009BE7C04600180240000400500008005052
:1028F800000C005004180240081802400069084003
:10290800411E8841C0B27047002A01D081617047DA
:102918008162FCE74369194201D081627047816195
:10292800FCE7000070B504000120002C3FD0250012
:1029380041352B78DBB2002B05D1220040321370D1
:102948002000FFF7FDF8242301212B702368E0689D
:102958001A68A6688A431A6061681A4A0A401A61A6
:102968009968194A11409960012821D180210902EA
:10297800314399605868154901435960D968002066
:102988000A40DA60616922690A43A16909020A43B7
:10299800DA60216AE2690A431A60012219680A4367
:1029A8001A60202360642B7020634234207070BD4D
:1029B80084210902314399600228DBD18021090171
:1029C8005960D7E7FFFFFFF0FF7FFFFF008000029D
:1029D800F0B50400413422780300D2B20220202A44
:1029E80018D11D0040352E78012E13D01B682230D7
:1029F80020701E68233886431E601E68064F3E40BE
:102A08001E601E6831431960196808431860002069
:102A180022702870F0BDC046FFEFFFFFF0B505003B
:102A280041352A780300D2B20220202A17D11C008F
:102A380040342678012E12D01B68223028701E6878
:102A4800233886431E601E68054F09023E40314305
:102A5800196019680843186000202A702070F0BDBA
:102A6800FFF0FFFF10B5104C1049236802000B401F
:102A780003432360802300209B009A420CD10C4B17
:102A88000C49186806235843FDF766FB8022431C4F
:102A9800D2006069104000D110BD002B01D0013B6D
:102AA800F7E70320F8E7C04600700040FFF9FFFF92
:102AB8000400002040420F00F0B5040085B0002853
:102AC80002D1012005B0F0BD0368DB0710D42368EC
:102AD8009B075CD423681B0700D5C2E023685B070B
:102AE80000D5F4E0E269002A00D073E10020E9E7AC
:102AF8003822AC4DAB681340EA68102B09D1D24399
:102B0800930708D12B689B03E1D56368002BDED1BE
:102B1800D7E7082BF6D0802263685202934211D17E
:102B28002A6813432B60FFF71FFB80260700B602B5
:102B38002B683342CBD1FFF717FBC01B6428F7D9AA
:102B48000320BFE7A021C9028B4208D1802329684E
:102B5800DB020B432B602B681A432A60E3E72A68E1
:102B680091490A402A602A6890490A402A60002B45
:102B7800D9D1FFF7F9FA80260700B6022B6833424D
:102B8800A5D0FFF7F1FAC01B6428F7D9D8E7382396
:102B9800844DAA681340EA68102B29D103210A4002
:102BA800022A27D12A68520503D5E268002A00D1F3
:102BB80087E7696862697E48120201400A436A60D1
:102BC800002B0DD12B687B4A1340226913432B60DD
:102BD8002B68794A9B045B0FDA401300774A13602D
:102BE800774B1868FFF748F9002800D172E768E7C3
:102BF800002BD7D0E368002B20D02B686D4A8026A5
:102C080013402269F60013432B6080232A685B0077
:102C180013432B60FFF7A8FA07002B68334207D04D
:102C28006A68636962491B020A4013436B6051E793
:102C3800FFF79AFAC01B0228EFD981E72B68614A8F
:102C4800802613402B60FFF78FFA0700F6002B68E9
:102C5800334200D13EE7FFF787FAC01B0228F6D9B6
:102C68006EE738214F4B9A681D000A40182A08D190
:102C78001B6E9B0700D431E7A369002B00D02DE71A
:102C88001FE7A2690123002A10D02A6E02261343E7
:102C98002B66FFF769FA07002B6E334200D01DE759
:102CA800FFF762FAC01B0228F6D949E72A6E022606
:102CB8009A432A66FFF758FA07002B6E334200D171
:102CC8000CE7FFF751FAC01B0228F6D938E738217C
:102CD800344B9A681D000A40202A08D1DB6D9B07F7
:102CE80000D4FFE6A368002B00D0FBE6E9E68022CB
:102CF800DB6B5205134200D1EDE000238027324EF2
:102D0800009333687F003B4215D0A368012B22D182
:102D1800EA6D1343EB65FFF727FA02270600EB6D10
:102D28003B4238D0009B012B00D0DBE6EB6B274AF7
:102D38001340EB63D6E633683B433360FFF714FA7E
:102D4800019033683B42E0D1FFF70EFA019BC01AAD
:102D58000228F6D9F4E6EA6D052B05D1013B1343A9
:102D6800EB65EA6D0123D4E701218A43EA65EA6D40
:102D780003318A43EA65002BCDD1FFF7F5F9022725
:102D88000600EB6D3B42CDD0FFF7EEF9104B801BF0
:102D98009842F6D9D4E6FFF7E7F90D4B801B984225
:102DA800BDD9CDE600100240FFFFFEFFFFFFFBFF8D
:102DB800FF80FFFFFFC7FFFF0024F400040000208E
:102DC8000C000020FFFEFFFF00700040FFFFFFEF38
:102DD800881300003820444B99681D0001401029D1
:102DE80052D01B6841490B402B60022A35D1FFF7AE
:102DF800BBF980260700B6042B68334227D1616AE5
:102E0800236AEA680B433A490A401343E26A1343C8
:102E1800226B1343A26A802412021343EB608023BF
:102E28002A685B0413432B608023EA685B0513431D
:102E3800EB60FFF799F90600A4042B68234200D041
:102E480054E6FFF791F9801B0228F6D978E6FFF7D8
:102E58008BF9C01B0228CFD972E60322EB688024C5
:102E68009343EB60EB68234AA4041340EB60FFF73D
:102E78007BF906002B68234200D137E6FFF774F987
:102E8800801B0228F6D95BE6012A00D119E6D8682A
:102E98000323226A0340934200D012E67023626A39
:102EA8000340934200D00CE6FE22A36AD2010240FE
:102EB8001B029A4200D004E6F823E26A9B0303400F
:102EC800934200D0FDE5236B400F4007C01A431E14
:102ED8009841C0B2F6E5EB6B1343EB63EB6B134021
:102EE8000393039B012309E700100240FFFFFFFE45
:102EF8008C80C11FFFFFFEEF38231F4A70B5916811
:102F08001400194208D1012113681C489B045B0F67
:102F18009940FDF721F970BD91681940082925D01D
:102F280091681940102915D1D368D168DB437F22F5
:102F3800E5684906490F2D0A013115409B0707D15D
:102F48000F48FDF709F9E1686843490F0131E0E7E7
:102F58000A48F6E791681940202909D092680020AC
:102F68001340182BD7D1FA20C001D4E70448D2E780
:102F780080200002CFE7C046001002400024F40081
:102F880000127A00F7B505000E00002801D10120D3
:102F9800FEBD07274A4C23683B408B422AD3296849
:102FA8008B073BD4CB0748D4072723683B409E4276
:102FB8000AD22368BB4333432360FFF7D5F8019057
:102FC80023683B409E426BD12B683E4C5B076FD415
:102FD800FFF792FFA3683C4A1B051B0F9B009B58F9
:102FE8001F221340D840394B1860394B1868FEF738
:102FF80043FFCDE72368BB430B432360FFF7B4F8D7
:10300800019023683B409E42C9D0FFF7ADF8019B71
:10301800C01A304B9842F4D90320B9E7294A4B0724
:1030280004D5E0239068DB010343936093682A4842
:103038000340A86803439360B4E76A68214F012AF4
:1030480019D13B689B03A2D50721BB688B43134367
:10305800BB60FFF789F801903823BA681A406B689B
:10306800DB009A42A0D0FFF77FF8019BC01A194BEA
:103078009842F1D9D0E7022A03D13B689B01E3D4F7
:1030880085E7002A03D13B685B05DDD47FE702238F
:10309800032A03D1396E1942D6D178E7F96DFAE7D8
:1030A800FFF762F8019BC01A0A4B984288D9B3E728
:1030B800A3680A4A1340EA681343A36088E7C04636
:1030C800002002400010024060DE000804000020DA
:1030D8000C00002088130000FFF0FFFFFF8FFFFFA8
:1030E800064B074A9B685B045B0F9B009B581F229B
:1030F8001340044A1068D8407047C0460010024088
:10310800A0DE000804000020072230B5F025094B96
:1031180002609C682D01144044609C682C408460C7
:10312800E0249B68E4012340C360034B1B68134001
:103138000B6030BD00100240002002408023034A8B
:103148001B0311680B4313607047C0460010024010
:103158002023024AD16D0B43D3657047001002400B
:1031680070477047C023074A10B5D4699B002340B5
:103178001362E30501D5FFF7F3FFA30501D5FFF7B8
:10318800F0FF10BD00100240F0B505002B6885B0B7
:1031980000209B034FD580224B4C5205E36B0090D7
:1031A800134208D1E36B1343E363E36B13400393C8
:1031B800039B012300938027444E7F0033683B43E1
:1031C8003360FEF7D1FF019033683B4225D0C0231E
:1031D800E26D9B0013400FD0AA6993420CD0E26DB8
:1031E8003B4BE16D1340802252020A43E265E26DD7
:1031F80038490A40E265E365DB0706D5FEF7B4FF08
:1032080002270600E36D3B4257D0E36D304A0020A9
:103218001340AA691343E36506E0FEF7A5FF019B87
:10322800C01A0228D0D90320009B012B03D1E36BDD
:10323800294A1340E3632A68D30706D503242249A1
:103248004B6DA3436C6823434B65930706D50C2449
:103258001D494B6DA343AC6823434B65530606D504
:1032680019491E4C4B6D2340EC6823434B655304AE
:103278000FD515496C694B6D9B009B0823434B6523
:103288008023DB059C4204D18023CC685B02234366
:10329800CB6013050FD50C49114C4B6D2A6923409F
:1032A80013434B658023DB019A4204D18023CA680B
:1032B8005B021343CB6005B0F0BDFEF755FF094B29
:1032C800801B98429ED9AEE7001002400070004073
:1032D800FFFCFFFFFFFFFEFFFFFFFFEFFFCFFFFF3A
:1032E800FF3FFFFF88130000A0210268F8B5D368EC
:1032F80004008B43D360FEF737FFFA27060020252A
:10330800BF002368DB682B4201D00020F8BDFEF720
:103318002BFF801BB842F4D90320F7E7F8B5402704
:1033280003680500DA6800243A420CD18022D96883
:103338000A43DA60FEF718FF06002B68DB683B4299
:1033480001D1032C01D12000F8BDFEF70DFFFA23AF
:10335800801B9B009842F0D92B00032429331C7052
:10336800EBE70000802270B50F4C0500E36893433B
:10337800E360A369603A134207D1FFF7B5FF00285D
:1033880002D003202935287070BDA3699343A36137
:10339800FFF7AAFF002802D0032029352870202330
:1033A800A2691343A361EFE70028004070B5040049
:1033B8000120002C47D0250029352B78DBB2002BC3
:1033C80008D122002832137088231B026360200072
:1033D800FEF7EAFB0223CA222B70236820005A62F8
:1033E800773A5A62FFF79AFF002825D123681649D1
:1033F8009A6960690A409A61A26899690243E0691A
:1034080002430A439A61226920001A61E268196935
:1034180012040A431A61FFF7A5FF00280CD122689D
:10342800266A9369DB00DB089361636A9169334319
:10343800A66933430B439361FF2223685A6200282D
:1034480001D101232B7070BDBFFF8FFBE021036802
:1034580010B55A688A435A608222416852009142E4
:103468000CD18021826809028A4203D08021C900D8
:103478008A4203D140211A688A431A608021826AED
:1034880089018A4206D11968074C214019601968D8
:103498000A431A60030001225D331A7000235C306E
:1034A8000370032010BDC046FFDFFFFFF8B504001E
:1034B8000D001700802623689868304009D06A1CE0
:1034C800FAD0FEF751FEC01B8542F4D82000FFF762
:1034D800BDFFF8BDF7B5C02705000C001600019325
:1034E800FF002B68986820400DD0BC4200D11A7BA1
:1034F800721CF7D0FEF738FE019BC01A8642F0D83E
:103508002800FFF7A3FFFEBD70B513000D001600DD
:103518000A00C02149010400FFF7DCFF002805D09C
:103528002023226E0320134323660FE03200290074
:103538002000FFF7BBFF0028F2D1C02133002A008A
:10354800C9002000FFF7C6FF0028E9D170BD0000C0
:10355800F8B504000120002C4BD000232500A362FD
:103568005D352B78DBB2002B05D122005C3213705D
:103578002000FEF733FB0223402221682B700B68E2
:10358800002093430B60E023E268DB009A4231D9C4
:10359800F0263601B24233D10600206B002803D151
:1035A8009A422FD902232363A7686368A0693B4323
:1035B80027693B4367693B43E7693B43276A3B43CA
:1035C800A76A3B438027BF0007403B430B60636A01
:1035D800000C1A43636B1A43042318401043064334
:1035E8004E60CB69084A00201340CB610123206656
:1035F8002B70F8BD802676019A42CED0A062CCE727
:103608000600FBE70123CEE7FFF7FFFF70B50400D4
:103618000120002C10D025000223402122685D35AE
:103628002B70136820008B431360FEF73DFB0020CE
:103638005C3460602870207070BDF0B587B001936D
:1036480003005C3303931B7804000D001700022667
:10365800012B00D17CE00123039A1370FEF784FD4F
:10366800220002905D321378DBB2012B6AD11E0072
:10367800002D67D0002F65D0023313700023A21DE0
:1036880023662364A563A787E78702329387D387D6
:103698002365E3648023A2681B029A4205D1802334
:1036A8002268DB0111680B43136040222368196804
:1036B800114202D119680A431A60E021E068C90082
:1036C8006268884247D9002A01D0012F07D12A8889
:1036D8000235DA60E38FA563013B9BB2E3870225DD
:1036E800E38F002B16D1029A01992000FFF70CFFF7
:1036F800002800D06DE0A368002B06D1059323684D
:10370800DA6805929B680593059B266E731E9E4199
:10371800F6B217E0226893682B4209D0A36B198888
:103728000233D160A363E38F013B9BB2E387D7E702
:10373800FEF71AFD029BC01A019B9842D0D30133B1
:10374800CED0032601235D3423700023039A13701F
:10375800300007B0F0BD002A01D0012F0AD1E28F56
:10376800012A1CD92A880235DA60E38FA563023B57
:103778009BB2E3870225E38F002BB4D022689368BD
:103788002B421CD0E18FA36B012910D91988023371
:10379800D160A363E38F023B9BB2E387EBE72A7810
:1037A8001A73A36B0133A363E38F013BE0E71B7834
:1037B8001373A36B0133A363E38F013BECE7FEF7BD
:1037C800D3FC029BC01A019B8342D4D80133D2D0C8
:1037D800B7E7202323668EE7F7B51E0003000192A2
:1037E8005C331A7804000F000225012A00D1ACE0EE
:1037F80001221A70FEF7B8FC230000905D331B7895
:103808006168DBB2012B0BD082225200914200D0BA
:1038180094E0A268002A00D090E0042B00D08DE04C
:103828000125002F00D189E0019B002B00D185E004
:10383800002E00D182E023005D331A78042A01D0DB
:1038480005221A70019A0023226422000832236696
:10385800D687A21DD687E022E068E3642365A763C4
:10386800E687A687D2002368904201D8012E31D975
:103878005A68714D2A405A60402223681D681542D3
:1038880002D11D682A431A60E022D20090425ED914
:10389800002901D0012E07D13A880237DA60E38F78
:1038A800A763013B9BB2E387012502272E00E38F24
:1038B800002B14D123000833DB8F002B0FD1009A83
:1038C80008992000FFF720FE051E37D02023012588
:1038D800236633E080225D6852012A43CBE72268E1
:1038E80093683B420ED0E38F002B0BD0012D09D1FA
:1038F8000025A36B19880233D160A363E38F013BD2
:103908009BB2E387936833420ED021000831CB8FF6
:10391800002B09D03500236CD2681A800233236447
:10392800CB8F013B9BB2CB87FEF71EFC009BC01AD6
:10393800089B8342BBD80133B9D003252300012259
:103948005D331A7000235C3423702800FEBD002903
:1039580001D0012E0AD1E28F012A51D93A880237C3
:10396800DA60E38FA763023B9BB2E3870125022756
:103978002E00E38F002B05D123000833DB8F002BAB
:1039880000D19CE7226893683B4211D0E38F002B5B
:103998000ED0012D0CD1E18FA36B012938D91988DC
:1039A8000233D160A363E38F023B00259BB2E38718
:1039B80021688B68334219D023000833DA8F002A34
:1039C80014D0D88F226C01282AD9C86835001080F5
:1039D80002322264DA8F023A92B2DA87DB8F012B45
:1039E80004D880234A685B0113434B60FEF7BCFB95
:1039F800009BC01A089B8342BBD80133B9D09CE70F
:103A08003A781A73A36B0133A363E38F013BABE7E7
:103A18001B781373A36B0133A363E38F013BC4E7E4
:103A2800097B35001170226C01322264DA8F013A69
:103A380092B2DA87DAE7C046FFEFFFFF5D30007821
:103A4800C0B270470122036A70B593430362036AE8
:103A5800194A4468856915400A6815430222934348
:103A68008A681343154A904208D0154EB04205D0D3
:103A7800144EB04202D0144EB04216D10826B343B9
:103A8800CE6833430426B343904208D00C4A904290
:103A980005D00C4A904202D00B4A904205D10B4AFD
:103AA8008E6922404C69344314434A6844608561F6
:103AB8004263036270BDC0468CFFFEFF002C0140CC
:103AC800004001400044014000480140FFFCFFFF66
:103AD800036A184A70B513400362036A164D4268B8
:103AE800C4692C400D682C43144D2B408D682D0261
:103AF8002B43134DA8420ED1124D1D40CB681B021B
:103B08002B43114D2B40114D4E6915408A693243A4
:103B180012012A4308E00E4DA842F4D00D4DA842E8
:103B2800F1D00D4DA842EED042604A68C461C2632C
:103B3800036270BDFFFEFFFF8CFFFEFFFFFDFFFF6E
:103B4800002C0140FFF7FFFFFFFBFFFFFFCFFFFF48
:103B5800004001400044014000480140036A144A03
:103B680030B513400362026A124C4368C5692540A8
:103B78000C6824022543104C22408C6824032243FD
:103B88000E4CA04208D00E4CA04205D00D4CA042CD
:103B980002D00D4CA04204D10C4C23404C69A40126
:103BA800234343604B68C5610364026230BDC0466D
:103BB800FFEFFFFFFF8CFFFEFFDFFFFF002C014040
:103BC800004001400044014000480140FFBFFFFFA2
:103BD800036A134A70B513400362046A114E4368BE
:103BE800456D35400E6835430F4E34408E683604B7
:103BF80034430E4EB04208D00D4EB04205D00D4EA3
:103C0800B04202D00C4EB04203D113404A691202AE
:103C1800134343604B6845658365046270BDC046C5
:103C2800FFFFFEFF8FFFFEFFFFFFFDFF002C01409F
:103C3800004001400044014000480140036A144A22
:103C480030B513400362026A124C4368456D254043
:103C58000C6824022543104C22408C68240522431A
:103C68000E4CA04208D00E4CA04205D00D4CA042EC
:103C780002D00D4CA04204D10C4C23404C69A40244
:103C8800234343604B684565C365026230BDC04647
:103C9800FFFFEFFFFF8FFFFEFFFFDFFF002C01405C
:103CA800004001400044014000480140FFFFFBFF85
:103CB800012203680748D9681143D960996801400F
:103CC800062905D00738814202D019680A431A60CC
:103CD8000020704707000100704770477047704721
:103CE800704770470222036810B519690400114231
:103CF8000ED0D96811420BD0053A1A619B6904327B
:103D080002779B0700D186E0FFF7E9FF00232377BE
:103D1800042223681969114211D0D96811420ED0C2
:103D2800093A1A61073222779A69C0239B0020005A
:103D38001A4200D175E0FFF7D2FF0023237708224B
:103D48002368196911420ED0D96811420BD0113A73
:103D58001A61DB690D32227720009B0767D0FFF7D5
:103D6800BEFF00232377102223681969114210D05F
:103D7800D96811420DD0213A1A6119322277DA69CD
:103D8800C0239B0020001A4257D0FFF7A8FF00234A
:103D98002377012223681969114207D0D968114293
:103DA80004D0033A1A612000FDF72CFA8022236818
:103DB8001969114208D0D968114205D0023AFF3A70
:103DC8001A61200000F07BFB23681A69D20507D529
:103DD800DA68120604D51C4A20001A6100F070FB4C
:103DE800402223681969114207D0D968114204D0CA
:103DF800813A1A612000FFF774FF202223681969AD
:103E0800114207D0D968114204D0413A1A61200002
:103E180000F054FB10BDFFF761FF2000FFF760FFC3
:103E280074E7FFF75BFF2000FFF75AFF85E7FFF70E
:103E380055FF2000FFF754FF93E7FFF74FFF2000DF
:103E4800FFF74EFFA3E7C046FFFEFFFF1C4A10B571
:103E58000368904202D01B4CA04208D17024A343AF
:103E68004C68234390420ED0164CA0420BD0164CFF
:103E7800A04208D0154CA04205D0154CA04202D053
:103E8800144CA04203D1144C2340CC682343802413
:103E9800A3434C69234303608B68C3620B68836246
:103EA800904208D0094B984205D0094B984202D05D
:103EB800084B984201D10B6903630123436110BD8C
:103EC800002C014000040040002000400040014058
:103ED8000044014000480140FFFCFFFF70B50400AA
:103EE8000120002C14D025003D352B78DBB2002BA7
:103EF80005D122003C3213702000FDF705FF022394
:103F080020682B70211DFFF7A1FF012300202B70D3
:103F180070BD70B504000120002C14D025003D357B
:103F28002B78DBB2002B05D122003C321370200025
:103F3800FFF7D2FE022320682B70211DFFF786FFB2
:103F4800012300202B7070BD70B504000120002CE7
:103F580014D025003D352B78DBB2002B05D122008B
:103F68003C3213702000FFF7B8FE022320682B7044
:103F7800211DFFF76BFF012300202B7070BD00008F
:103F88001022036A70B593430362026A164D4368B0
:103F980084692C400D682D022C432025AA438D6886
:103FA8002D012A43114DA8420FD18025AA4315009F
:103FB800CA6812012A434025AA430D4D4E691D4087
:103FC8008B6933439B002B4308E00A4DA842F4D089
:103FD800094DA842F1D0094DA842EED043604B6884
:103FE80084618363026270BDFF8CFFFE002C014078
:103FF800FFF3FFFF0040014000440140004801403A
:10400800F7B5070002233C3716003A7804000D0084
:104018001800012A11D001223A7022003D32019283
:104028001370082E43D009D8002E1ED0042E2DD090
:1040380001230020019A13703870FEBD102E46D05F
:10404800142E55D00C2EF3D12068FFF787FD80225F
:1040580023681201D9690A43DA61DA692D490A40ED
:10406800DA612A69D96912022EE02068FFF7EAFCB2
:104078000822236899690A4304219A619A698A4344
:104088009A619A6929690A439A61D1E72068FFF71A
:1040980077FF80222368120199690A439A619A6915
:1040A8001C490A409A612A6999691202EBE720685B
:1040B800FFF70EFD04212368DA691643DE61DA6929
:1040C8008A43DA61DA6929690A43DA61B0E7206864
:1040D800FFF77EFD08222368596D0A4304215A65BB
:1040E8005A6D8A435A655A6D29690A435A659FE78A
:1040F8002068FFF7A3FD802223681201596D0A4347
:104108005A655A6D03490A405A652A69596D12025F
:10411800EBE7C046FFFBFFFFF0B50124056A0F4F30
:10412800A54305628669056AB84205D00C4FB842B6
:1041380002D00C4FB8420FD10324A643F0243243D7
:10414800A2431B010F342340F53CA54321402943DA
:104158001A4382610162F0BD2200EFE7002C0140A2
:104168000004004000400140F7B50D0001000223A3
:104178003C310E7804001800012E1AD0013808705E
:104188004B70002A16D1EB686A6829682068FFF727
:10419800C3FF0C2123689A698A439A619A69A968BE
:1041A8000A439A612300012200203D333C341A70EF
:1041B8002070FEBD2968236801916E68E868042AAA
:1041C8001ED110271A6A3049BA431A629F6936020B
:1041D8000F403E432D4F00073E40000C3043A026C1
:1041E80001991A6A0901B243314011439861196271
:1041F8009A6927490A409A61AA6899691202CFE721
:10420800AD68082A20D103211A6A224F00013A40DA
:104218001A62DF691A6A8F433E43F027BE430F379D
:10422800384006431C4801990240A02009020001B9
:1042380001401143DE6119620C21DA698A43DA61AF
:10424800DA691543DD61ADE71A6A144F0E493A4041
:104258001A62DF6936020F403E430C4F00073E40AA
:10426800000C1A6A30430E4E01993240A026090309
:10427800360231401143D8611962DA6904492D02C6
:104288000A40DA61DA69DCE7FFFCFFFFFF0FFFFF96
:10429800FFF3FFFFFFFEFFFFFFF5FFFFFFEFFFFF4D
:1042A800FF5FFFFF30B58468034D0A431B022C40B3
:1042B80013432343836030BDFF00FFFFF8B50500BB
:1042C80002233C352A7804001800012A16D026005B
:1042D800012720683D362F70337083683F4A1340AA
:1042E80083600B68402B63D014D8102B0BD006D8F2
:1042F800002B08D00123002033702870F8BD202B34
:1043080001D0302BF6D1364A816811400722134379
:104318000B4319E0602B34D018D8502BEAD14A68E7
:10432800CB68016A046A1B01BC43F02704628469F4
:10433800BC4323430A24A1430A438361026283687E
:10434800274A1A40572313438360D3E7702B0DD0B5
:10435800802292019342CDD1CB684A688968FFF7E1
:10436800A1FF80232268DB01916807E0CB684A68D7
:104378008968FFF797FF7723226891680B4393605A
:10438800B8E710244B68CA68016A164FA143016256
:10439800846912033C402243A024016A1B01A14303
:1043A8000B438261036283680D4A1A406723CAE798
:1043B8004A68CB68016A046A1B01BC43F02704629F
:1043C8008469BC4323430A24A1430A4383610262EC
:1043D8008368034A1A404723B5E7C0468800CEFFE2
:1043E8008FFFCFFFFF0FFFFF1F2310B501241940D8
:1043F8008C408A40036AA3430362036A1A43026239
:1044080010BD000010B5040001220068FFF7ECFFA2
:104418002368104A934216D00F4A934213D00F4A8A
:10442800934210D00E4A93420DD09A680D490A4023
:10443800062A06D007398A4203D0012219680A439E
:104448001A60002010BD8022596C12020A435A6477
:10445800EBE7C046002C0140004001400044014009
:10446800004801400700010070B5040002223C34F6
:10447800257803001000012D1AD01D003D352A7043
:104488000C4E1A6853689068B24203D10A4E334002
:104498004E6833437026B3430E68896833438026D9
:1044A800B043536001430123002091602B702070BA
:1044B80070BDC046002C0140FFFF0FFF70477047DA
:1044C8007047000070B5040002698368C16913432E
:1044D8004269656E134302680B4310682B439F4D76
:1044E80028400343136053689D48256A0340E068E9
:1044F80003435360A36990682B439A4D28400F25C6
:1045080003439360D06A636AA8431843D06296480D
:10451800824213D10320954A526D02409448805C30
:1045280080221202914200D1B7E1082817D8FBF780
:10453800F5FD8416BE16F2161616F5008D48824251
:1045480005D10C20894A526D02408B48E7E78B4B16
:104558009A4200D150E18A4B9A4200D14CE10120A5
:1045680091E1002B2FD0012B19D0022B19D0032B4E
:1045780019D0042B19D0052B19D0062B19D0072BCD
:1045880019D0082B19D0092B19D00A2B19D00B2BAD
:1045980019D17C48636861685B08181860E17A483B
:1045A800F8E77A48F6E77A48F4E77A48F2E77A488B
:1045B800F0E77A48EEE77A48ECE77A48EAE77A489B
:1045C800E8E77A48E6E77A48E4E7FEF795FC1AE177
:1045D800002B18D0012B19D0022B1AD0032B1BD07B
:1045E800042B1BD0052B1CD0062B1CD08020072B9E
:1045F8001BD0082B1BD0092B1BD00A2B1BD00B2B35
:1046080002D14000C6E780204002C3E780200002B4
:10461800C0E78020C001BDE76648BBE78020800175
:10462800B8E76548B6E76548B4E74001B2E7000176
:10463800B0E7C000AEE78000ACE7FEF751FD636A63
:104648000121002B21D04918012B1ED00231022B49
:104658001BD00231032B18D00231042B15D00231A4
:10466800052B12D00231062B0FD00431072B0CD0AA
:104678001031082B09D02031092B06D040310A2BE4
:1046880003D07F390B2B00D1FF316568FBF764FD40
:1046980029006B08C018FBF75FFD80B20300484A89
:1046A800103B934200D95AE72368D860EAE0002B10
:1046B8002FD0012B19D0022B19D0032B19D0042B82
:1046C80019D0052B19D0062B19D0072B19D0082B78
:1046D80019D0092B19D00A2B19D00B2B19D139480D
:1046E800636861685B081818D5E72848F8E729481F
:1046F800F6E72A48F4E72A48F2E73348F0E7334870
:10470800EEE72848ECE72848EAE72848E8E71D48A4
:10471800E6E71D48E4E7FEF7EFFB90E7002B18D02B
:10472800012B18D0022B53D0032B54D0042B54D078
:10473800052B55D0062B55D08020072B54D0082B9D
:1047480054D0092B54D00A2B54D00B2BC8D00002BC
:10475800C6E78020FBE78020C001C1E7F369FFCFEF
:10476800FFCFFFFFFFF4FF110038014000100240A7
:10477800C0DE000800440040C4DE000800480040D5
:10478800004C004048E801000024F40000127A00C0
:104798005461510000093D0000D43000AAB028003F
:1047A80080841E0040420F0020A1070090D0030023
:1047B8000048E801AA2A00009819000054150000D2
:1047C800EFFF000024F40000006A18005558140098
:1047D8008020800184E7384882E7802040017FE715
:1047E80036487DE736487BE7000179E7C00077E780
:1047F800800075E7400073E780231B02994200D0D0
:104808001BE7FEF76DFC636A0121002B21D04918D4
:10481800012B1ED00231022B1BD00231032B18D0E2
:104828000231042B15D00231052B12D00231062B90
:104838000FD00431072B0CD01031082B09D02031B0
:10484800092B06D040310A2B03D07F390B2B00D11E
:10485800FF31FBF781FC6568400029006B08C01830
:10486800FBF77AFC80B20300164A103B934200D94A
:1048780075E60F2302009A43130000072268400FD1
:104888001843D0600020220001236A321380023AC4
:1048980013800023E366236770BD082800D95EE60D
:1048A800FBF746FCAFFF5DFE5FFE5DFE93FE5DFE1F
:1048B8005DFE5DFE96FEC04655150000CC0C00005E
:1048C800AA0A0000EFFF0000836A30B5DA0706D5B0
:1048D8000168284C4A682240C46A22434A609A0701
:1048E80006D50168244C4A682240046B22434A607A
:1048F8005A0706D50168214C4A682240446B224376
:104908004A601A0706D501681D4C4A682240846B24
:1049180022434A60DA0606D501681A4C8A682240A2
:10492800C46B22438A609A0606D50168164C8A68C9
:104938002240046C22438A605A0610D50168134D40
:104948004A68446C2A4022434A60802252039442B7
:1049580005D14A680E4C2240846C22434A601B06EB
:1049680006D502680B4953680B40C16C0B43536072
:1049780030BDC046FFFFFDFFFFFFFEFFFFFFFBFF4F
:10498800FF7FFFFFFFEFFFFFFFDFFFFFFFFFEFFFEF
:10499800FFFF9FFFFFFFF7FFF8B504000E001500AB
:1049A8001F002268D36933409B1B59424B41AB42DD
:1049B80001D000201EE0069B0133F3D0FDF7D4FBA5
:1049C800069BC01B834201D3002BEAD1220008CAF0
:1049D80009481968014019609968A330FF3081437C
:1049E80099602023D36722000832D36700237C34E0
:1049F80023700230F8BDC0465FFEFFFFF0B5071D0B
:104A080087B00593FB6F04000D0016000220202BD1
:104A18004AD10138002947D0002A45D08023A2680E
:104A28005B019A4204D12369002B01D101423BD199
:104A380023007C331A780220012A35D001221A700B
:104A48000022DA602123FB67FDF78EFB2300543335
:104A58001E8002331E8003938023A26804905B01AA
:104A680000269A4204D12369B34201D12E001D00C9
:104A7800230056331A88059B92B20093049B002AA0
:104A88000AD140212000FFF787FF00280BD12023FF
:104A98007C34FB67207007E0002280212000FFF7AC
:104AA8007BFF002802D0032007B0F0BD2268002D4C
:104AB8000BD133880236DB05DB0D9362039B039A27
:104AC8001B88013B9BB21380D2E72B780135936298
:104AD800F4E70000030073B50026040088331E6065
:104AE800FDF742FB236805001B681B0717D42368E2
:104AF8001B685B070AD580210F4B00220093C9036E
:104B08002B002000FFF748FF002813D120230020A6
:104B1800221DD3677C340432D36720700BE08021D8
:104B2800054B32000093890303002000FFF734FF90
:104B38000028DCD0032076BDFFFFFF0170B5041EFE
:104B480001D1012070BD051DEB6F002B04D10200BF
:104B58007C321370FDF740F9242301212268EB67AA
:104B6800136820008B431360FFF7ACFC0128E8D0E2
:104B7800A36A002B02D02000FFF7A6FE236808498D
:104B88005A6820000A402A215A609A688A439A6023
:104B9800012219680A431A60FFF79CFFD2E7C04652
:104BA800FFB7FFFF0123F0B587B002AA1370537057
:104BB8009370032202A9CA7002250022072604ACBA
:104BC8008A71CA710E714B71A57004210700050026
:104BD800083222702271426E6170E1706371A371B4
:104BE800E3716A376835002A03D13B802B8007B010
:104BF800F0BD03689A689B6801925B0F02AAD05CBB
:104C0800E15CC000FBF732FB019B38805B0E1E4065
:104C180002AB985DA15DC000FBF728FB2880E6E7A2
:104C280070B504007C3422780223012A14D00126AE
:104C3800051D22332670EB6703681A681968B143AB
:104C48001960802189050A4341661A60FFF7AAFFA7
:104C58002023EB6700232370180070BDF8B505000A
:104C68007C352B7804000220012B17D024232268DE
:104C78000138261D2870F36717681368834313608B
:104C880093682000DB00DB0819439160FFF78AFF77
:104C9800236800201F602023F3672870F8BD0000F8
:104CA800F8B505007C352B7804000220012B17D0BD
:104CB80024230138261D2870F36723681F681A68A3
:104CC80082431A609A68074802401143996020009D
:104CD800FFF768FF236800201F602023F367287010
:104CE800F8BDC046FFFFFFF110B50649064801F0C0
:104CF80035FD002803D10122044B1A7010BD012094
:104D08004042FBE7044C0020D4DE0008AC1300202E
:104D1800002070470020704770B50125054C2570AC
:104D2800FCF7B0FE002802D12378AB43237020782B
:104D3800C0B270BD10000020012310B5054C2370CF
:104D4800FCF71AFB002802D1FFF7E6FF2070207855
:104D5800C0B210BD1000002010B5FFF7DDFF10BD78
:104D6800080010B511001A00054BFCF78DFD030073
:104D78000120002B03D1FCF785FE0028FBD110BDD4
:104D880000E1F50510B5114B14001A7890B0032016
:104D9800D30713D40130032910D80800FBF7BEF954
:104DA8000D0208106846FCF7A9FB0E9B236004E07F
:104DB8006846FCF7A3FB0F9B2380002010B010BDB2
:104DC8006846FCF79BFB0F9B5B0AEFE7100000208F
:104DD800080010B511001A00054BFCF7C7FD0300C9
:104DE8000120002B03D1FCF74DFE0028FBD110BD9C
:104DF80000E1F505054B10B51A1880001B18117A4B
:104E08005B6808005B68984710BDC046D81300204F
:104E1800084B0200195C002010B5814208D101211D
:104E28009954991892009B185B68087A1B689847F0
:104E380010BDC046D813002070B5054C2518800059
:104E480024182E7A606884683000A04770BDC04678
:104E5800D813002070B5054C2518800024182E7A28
:104E68006068C4683000A04770BDC046D8130020F1
:104E7800054B70B51C1880001B18257A5B68280044
:104E88001B69984770BDC046D8130020C378827844
:104E98001B02134342781B02134300781B0218437A
:104EA80070470B0A017043700B0C090E8370C170B8
:104EB80070478218017001309042FBD170470000A2
:104EC800F0B50024144A2300944601271568002DE4
:104ED80016D00668B54214D155688668B54210D117
:104EE80095684669B5420CD11020002913D11B01E1
:104EF800634498890138FF384242424110010AE070
:104F08003C0001331032022BE0D10020844202D150
:104F1800022900D01220F0BDB413002070B51F4C38
:104F28000023220005682668AE4209D16668B446A7
:104F38008668B44504D1A668B4464669B44521D00C
:104F480001331034022BEED11368002B04D0002457
:104F58001369A34214D101231C01155185684069C6
:104F68001419A06000206560A081814212D1190146
:104F780051188989013189B21801121891815C1C74
:104F8800200070BD0029F2D0002419015118898928
:104F9800A142F5D180214900EEE7C046B4130020B4
:104FA800431E10B50220012B0ED8084C1B01E21835
:104FB8009189074A0A4001D001398AB20020E118D4
:104FC8008A81824200D1E05010BDC046B41300204F
:104FD800FFFEFFFF42690239023A030000209142B6
:104FE80003D258894143986A08187047030010B5DE
:104FF8001B68C26A480A5989141DFBF7ADF80200FC
:105008002068002806D0824202D3121A0834F7E733
:105018006068101810BD0268131E03D101204042B9
:105028000EE001331978202909D93A29F9D1511C00
:105038008B42F3D11278302AF0D10133036000207B
:10504800704770B505000C00002803D10920002323
:10505800236070BD0368002BF8D01A78002AF5D0B9
:105068008188DA889142F1D15878FFF7C3FE01238D
:105078001840EBD12B68EBE7002310B5CC5CC45487
:1050880001339A42FAD110BDCA7E10B50400887E59
:1050980012021043032C05D14A7D0B7D12021343E3
:1050A8001B04184310BD130A8A76CB760378032BAA
:1050B80003D1120C0A75120A4A757047F8B5002315
:1050C800056A0C001A002E20E526511CAA5C202A2D
:1050D8000AD0052A00D13200092902D1E7187872CE
:1050E8000133E7187A7201330A000B29EDD1002247
:1050F8002800E3185A72EB7A1C302372FFF7C6FEB9
:10510800206028001630FFF7C1FEE080000CA08068
:10511800F8BDF8B50700C56A3037012304002A0036
:1051280040783900FFF796FE0123002806D1236A4C
:10513800A269E070EB1A934202D300231800F8BD6D
:10514800A678012EF9D9A3696078ED182A00012301
:105158003900FFF77FFE013EF3E7002310B5C27860
:105168009A4202D0FFF7D5FF0300180010BD0000D7
:10517800F8B50400FFF7F1FF061E45D12378032B8D
:105188003AD12779012F37D1250080223035010007
:1051980092002800FFF78DFE55221C4B4121E25456
:1051A8001B4B9218E2542200DE3BFF3B31322B703E
:1051B800137023006122323385201A7059707223CC
:1051C8008000235413482354134BE154134BE254E7
:1051D8000133E0182169FFF764FE87239B00E0187C
:1051E800E168FFF75EFEE36960785A1CE2623B0003
:1051F8002900FFF72FFE2671002260781100FFF7C3
:1052080037FE431E9841C0B2F8BDC0462E020000CA
:105218002F0200001502000016020000170200000D
:10522800C36A70B504000E0000258B4210D0FFF74A
:1052380094FF051E0CD12100607801233200303123
:10524800FFF7FAFD002802D0012601357642E66212
:10525800280070BD002310B5C370013BC362040071
:10526800FFF7DEFF0423002829D1164B164AE35C1A
:10527800A25C1B021A43154912B203238A421ED1AB
:10528800230030331B78E92B06D0236B104A1149D1
:105298001A4002238A4212D120006630FFF7F6FD39
:1052A8000D4A0002000A0023904208D020008230F4
:1052B800FFF7ECFD094BC318581E83415B0018002B
:1052C80010BDC0462F0200002E02000055AAFFFFA5
:1052D800FF00FF00EB00900046415400BABEABCC83
:1052E8000023F0B50B608BB00D001700FFF793FE9D
:1052F8000B23061E16DBA84B8200D4580C23002C67
:1053080010D02C6001252378AF43002B0DD0607896
:10531800FFF770FD054008D12B00002F02D042078F
:1053280000D50A2318000BB0F0BD0023F0B223709B
:105338006070FFF76DFD0323C207F3D4002F01D07F
:105348004307EED400212000FFF784FF022825D16F
:1053580026000025F736FF360020331F1B788342CE
:1053680002D03000FFF792FD06ABE8500435103646
:10537800102DF1D10025032606AB5F593000002F10
:1053880005D039002000FFF765FF01280ED9043544
:10539800102DF1D10123042805D1C3E701230428E6
:1053A800C0D0984201D90D23BCE7002723003C3325
:1053B8001A78013B1B781202134380221BB2920019
:1053C8009342F0D1230047331A78013B1B7812022D
:1053D800134300D1C8E00293029BA361230040332A
:1053E8001E78731EA670012BDDD823003D331D786F
:1053F800ABB26381002BD6D06B1E1D42D3D12300E4
:10540800220042331B78413212781B021A436B4642
:1054180001929B88238113001B07C4D123004433C6
:105428001878013B1B780002184303D12000503044
:10543800FFF72CFD230022003F331B783E32127801
:105448001B021A430492AED0029B73430593019B3F
:105458001B099B18059A9B1803939842A3D3C01A5B
:105468002900FAF779FE00289DD04C4B0326984274
:1054780004D84B4E8642B64176420136049B039AC5
:10548800851CFB18BA186561E7612362A262032EC6
:1054980070D123005B331A78013B1B781202134347
:1054A80000D080E7019B002B00D07CE720005C3017
:1054B800FFF7ECFCAD0060623A4BED18029B6D0AF9
:1054C800AB4200D26FE701235B422361E360813383
:1054D8002371032E34D1230061331A78013B1B78E2
:1054E80012021343012B2BD1791C2000FFF798FEE1
:1054F800002825D12C4B2071E25C2C4B1202E35C76
:1055080013432B4A1BB293421AD120003030FFF7C5
:10551800BDFC284B984213D185239B00E018FFF768
:10552800B5FC254B98420BD186239B00E018FFF76A
:10553800ADFC87239B002061E018FFF7A7FCE06023
:105548001E4A2670138801339BB213801C4AE380DD
:1055580013689C4201D100231360116900238C4217
:1055680000D0DFE61361DDE620005430FFF78EFC43
:10557800029031E7019A002A00D114E7059AD3185E
:105588006362022E01D16D0096E703200123684370
:105598001D40400845198FE7B0130020F5FF0000B3
:1055A800F50F0000FF0100002F0200002E0200008E
:1055B80055AAFFFF5252614172724161D413002013
:1055C800B4130020F0B5060085B00C0015000227C2
:1055D800012945D94369994242D203780093BB42D5
:1055E80048D0032B58D0012B3AD14B085B180193B4
:1055F800590A036AC918FFF713FE071E30D1330092
:1056080030330293019B029A01330393019BDB051C
:10561800DB0DD318009A1440EAB2002C08D00F21F1
:10562800FF201A7800010A40290101400A43D2B23A
:105638001A700123F370039B3000590A336AC918A2
:10564800FFF7EEFD071E0BD1039BDA05029BD20D77
:105658009A18002C07D02D09EDB215700123F370AC
:10566800380005B0F0BD0F2113782D0A8B430D408B
:105678001D43F2E7036A090AC918FFF7D1FD071E9F
:10568800EED1FF22330064005200303314401C195D
:1056980025702D0A6570E1E7036AC909C918FFF783
:1056A800BFFD071EDCD1FE2233005200A4003033B8
:1056B80014401C192000FFF7E9FB2901000F00071F
:1056C800090901432000FFF7ECFBC7E7F7B50126FE
:1056D80004000D00B14214D94369994211D20378EC
:1056E800022B2ED0032B3ED0B3420AD14F087F188D
:1056F800036A790AC918FFF793FD002803D0012629
:1057080076423000FEBD7B1CFF05590A0193FF0D50
:10571800236AE7193037C91820003F78FFF780FD62
:105728000028ECD1019BD805C00D2418303420780E
:1057380000020743354201D03E09E2E73F053E0D2E
:10574800DFE7036A090AC918FFF76AFD0028D6D1FE
:10575800FF30FF306D0005403034641966782078DA
:1057680036020643CDE7036AC909C918FFF758FD91
:105778000028C4D12000FE24AD006400303025404C
:105788004019FFF783FB06013609BAE7F7B50F1E84
:105798000190056807D1EE68002E02D06B699E4221
:1057A80011D301260FE02800FFF790FF040001281D
:1057B8003FD9431C03D1012464422000FEBD6B691C
:1057C8003E009842F9D334006B6901349C4204D3FB
:1057D800012E01D80024F0E70224019B210018685B
:1057E800FFF774FF002806D0012822D0431CE2D01E
:1057F800B442E9D1EEE70122210052422800FFF726
:10580800E1FE002813D1002F0AD16A692B69023AF8
:10581800EC6093420FD901232A7913432B71CCE70B
:10582800220039002800FFF7CDFE0028EDD001281E
:10583800C1D00124C1E7013B2B61ECE7F8B50D00AD
:1058480007001100012D01D80220F8BD0468636922
:105858009D42F9D2002A06D0012220005242FFF7C9
:10586800B1FE0028F1D129003868FFF72FFF061E86
:1058780001D10020E9E70128E6D0431C15D0002219
:1058880029002000FFF79EFE0028DED16269236907
:10589800911E8B4205D201210133236123790B43E9
:1058A800237135009642DED3E3E70120CDE70023DC
:1058B80070B585680600046843619D4214D1237859
:1058C800022B02D9636A002B0FD12389002B01D147
:1058D800022070BD636AF361F369B561002BF7D0EC
:1058E800303434620020F4E72B0062891D00002A5E
:1058F8000CD129003068FFF7E9FE0500431C0BD0E6
:105908000128E5D963699842F3D3E1E7190020003B
:10591800FFF760FBF061DFE70120DAE7C369F7B55D
:1059280005000F000420002B18D06A69203200926D
:105938000099354A914211D8CA05D20D2C680192B6
:105948004DD1A9690133EB61002908D1009B228957
:105958005B09934243D300230420EB61FEBD6389B6
:10596800009A013B520A1A4239D12000FFF7AEFED5
:105978000600012801D80220F0E7431C01D10120CC
:10598800ECE76369984224D3002FE4D0A969280082
:10599800FFF7FCFE06000720002EDFD0012EEAD01C
:1059A800731CECD02000FFF7D8FB071EE7D10100DD
:1059B8008022200092003030FFF77BFA310020006F
:1059C800FFF708FBE06263899F4210D3E36ADF1B9D
:1059D800E762AE6131002000FFF7FCFAE861009B46
:1059E80030346B61019B0020E4182C62B6E7012378
:1059F8002000E370FFF78DFB0028C0D1E36A013770
:105A08000133E362DFE7C046FFFF1F00F7B504007C
:105A18000D00036801932B782F2B0ED05C2B0CD034
:105A28000023A3602B781F2B3FD8230080222F331D
:105A38001A702000FFF73BFFFEBD0135EBE701318F
:105A480048E02E2B00D182E090420DD95EB2002EA4
:105A580002DA6646803BF35C0026454FBF5D002FA7
:105A68007AD00136BB42F8D10620E5E7002A69D191
:105A780023002F331B78002807D00428DCD10342E9
:105A8800DAD10520D8E70420F2E75B07D4D4A3795C
:105A9800DB06F6D563690199DB05DB0D3031C918E2
:105AA800019B1878FFF7F0FAA06023002433180050
:105AB8000B2220210093FFF7FCF900222D49130047
:105AC80008208C46591CEB5C202B08D92F2B01D0C1
